:020000040800F2
:10000000B0BE002061020008052E0008792A000811
:10001000012E0008570A00087D300008000000008B
:10002000000000000000000000000000A101000826
:100030005B0A000800000000FD0100088D2E00088A
:100040007B0200087B0200087B0200087B0200089C
:100050007B0200087B0200087B0200087B0200088C
:100060007B0200087B0200087B0200087B0200087C
:100070007B0200087B0200087B0200087B0200086C
:100080007B0200087B0200087B0200087B0200085C
:100090007B0200087B0200087B0200087B0200084C
:1000A0007B020008952F00087B0200087B020008F5
:1000B0007B0200087B0200087B0200087B0200082C
:1000C0007B0200087B0200087B0200087B0200081C
:1000D0007B0200087B0200087B0200087B0200080C
:1000E0007B0200087B0200087B0200087B020008FC
:1000F0007B0200087B0200087B0200087B020008EC
:100100007B0200087B0200087B0200087B020008DB
:100110007B0200087B0200087B0200087B020008CB
:100120007B0200087B0200087B0200087B020008BB
:100130007B020008150B00087B0200087B02000808
:100140007B0200087B0200087B0200087B0200089B
:100150007B0200087B0200087B0200087B0200088B
:100160007B0200087B0200087B0200087B0200087B
:100170007B0200087B0200087B02000800000000F0
:100180007B0200087B020008DFF810D000F08EFA36
:10019000004800470F810008AFF30080B0BE002088
:1001A0002C4B19680868B0E8F04F80F30988BFF35A
:1001B0006F8F4FF0000080F311887047000000003F
:1001C00008480068006880F308884FF0000080F35A
:1001D000148862B661B6BFF34F8FBFF36F8F00DF35
:1001E00000BF00BF08ED00E0DFF80C00016841F43B
:1001F00070010160704700BF88ED00E0EFF30980F7
:10020000BFF36F8F134B1A681EF0100F08BF20ED5D
:10021000108A20E9F04F106009B44FF0500080F3CD
:100220001188BFF34F8FBFF36F8F13F047FD4FF06F
:10023000000080F3118809BC19680868B0E8F04F25
:100240001EF0100F08BFB0EC108A80F30988BFF3CE
:100250006F8F70475C000020EFF30580704700004F
:100260000648804706480047FEE7FEE7FEE7FEE750
:10027000FEE7FEE7FEE7FEE7FEE7FEE7792F000870
:10028000890100082DE9F05F0546002092469B4653
:1002900088460646814640241BE02846414647469C
:1002A000224600F0B0F953465A46C01A914110D385
:1002B00011461846224600F097F92D1A67EB0108FF
:1002C0004F4622460120002100F08EF917EB00096D
:1002D0004E41201EA4F10104DFDC484631462A4687
:1002E0004346BDE8F09F00000048704708580108E9
:1002F00010B50446FFF7F8FF0068005D00F001004C
:1003000010BD00000649074A0868504343F239020D
:1003100010440860400870470149086070470000B9
:10032000BC0100206D4EC64110B5431A934209D25C
:100330008318881803E010F8011D03F8011D521EF0
:10034000F9D210BD40EA01039B0703D009E008C9B8
:10035000121F08C0042AFAD203E011F8013B00F88A
:10036000013B521EF9D210BDD2B201E000F8012BC0
:10037000491EFBD270470022F6E710B513460A4625
:1003800004461946FFF7F0FF204610BD30B505467C
:100390002A460B4612F8010B13F8014B08B1A04294
:1003A000F8D01CB1002802D06D1CF1E7284630BD02
:1003B000CAB2401E10F8011F8A4202D00029F9D1AA
:1003C00000207047421C10F8011B0029FBD1801A45
:1003D000704710B5002200E0521C835C8C5CA34285
:1003E00001D1002BF8D1D8B2E1B2401A10BD30B51E
:1003F00004460020034600E05B1C934203D2E05C0D
:10040000CD5C401BF8D030BD034611F8012B00F83D
:10041000012B002AF9D11846704730B50546002057
:10042000034600E05B1C934205D2EC5CC85C201ADA
:1004300001D1002CF6D130BD0FB400B58DB010A99C
:1004400009900B9000914FF0FF300A9000200C9023
:1004500005480690054807906A4609A80F9900F0DC
:10046000F7F80DB05DF814FB6D0600088B06000868
:100470002DE9FF5F1D464FF0FF3BD5E90146914650
:100480005F464FF00008A9697F1C01988847296AD8
:10049000824688470028F6D1BAF1FF3F0CD024F4F9
:1004A000C064002E19DD600614D5BAF12B0F09D0F7
:1004B000BAF12D0F0ED103E0584604B0BDE8F09F0D
:1004C00044F48064A9697F1C01988847761E82469F
:1004D000002E02DDBAF1300F03D0B9F1000F26D0A3
:1004E00032E0A969761E44F400747F1C01988847A5
:1004F0008246002E05DDBAF1780F06D0BAF1580F0A
:1005000003D0B9F1000F10D01EE0B9F1000F02D0F6
:10051000B9F1100F18D1A969761E24F400747F1C5C
:10052000019888478246102002E0082000E00A2057
:10053000814609E008FB0908A969761E44F40074A5
:100540007F1C019888478246002E05DD49465046AB
:1005500000F069F80028EDDAE96901988847A005FC
:1005600002D46FF00100A8E7E00725D1600613D59B
:10057000600502D5C8F1000000E0404629680A1D68
:100580002A600968220501D5087015E0220701D507
:10059000088011E008600FE02868011D29600068EC
:1005A000210502D580F8008006E0210702D5A0F8D9
:1005B000008001E0C0F8008038467EE730B50B4689
:1005C000014600202022012409E021FA02F59D4283
:1005D00005D303FA02F5491B04FA02F52844151E57
:1005E000A2F10102F1DC30BD202A04DB203A00FA3E
:1005F00002F1002070479140C2F1200320FA03F37A
:10060000194390407047202A04DB203A21FA02F077
:100610000021704721FA02F3D040C2F1200291403C
:100620000843194670473A2800D2303820F020029B
:10063000412A01D3A2F13700884201D34FF0FF30A5
:100640007047000002681144137801601846704733
:10065000D1600449516104491162002111611146C0
:1006600000F036B845060008F1020008426842B1C1
:10067000016811F8013B23B1521EC0E9001218466F
:1006800070470121C160881E704742685AB1C36833
:10069000016843B983688B4205D0491E521CC0E9EA
:1006A0000012002070474FF0FF307047064C074D96
:1006B00006E0E06840F0010394E807009847103432
:1006C000AC42F6D3FFF764FD745E0108945E010846
:1006D0002DE9F34F8BB04FF0000801F10C000C46F0
:1006E0004FF0010B46460DF1080A019062690121A5
:1006F00001989047051E2DD0252D2CD0216A8847C2
:10070000C0B16269012101989047216A8847002899
:10071000F7D1411E62690198904700E0761CA169FB
:100720000B988847216A88470028F7D1E1690B9820
:100730008847DBE7A1690B9888470746A84201D1A3
:10074000761CD3E7E1690B9888477F1C02D1B8F18A
:10075000000F6FD047E1002762693D463946019896
:1007600090472A2804D16269012101989047012508
:10077000DFF888926269012101989047A0F1300169
:100780000A290AD24F45E5DC07EB870100EB410758
:10079000303FDFD445F01005ECE7E90601D46FF0F7
:1007A00000476C280AD04C2814D0682815D06A2835
:1007B0000DD074281CD07A281AD01DE0626901215E
:1007C000019890476C2802D045F0040514E045F0EC
:1007D00002050DE045F020050AE06269012101985B
:1007E0009047682802D045F0080505E045F400650B
:1007F0006269012101989047C4E9015765283DD0FD
:1008000019DC58287AD00CDC452837D004DC2528A0
:1008100026D0412831D131E046282FD047282CD18D
:100820002CE05B2877D0612828D063287CD064280E
:1008300023D15AE0D1E06F2848D008DC66281DD0CB
:1008400067281BD0692821D06E2816D127E0702890
:1008500045D0732868D0752847D078280DD14DE051
:10086000A1690B988847054625283FF469AFE169DF
:100870000B9888476D1C3FF46AAFB4E023466A4684
:100880006FF001000B99AFF300809FE045F040004E
:100890006060A80723464FF0000236D43EE0E80728
:1008A0007FF447AF2068011D21600068290501D54C
:1008B00006701BE7290701D5068017E7A90703D5AE
:1008C000F117C0E9006111E706600FE745F040004D
:1008D0006060A80723464FF0080216D41EE040F6D9
:1008E0000E0125EA0100606016E045F040006060FE
:1008F000A80723464FF00A0207D40FE045F0400056
:100900006060A80708D5234610226FF001000B99FC
:10091000AFF300805AE007E0234610226FF0010099
:100920000B99FFF7A5FD51E04FF000094F464B46EC
:10093000632802D05B2807D041E02079C00601D4AB
:100940000120A06001273AE06269012101989047E7
:100950005E2805D14FF00109626949460198904728
:10096000216939B900210A46534643F82120491C20
:100970000829FADBB0B3216969B9C11700EBD1626C
:1009800053110AEB830122F01F02821A01200B6827
:10099000904003430B6062690121019890475D28F4
:1009A000E8D1B9F1000F09D00020514651F82020BC
:1009B000D24341F82020401C0828F7DB02AB224636
:1009C00000976FF001000B99AFF3008000280CDA5C
:1009D000401C08D1BBF1000F05D04FF0FF300DB027
:1009E000BDE8F08FFFE74046F9E7E90701D108F1DC
:1009F000010806444FF0000B78E60000CCCCCC0C8C
:100A000070B58C1810F8015B15F0070301D110F8D0
:100A1000013B2A1106D110F8012B03E010F8016BFD
:100A200001F8016B5B1EF9D12B0705D40023521E80
:100A30000DD401F8013BFAE710F8013BCB1A921CE8
:100A400003E013F8015B01F8015B521EF9D5A142E6
:100A5000D8D3002070BD00BFFEE77047016801F5E4
:100A60008051896921F00202016801F580518A6193
:100A70007047016801F58051896941F002020168FF
:100A800001F580518A617047016801F580518969DB
:100A900021F40052016801F580518A6170470168B4
:100AA00001F58051896941F40052016801F58051D6
:100AB0008A61704708B508490968C9084FF47A7215
:100AC000B1FBF2F14143009100BF00BF00994A1E03
:100AD00000920029F9D108BD5800002038B504461D
:100AE00000200090206800F58050806940F480115B
:100AF000206800F580508161206800F58050806991
:100B000000900120FFF7D6FF0099206800F5805083
:100B1000816138BD10B5024800F02EFB10BD000009
:100B20000035002030B503461479557944EA052094
:100B3000084C0C442064D4782406957844EA054493
:100B4000557844EA0524157844EA0500014C0C4424
:100B5000606430BD0080024070B5AEB004460E4601
:100B6000002526B14FF40061E160C900A1600020BA
:100B7000119012901390149015901690E06918B986
:100B80004FF48060179001E0002017904FF4007040
:100B90001890002019901A901B901C901D904020D6
:100BA0001E9000201F90209021902290239024904E
:100BB00025902690802027900020289029902A9028
:100BC0002B902C902D902068056871480540DDE938
:100BD000110108431399084314990843A168084375
:100BE0001599084316990843E16808431799084383
:100BF00018990843199908431A9908431B990843FF
:100C000005432068056020680568012000F01AF996
:100C100020680560DDE91C0108431E9908431F99FF
:100C200008432099084321990843229908432399AE
:100C300008432168486020684568012000F002F9F7
:100C40002068456024982168886025982168C860DC
:100C5000206885694FF641700540DDE9261040EABD
:100C6000014028990843299908432A9908432B9958
:100C7000084305432068856120688569012000F0EC
:100C8000E1F820688561DDE92C0108432168C8612D
:100C90002068C569012000F0D5F82068C5610020F2
:100CA00001904FF000700290002003904FF400106C
:100CB0000490002005900690079008900420099069
:100CC000C0050A9040120B9080010C9040120D90CC
:100CD00080200E9000200F901090206800F580502A
:100CE00085692C480540DDE9010108430399084363
:100CF000049908430599084306990843079908434E
:100D000008990843099908430543206800F5805075
:100D10008561206800F580508569012000F092F817
:100D2000206800F580508561DDE90A0108430C99CF
:100D300008430D9908430E9908430F9940EA810032
:100D40001099084340F40001206800F580500160CC
:100D5000206800F580500568012000F073F82068D5
:100D600000F580500560A069012809D1206800F5D0
:100D70008050C06908490843216801F58051C86165
:100D8000002120466269FFF7CDFE2EB070BD000045
:100D90000F8120FF233FDEF84000010038B50446F4
:100DA000002000902068006820F00400216808609E
:100DB0002068006800900120FFF77CFE0098216801
:100DC000086038BD38B504460020009020680068EF
:100DD00040F004002168086020680068009001204D
:100DE000FFF768FE00982168086038BD38B50446F2
:100DF000002000902068006820F00800216808604A
:100E00002068006800900120FFF754FE00982168D8
:100E1000086038BD38B5044600200090206800689E
:100E200040F00800216808602068006800900120F8
:100E3000FFF740FE00982168086038BD72B600BF19
:100E4000FEE7000070B5044600F07EFE064625462B
:100E5000681C10B104480078054400BF00F074FE1F
:100E6000801BA842FAD370BD5400002070B505461F
:100E70000C46002600BF95F84500012801D102204C
:100E800070BD012085F8450000BF022085F84400B0
:100E9000002C6DD02868066843480640D4E900015C
:100EA0000843A1680843E1680843A9680843216929
:100EB000084361690843E9680843A1690843E16997
:100EC0000843216A0843616A0843A16A084306434C
:100ED00028680660286806680120FFF7B3FF2868C5
:100EE0000660D4E90B010843616B0843A16B08431A
:100EF000E16B0843216C0843616C0843A16C084313
:100F000029684860286846680120FFF79BFF286829
:100F10004660E06C29688860206D2968C860286890
:100F200086694FF641700640B4F85410A06D40EA4F
:100F30000140E16D0843216E0843616E0843A16ED4
:100F40000843064328688661286886690120FFF700
:100F500079FF28688661D4E91B0108432968C861C4
:100F60002868C6690120FFF76DFF2868C66110E098
:100F70002868066826F49046D5E90201084306432E
:100F800028680660286806680120FFF75BFF28686C
:100F90000660012085F8440000BF002085F8450068
:100FA00000BF00BF6CE700000F8120FF70B5044652
:100FB0000D461646002200BF94F84500012801D1D5
:100FC000022070BD012084F8450000BF022084F893
:100FD0004400A56200221FE005EB42114FF00040E3
:100FE000086044F2F4504860C2EBC21000EB4000CD
:100FF00006EB80008860A069012803D1486820F0D2
:1010000000404860581E904204D905EB4210203041
:10101000C86000E0CD60521C9A42DDD3206800F524
:101020008050C560012084F8440000BF002084F88F
:10103000450000BF00BFC4E770B504460D46164624
:10104000002200BF94F84500012801D1022070BDA4
:10105000012084F8450000BF022084F84400E562C6
:1010600000221BE005EB42114FF480100860C2EB38
:10107000C21000EB400006EB80008860E06918B900
:10108000086840F440000860581E904204D905EBFF
:1010900042102030C86000E0CD60521C9A42E1D37B
:1010A000206800F580500561012084F8440000BFED
:1010B000002084F8450000BF00BFC8E77047014624
:1010C000002200BF91F84500012801D1022070479D
:1010D000012081F8450000BF022081F844003AE079
:1010E000521C886A006800F44070B0F5007F07D198
:1010F000886A086301238B63886AC06888622AE073
:10110000886A006800F4407030B9886B401C8863BE
:10111000886AC06888621EE08B6A4B63886B401CDB
:101120008863886B012801D1886A0863886A00682F
:10113000C0F30D40001FC863086B83680B64886AA6
:10114000C0688862012081F8440000BF002081F857
:10115000450000BFBBE7886A006800F0004008B99E
:10116000042ABDD3012081F8440000BF002081F88B
:10117000450000BF0120AAE710B50446206800F52D
:101180008050406900F0400040280FD1204600F018
:1011900089FA4021206800F580504161012084F8DF
:1011A000440000BF002084F8450016E0206800F5E8
:1011B0008050406900F0010078B1204600F06DFBDE
:1011C0000121206800F580504161012084F844002D
:1011D00000BF002084F8450000BF4FF48031206834
:1011E00000F580504161206800F58050406900F4AE
:1011F0000040B0F5004F10D12046FFF75FFF4FF4DD
:101200000041206800F580504161012084F84400CD
:1012100000BF002084F8450000BF10BD2DE9FC414F
:1012200004460025002001909D4E0027804614B9F9
:101230000120BDE8FC8194F8440028B9002084F81E
:101240004500204600F03AF900BF00200090954884
:10125000006840F48040934908600846006800F444
:101260008040009000BF00BF8F48006820F400005D
:101270008D49086008460068216A08438A49086069
:10128000206800F58050006840F00101206800F5FA
:101290008050016000F058FC07460FE000F054FC5D
:1012A000C01BB0F5FA7F09D9032084F8440000BFC1
:1012B000002084F8450000BF0320BAE7206800F54D
:1012C0008050006800F001000028E7D1206805691F
:1012D00025F01C0500F01EFE06467448864205D324
:1012E0007348864202D245F008051AE070488642EB
:1012F00005D36B48864202D245F00C0511E06848E0
:10130000864203D36B48864200D20AE0694886428F
:1013100005D36948864202D245F0040501E045F054
:101320001005206805614FF400420021204600F0BE
:10133000B5FA48B14FF0010841462046FFF70CFCD2
:10134000012084F8440074E7FF20FFF77BFD60680C
:10135000002871D000F0F8FB074600BF01AA012168
:10136000204600F055F900F0EFFBC01B41F2883138
:1013700088420FD94FF0010841462046FFF7ECFBA9
:10138000012084F8440000BF002084F8450000BF1D
:1013900003204EE7019800F004000428DED1820209
:1013A0000021204600F07AFA48B14FF0010841468A
:1013B0002046FFF7D1FB012084F8440039E700F014
:1013C000C3FB074600BF01AA0121204600F020F917
:1013D00000F0BAFBC01B41F2883188420FD94FF0B0
:1013E000010841462046FFF7B7FB012084F844007E
:1013F00000BF002084F8450000BF032019E70198D2
:1014000000F020002028DED101AA1F21204600F094
:10141000FFF848B14FF0010841462046FFF79CFB1A
:10142000012084F8440004E7019800F0100020B186
:101430004FF40061E16002E00DE00021E1600198FD
:1014400000F00400042802D10021A1601EE04FF446
:101450008041A1601AE0E068C0F3CF00A168C1F349
:101460004F0140EA01020021204600F017FA48B17E
:101470004FF0010841462046FFF76EFB012084F83B
:101480004400D6E640F6FF70FFF7DCFC41462046FC
:10149000FFF762FB012084F844000020C9E6000049
:1014A000008793034438024004380140002D310185
:1014B000C00E160200E1F50580D1F00810B586B027
:1014C0000446142101A8FEF756FF4C4920688842C3
:1014D0007ED100BF00BF002000904948006840F066
:1014E0000070474908600846006800F000700090EE
:1014F00000BF00BF00BF002000900846006840F019
:10150000806008600846006800F08060009000BFBE
:1015100000BF00BF002000900846006840F0006057
:1015200008600846006800F00060009000BF00BF3F
:1015300000BF00BF002000900846006840F0040093
:1015400008600846006800F00400009000BF00BF7B
:1015500000BF002000900846006840F001000860CD
:101560000846006800F00100009000BF00BF00BF07
:10157000002000900846006840F00200086008461D
:10158000006800F00200009000BF00BF3220019010
:101590000220029000200390032004900B2005906D
:1015A00001A9184800F0C2F986200190022002909B
:1015B00000200390032004900B20059001A91248FD
:1015C00000F0B4F94FF4605001900220029000E066
:1015D00011E000200390032004900B20059001A946
:1015E0000A4800F0A3F9002205213D2000F05CFB31
:1015F0003D2000F049FB06B010BD00000080024015
:10160000303802400008024000000240000402405E
:101610002DE9F04104460E4617460025A84694F8E9
:101620004400822802D10220BDE8F081822084F8A3
:1016300044002068056905F01C05208A4FF47841B4
:1016400001EAC0200543481100EA8610054325F051
:10165000020545F001052068056100F075FA804635
:1016600012E000F071FAA0EB0800B0F5803F09D35A
:10167000012084F8440000BF002084F8450000BF2A
:101680000320D1E72068056905F001000028E8D1B2
:101690002068406980B23860012084F8440000204E
:1016A000C2E7000010B504460248006808F05EF981
:1016B00010BD00002400002010B5044600BF94F8BF
:1016C0004500012801D1022010BD012084F8450009
:1016D00000BF022084F844002046FFF79BFB204611
:1016E000FFF770FB2046FFF7F9F92046FFF7D7F91F
:1016F0002046FFF7BEF9012084F8440000BF002017
:1017000084F8450000BF00BFDEE710B5044600BF07
:1017100094F84500012801D1022010BD012084F871
:10172000450000BF022084F844002046FFF7ACF9D2
:101730002046FFF793F92046FFF730FB2046FFF7DE
:10174000CDF92046FFF752FB012084F8440000BF8A
:10175000002084F8450000BF00BFDEE770B50246F8
:1017600000230025002400BF92F84500012801D184
:10177000022070BD012082F8450000BF022082F8DF
:10178000440049B9012082F8440000BF002082F8DB
:10179000450000BF0120ECE7D06A006800F000407F
:1017A00048B1122082F8440000BF002082F84500B2
:1017B00000BF0120DDE740F2F450814208D9B1FBBF
:1017C000F0F3B1FBF0F600FB161010B15B1C00E06B
:1017D0000123012B13D1D06A006840F04050D66A33
:1017E0003060C1F30C00D66A7060D06A006840F0C7
:1017F0000040D66A3060D06AC068D06232E000240F
:101800002EE0D06A006820F04050D66A30602CB9D3
:10181000D06A006840F08050D66A306040F2F450E0
:10182000D66A7060581EA04210D1D06A006840F09D
:101830000050D66A3060581EC0EBC01000EB40006C
:10184000A1EB8005C5F30C00D66A7060D06A006811
:1018500040F00040D66A3060D06AC068D062641C34
:101860009C42CED3106800F58050406900F004001F
:1018700048B10426106800F58050466100261068C3
:1018800000F580504660012082F8440000BF00202F
:1018900082F8450000BF00BF6BE770472DE9F041BB
:1018A00004460E4617460025A84694F844004228F0
:1018B00002D10220BDE8F081422084F84400206873
:1018C000056905F01C05208A4FF4784101EAC02023
:1018D0000543481100EA8610054345F0020545F02E
:1018E0000105B8B2216848612068056100F02CF953
:1018F000804612E000F028F9A0EB0800B0F5803F28
:1019000009D3012084F8440000BF002084F845007A
:1019100000BF0320CEE72068056905F0010000281C
:10192000E8D1012084F844000020C3E7F8B502465E
:101930000B460025002400200021DCE0012606FAE9
:1019400001F51E6806EA0504AC4273D15E68012EFB
:1019500008D05E68022E05D05E68112E02D05E6847
:10196000122E13D190684F000326BE40B0434F00A3
:10197000DE68BE4030439060506801268E40B04320
:101980001E79C6F300168E4030435060D0684F0079
:101990000326BE40B0434F009E68BE403043D06037
:1019A0005E68022E02D05E68122E13D1CF0802F1BB
:1019B000200656F827004E07F70E0F26BE40B0430C
:1019C0004F07FF0E1E69BE403043CF0802F12006CC
:1019D00046F8270010684F000326BE40B0431E792A
:1019E00006F003064F00BE40304310605E6806F00C
:1019F0008056B6F1805F7DD100BF00260096404E34
:101A0000366846F480463E4F3E603E46366806F4F1
:101A10008046009600BF00BF3A4E8F0856F8270058
:101A20008E07370F0F26BE40B043374EB24202D169
:101A3000002624E05EE0354EB24201D101261EE0D0
:101A4000334EB24201D1022619E0324EB24201D1E8
:101A5000032614E0304EB24201D104260FE02F4E8F
:101A6000B24201D105260AE02D4EB24201D106262E
:101A700005E02C4EB24201D1072600E008268F0770
:101A80003F0FBE4030431F4E8F0846F82700264EBA
:101A90003068A0435E6806F48036B6F5803F00D11A
:101AA0002043214E3060361D3068A0435E6806F446
:101AB0000036B6F5003F00D120431B4E361D306086
:101AC000361D3068A0435E6806F48016B6F5801FA8
:101AD00000D12043144E08363060361D3068A043D4
:101AE0005E6806F40016B6F5001F00D120430E4EC6
:101AF0000C363060491C1029FFF420AFF8BD0000FF
:101B0000443802400838014000000240000402400E
:101B100000080240000C0240001002400014024085
:101B200000180240001C0240003C014002461369BC
:101B30000B400BB1012000E0002070470AB1816129
:101B400001E00B04836170470148006870470000A2
:101B50004C00002003480068034909780844014903
:101B6000086070474C0000205400002010B50D485C
:101B7000006840F400700B4908600846006840F4B3
:101B8000806008600846006840F4807008600320A8
:101B900000F0C8F8002000F007F800F04BF8002033
:101BA00010BD0000003C024070B588B0044600251E
:101BB000002600222146192000F076F8192000F0B6
:101BC00063F800BF002001901648006840F0010053
:101BD000144908600846006800F00100019000BF49
:101BE00000BF02A903A800F073F900F099F94500BD
:101BF0000D48B5FBF0F0461E0C480D49086040F258
:101C0000E7310B48C160466000210161816000F04E
:101C100035FC20B9064800F04CFC08B070BD01202E
:101C2000FBE700004438024040420F000000014042
:101C30002004002008B500BF002000901148006873
:101C400040F480400F4908600846006800F4804076
:101C5000009000BF00BF00BF00200090081F006878
:101C600040F08050091F08600846006800F080506E
:101C7000009000BF00BF00220F21901E00F014F85A
:101C800008BD00004438024001460846002809DB30
:101C900000F01F0301229A4043099B0003F1E02357
:101CA000C3F8002100BF70472DE9F05F80460D4664
:101CB0001646002701F0A4FA074639462A4633465D
:101CC00001F00700C0F1070ABAF1040F02D94FF082
:101CD000040A01E0C0F1070AD14600F1040ABAF192
:101CE000070F02D24FF0000A01E0A0F1030AD44628
:101CF0004FF0010A0AFA09FAAAF1010A0AEA020AED
:101D00000AFA0CFA4FF0010B0BFA0CFBABF1010BCA
:101D10000BEA030B4AEA0B042146404601F078FA2D
:101D2000BDE8F09F00BF00F00702064B19684FF6B0
:101D3000FF031940044B0B4343EA0221014B196096
:101D400000BF70470CED00E00000FA0570B50446D6
:101D50000D460CB9012070BD5848006800F00F0016
:101D6000A84209D255490D700846006800F00F00DE
:101D7000A84201D00120EEE7207800F002000228FE
:101D80001DD1207800F00400042805D14C480068DB
:101D900040F4E0504A490860207800F00800082824
:101DA00005D14748006840F4604045490860444810
:101DB000006820F0F000A1680843414908602078DD
:101DC00000F00100A8B36068012807D13C4808383A
:101DD0000068C0F34040B8B90120BCE76068022841
:101DE00002D06068032807D1354808380068C0F37E
:101DF000406048B90120AEE7314808380068C0F3B8
:101E0000400008B90120A6E72D48006820F0030033
:101E1000616808432A490860FFF796FE064609E014
:101E2000FFF792FE801B41F28831884202D90320DD
:101E300091E707E02248006800F00C006168B0EB11
:101E4000810FEDD11D48006800F00F00A84209D9AC
:101E50001A490D700846006800F00F00A84201D032
:101E6000012078E7207800F00400042807D1144806
:101E7000006820F4E050E1680843114908602078C8
:101E800000F00800082808D10D48006820F46040E0
:101E9000216940EAC1000A49086000F051F8084988
:101EA0000968C1F30311074A515CC840064908603C
:101EB00006480068FFF778FE00204CE7003C02402F
:101EC000083802401051010858000020500000203E
:101ED0000F2202600D4A126802F0030242600B4AB0
:101EE000126802F0F0028260084A126802F4E052BE
:101EF000C260064A126802F46042D2080261044AD3
:101F0000126802F00F020A607047000008380240B1
:101F1000003C024001480068704700005800002063
:101F200000B5FFF7F7FF04490968C1F34231034ADE
:101F3000515CC84000BD0000083802402051010833
:101F40002DE9F047002400250026A1462548006819
:101F500000F00C0020B1042805D008283AD105E093
:101F6000DFF8849039E0DFF8849036E01D48001FE8
:101F7000006800F03F041B48001F006800F4800068
:101F800078B11A481749091F0968C1F38811A0FBE5
:101F900001700146224600233846FEF773F90546D4
:101FA0000EE011480F49091F0968C1F38811A0FB11
:101FB00001700146224600233846FEF763F90546C4
:101FC0000848001F0068C0F30140401C4600B5FBF4
:101FD000F6F902E0DFF8109000BF00BF4846BDE808
:101FE000F0870000083802400024F40040787D01AA
:101FF000F8B504460CB90120F8BD207800F00100C6
:10200000002874D0F948006800F00C0004280DD0B6
:10201000F648006800F00C00082813D1F348001FB0
:10202000006800F48000B0F5800F0BD1EF4808384D
:102030000068C0F34040002859D06068002856D19D
:102040000120D9E700BF6068B0F5803F08D1E748BC
:102050000838006840F48030E449083908601EE020
:102060006068B0F5A02F0DD1E0480838006840F452
:102070008020DE49083908600846006840F4803056
:1020800008600CE0D9480838006820F48030D7494F
:10209000083908600846006820F48020086000BF06
:1020A000606890B1FFF750FD054606E0FFF74CFD74
:1020B000401B642801D903209EE7CC4808380068FB
:1020C000C0F340400028F1D011E0FFF73DFD054688
:1020D00006E0FFF739FD401B642801D903208BE798
:1020E000C24808380068C0F340400028F1D1207889
:1020F00000F0020002285FD1BC48006800F00C002C
:1021000058B1BA48006800F00C0008281CD1B74844
:10211000001F006800F48000B0B9B44808380068B7
:10212000C0F3400020B1E068012801D0012063E73E
:10213000AE480838006820F0F800216940EAC10084
:10214000AA490839086037E0E06800B30120A849CF
:102150000860FFF7F9FC054606E0FFF7F5FC401BB9
:10216000022801D9032047E7A04808380068C0F3D7
:1021700040000028F1D09D480838006820F0F800A1
:10218000216940EAC10099490839086014E000203B
:1021900097490860FFF7D8FC054606E0FFF7D4FC36
:1021A000401B022801D9032026E790480838006820
:1021B000C0F340000028F1D1207800F00800082882
:1021C0002CD16069A8B101208A490860FFF7BCFCE6
:1021D000054606E0FFF7B8FC401B022801D90320A2
:1021E0000AE782486C300068C0F340000028F1D054
:1021F00014E000207F490860FFF7A6FC054606E0D2
:10220000FFF7A2FC401B022801D90320F4E677481F
:102210006C300068C0F340000028F1D1207800F055
:102220000400042870D1002770483830006800F09E
:10223000805090B900BF002000906C483830006892
:1022400040F080506949383108600846006800F065
:102250008050009000BF00BF01276748006800F46D
:102260008070B0B96448006840F4807062490860CA
:10227000FFF76AFC054606E0FFF766FC401B0228F4
:1022800001D90320B8E65C48006800F4807000289B
:10229000F2D000BFA068012808D154486830006817
:1022A00040F001005149683108601DE0A068052830
:1022B0000DD14E486830006840F004004B49683149
:1022C00008600846006840F0010008600CE04748DC
:1022D0006830006820F00100444968310860084611
:1022E000006820F00400086000BFA068A8B1FFF7F4
:1022F0002BFC054609E0FFF727FC401B41F2883123
:10230000884202D9032077E626E038486830006822
:10231000C0F340000028EED013E0FFF715FC05469F
:1023200008E0FFF711FC401B41F28831884201D9D7
:10233000032061E62D4868300068C0F340000028A3
:10234000EFD1012F07D129483830006820F08050A4
:1023500026493831086000BFA069002845D02348CD
:10236000006800F00C0008285DD0A069022845D163
:1023700000201F490866FFF7E7FB054606E0FFF768
:10238000E3FB401B022801D9032035E61748083833
:102390000068C0F340600028F1D1D4E90701084388
:1023A000616A40EA81110122A06AC2EB500041EA51
:1023B00000412C20005D41EA00600C49091F0860C3
:1023C00001200B490866FFF7BFFB054606E0FFF753
:1023D000BBFB401B022801D903200DE60348083847
:1023E0000068C0F340600028F1D03FE008380240A8
:1023F00000004742800E47420070004000201C4908
:102400000866FFF7A1FB054606E0FFF79DFB401BB2
:10241000022801D90320EFE516480068C0F34060A8
:102420000028F2D122E0A069012800D1E4E511489A
:10243000001D066806F48001E069814214D106F0AF
:102440003F01206A81420FD147F6C0703040616A77
:10245000884209D106F44031A06A814204D106F0D5
:102460007061E06A814201D00120C5E50020C3E52A
:1024700000004742003802407047704710B50446DC
:102480000CB9012010BD94F83D0028B9002084F853
:102490003C00204600F00CF8022084F83D00211D8D
:1024A000206800F07FFD012084F83D000020E9E76E
:1024B000704701460868C06840F001000B68D860AA
:1024C0000868806800F00702062A05D008680068DE
:1024D00040F001000B68186000207047704710B58D
:1024E000044620680069C0F34000D8B12068C06885
:1024F000C0F34000B0B16FF0020021680861012014
:1025000020772068806900F0030018B12046FFF7AB
:10251000E5FF05E0204600F0ADF8204600F0ABF8FE
:102520000020207720680069C0F38000D8B12068BF
:10253000C068C0F38000B0B16FF00400216808618A
:10254000022020772068806900F4407018B120468E
:10255000FFF7C4FF05E0204600F08CF8204600F0AD
:102560008AF80020207720680069C0F3C000D8B145
:102570002068C068C0F3C000B0B16FF008002168E7
:102580000861042020772068C06900F0030018B1BA
:102590002046FFF7A3FF05E0204600F06BF8204639
:1025A00000F069F80020207720680069C0F300106F
:1025B000D8B12068C068C0F30010B0B16FF010004F
:1025C00021680861082020772068C06900F4407005
:1025D00018B12046FFF782FF05E0204600F04AF8D8
:1025E000204600F048F8002020772068006900F0BD
:1025F000010058B12068C06800F0010030B16FF0F0
:10260000010021680861204600F036F82068006962
:10261000C0F3C01058B12068C068C0F3C01030B11A
:102620006FF08000216808612046FFF725FF2068D1
:102630000069C0F3801058B12068C068C0F38010F2
:1026400030B16FF0400021680861204600F020F8AA
:1026500020680069C0F3401058B12068C068C0F31A
:10266000401030B16FF02000216808612046FFF76C
:1026700004FF10BD7047704710B504460349206839
:10268000884201D1FFF766FA10BD0000000001404A
:10269000704710B5012000F005F840F6B83010F092
:1026A000FFFF10BD10B504460648006820F4006026
:1026B00004490860201100F007F804F00F0000F052
:1026C00003F810BD140C024010B50446C4F3C00258
:1026D0004FF480511748FFF731FAC4F380024FF4EA
:1026E00000511448FFF72AFAC4F340024FF4804126
:1026F0001048FFF723FA04F001024FF400410D489F
:10270000FFF71CFA0B481430006840F080000949BC
:1027100014310860142010F0C3FF0648143000681C
:1027200020F08000034914310860142010F0B8FF35
:1027300010BD0000000C024038B505460C460AA04A
:10274000006800900948C078A04200DC00240748D7
:10275000457184711DF804102944C9B241F080000C
:10276000FFF7A0FF38BD0000004014540000002017
:1027700010B504460648006840F40060044908604B
:102780002011FFF7A1FF04F00F00FFF79DFF10BD20
:10279000140C024010B50648007840F004000449CB
:1027A0000870097841F00800FFF77CFF10BD0000B9
:1027B0000000002070B505460C4600F04BF84AF6C4
:1027C000C87010F06DFF2248C470057100202049C8
:1027D000487188714870012C04DD0846407840F04B
:1027E000080048700320FFF76FFF41F2941010F0CB
:1027F00057FF0320FFF768FF41F2941010F050FFDD
:102800000320FFF761FF41F2941010F049FF02200E
:10281000FFF75AFF642010F043FF0D49497841F05B
:102820002000FFF73FFF042009490870FFF7B2FFBF
:10283000FFF72FFF022006498870897841F00400D5
:10284000FFF730FF41F2941010F02AFF70BD000036
:102850000000002000B587B000BF00200190634851
:10286000006840F00800614908600846006800F010
:102870000800019000BF00BF00BF00200190084683
:10288000006840F0080008600846006800F0080092
:10289000019000BF00BF00BF002001900846006803
:1028A00040F0080008600846006800F00800019049
:1028B00000BF00BF00BF002001900846006840F044
:1028C000080008600846006800F00800019000BF9A
:1028D00000BF00BF002001900846006840F00800DB
:1028E00008600846006800F00800019000BF00BFC3
:1028F00000BF002001900846006840F00800086012
:102900000846006800F00800019000BF00BF00BF4B
:10291000002001900846006840F008000860084662
:10292000006800F00800019000BF00BF0120039084
:1029300000200490022005908002029002A92C48F9
:10294000FEF7F4FF00224FF400612948FFF7F6F884
:102950004FF48060029002A92548FEF7E7FF0022AD
:102960004FF480612248FFF7E9F88020029002A925
:102970001F48FEF7DBFF002280211D48FFF7DEF82D
:102980004FF40040029002A91948FEF7CFFF002241
:102990004FF400411648FFF7D1F84FF48040029001
:1029A00002A91348FEF7C2FF00224FF480411048ED
:1029B000FFF7C4F84FF40050029002A90C48FEF74C
:1029C000B5FF00224FF400510948FFF7B7F84FF464
:1029D0008050029002A90648FEF7A8FF00224FF49B
:1029E00080510348FFF7AAF807B000BD3038024015
:1029F000000C024070B505460E4614463146284686
:102A0000FFF79AFE31E01B4840791A49097988425C
:102A10000BDB00201749487108468079401C8871FB
:102A20000A4691795079FFF787FE20780A280AD163
:102A300010488079401C0F4988710A469179507975
:102A4000FFF77AFE10E020780D2805D1094881793A
:102A50000020FFF771FE07E02078FFF789FE0548A8
:102A60004079401C03494871641C20780028CAD171
:102A700070BD00000000002000BFFEE710B5044A52
:102A80000021044806F0ACFF0349086010BD0000B7
:102A9000B8500108092E00080800002000B587B0D2
:102AA000142102A8FDF767FC00BF002001902B480D
:102AB000006840F01000294908600846006800F0EE
:102AC0001000019000BF00BF00BF00200190084629
:102AD000006840F0040008600846006800F0040048
:102AE000019000BF00BF00BF0020019008460068B1
:102AF00040F0010008600846006800F00100019005
:102B000000BF00BF00BF002001900846006840F0F1
:102B1000020008600846006800F00200019000BF53
:102B200000BF00224FF460410D48FFF707F8702006
:102B3000029000200390049002A90A48FEF7F6FED6
:102B40004FF4604002900120039000200490059013
:102B500002A90348FEF7EAFE07B000BD3038024084
:102B600000080240001002400EB5C02094490870D1
:102B7000A820487064208870C870FF2091490870B0
:102B8000487088700020C870C0208F490870A82045
:102B9000487064208870FA20C8700021084610F040
:102BA00005F98748007800068549497840EA0140E0
:102BB0008349897840EA01208149C978084302069F
:102BC0007F48007800067E49497840EA01407C4908
:102BD000897840EA01207A49C978084300F47F40A7
:102BE00042EA00227648007800067549497840EAB2
:102BF00001417348807841EA00207149C97808434F
:102C000000F47F0042EA10226D48007801066C480B
:102C1000407841EA00416A48807841EA00206849EA
:102C2000C978084342EA106068490860654800783E
:102C300000066449497840EA01406249897840EADF
:102C400001206049C978084302065E480078000602
:102C50005C49497840EA01405A49897840EA0120B4
:102C60005849C978084300F47F4042EA0022554899
:102C7000007800065349497840EA0141514880787C
:102C800041EA00204F49C978084300F47F0042EA36
:102C900010224C48007801064A48407841EA004139
:102CA0004848807841EA00204649C978084342EA0A
:102CB0001060474908604448007800064249497856
:102CC00040EA01404049897840EA01203E49C978FC
:102CD000084302063C48007800063B49497840EA30
:102CE00001403949897840EA01203749C9780843C9
:102CF00000F47F4042EA002233480078000632495F
:102D0000497840EA01413048807841EA00202E4964
:102D1000C978084300F47F0042EA10222A4800786C
:102D200001062948407841EA00412748807841EA75
:102D300000202549C978084342EA10602549086007
:102D4000254826490022234BCDE900210290204A44
:102D50001E49234805F0FCFE214806F06BF9204887
:102D600090F82D00C0F3800018B11D4806F0A2FABB
:102D700002E01B4806F064F91A49194806F0C6F942
:102D800000220121084606F07DFD1749086014481D
:102D90001649086014480068486024211448FDF76B
:102DA000EAFA14A0124908604FF4806048611020CC
:102DB00088610A460D49114806F012FE0EBD00005A
:102DC0004000002044000020480000203400002083
:102DD000380000203C000020A52F010859460008BB
:102DE0004835002099470008280000202C000020CA
:102DF0007C3500204C696E6B5468720041470008B6
:102E000000BFFEE700BFFEE7FFF7AEFE0221102085
:102E1000FFF7D0FC03F0C6FA03221549154803F06A
:102E20001BF90221144803F0ABF800BF102113482E
:102E3000FEF77CFE08B1124800E012481249086013
:102E400020210E48FEF772FE08B10D4800E00D4843
:102E50000D49486040210948FEF768FE08B108485E
:102E600000E0084808498860322006F083FADDE770
:102E70000C000020B1310008005101080010024090
:102E8000DC500108E15001081800002010B500BF17
:102E9000502080F31188BFF34F8FBFF36F8F00BFB7
:102EA00011F078FE18B14FF080500449086000BF5F
:102EB000002080F3118800BF10BD000004ED00E089
:102EC00000B593B0302107A8FDF755FA142102A8E8
:102ED000FDF751FA00BF002001902548006840F03E
:102EE0008050234908600846006800F08050019037
:102EF00000BF00BF00BF002001901E48006840F4E2
:102F000080401C4908600846006800F48040019039
:102F100000BF00BF0220079001200A9010200B90F4
:102F200002200D9000210E9108210F91A8211091EF
:102F3000022111910421129107A8FFF759F808B155
:102F4000FDF77CFF0F2002900220039000200490E8
:102F50004FF4A05005904FF480500690052102A830
:102F6000FEF7F4FE08B1FDF769FF13B000BD0000E5
:102F700040380240007000400548006840F470008E
:102F8000034908604FF000600149803908607047CC
:102F900088ED00E010B50248FFF7A1FA10BD00006F
:102FA0002004002010B50268294B98420ED0B0F1E1
:102FB000804F0BD0274B984208D0274B984205D022
:102FC000264B984202D0264B984203D122F0700241
:102FD0004B681A431E4B984220D0B0F1804F1DD051
:102FE0001C4B98421AD01C4B984217D01B4B98424E
:102FF00014D01B4B984211D01A4B98420ED01A4B4A
:1030000098420BD0194B984208D0194B984205D0E2
:10301000184B984202D0184B984203D122F44072C8
:10302000CB681A4322F080034C6943EA0402026031
:103030008B68C3620B688362054B984202D0084BD1
:10304000984201D10B6903630123436110BD000065
:10305000000001400004004000080040000C004057
:10306000000401400040014000440140004801408C
:1030700000180040001C00400020004000BFFEE798
:103080002DE9F04107460C4615461E46012C10D18D
:1030900009A12868FDF79DF948B9FFF7FAFA002160
:1030A00008463268FFF7A6FC05A0BDE8F08106A03F
:1030B000FBE707A0F9E700007465787400000000E2
:1030C0002F646F6E650000002F6572726F720000D2
:1030D0002F3430342E68746D6C0000002DE9FC41F3
:1030E00007460E4614461D46022E46D124A12068EE
:1030F000FDF76FF900283ED122A16068FDF769F95C
:10310000002838D101AA21A12868FDF795F96A465F
:103110001EA16868FDF790F9019800282ADB019844
:10312000022827DC009810B10098012822D10198CC
:1031300020B101280AD0022818D10FE00098C2B2AD
:103140004FF400511248FEF7F9FC0FE00098C2B2AC
:103150004FF480410E48FEF7F1FC07E00098C2B240
:103160004FF400410A48FEF7E9FC00BF00BF09A088
:10317000BDE8FC8100BF09A0FAE70AA0F8E700005B
:103180006E756D0073746174650000002564000045
:10319000000802402F646F6E650000002F65727298
:1031A0006F7200002F3430342E68746D6C00000094
:1031B00070B504460D461646074850F824102846B8
:1031C000FDF722F9044850F824000449884201D14F
:1031D000042070BD0320FCE718000020DC5001082B
:1031E0000FB4054B10B503A9044A029800F03CF84F
:1031F00010BC5DF814FB0000EB480008C001002083
:1032000002480068C0F30220704700000CED00E0A7
:1032100010B5002804DB0A07130E054A135406E014
:103220000A07140E034A00F00F031B1FD45410BDED
:1032300000E400E018ED00E0EFF311807047EFF3D9
:1032400005807047EFF31080704702E008C8121F36
:1032500008C1002AFAD170477047002001E001C17F
:10326000121F002AFBD170472DE9FF4F8BB09A4601
:103270000F460546002606E025280BD052460D993C
:1032800090476D1C761C28780028F5D10FB0304689
:10329000BDE8F08F0024A0460122604900E004430D
:1032A00015F8013F203B02FA03F00842F7D12878D5
:1032B0002E2817D115F8010F44F004042A280ED047
:1032C0006FF02F022878A0F1300109290AD808EB05
:1032D000880102EB410100EB01086D1CF2E757F891
:1032E000048B6D1C287869283ED006DC0028CDD0E0
:1032F00063280BD0642804D136E0732810D07528D9
:103300004BD052460D999047761C85E017F8040B78
:103310008DF8000000208DF80100E946012003E04F
:1033200057F8049B4FF0FF3061074FF0000401D4C1
:103330000AE0641C44450DDA8442FADB19F80410F3
:103340000029F6D106E0641C8442FCDB19F8041065
:103350000029F8D1264404E019F8010B52460D99D2
:103360009047641EF8D257E001CF4FF00A0B0028B7
:1033700002DA40422D2102E0210504D52B218DF8EF
:103380002410012103E0E10705D02021F7E70DF12A
:10339000200908910CE00021F9E701CF4FF00A0B5A
:1033A000F9E75946FDF70AF901F1300209F8012D54
:1033B0000028F6D1ADEB090000F1200B600701D425
:1033C0004FF00108D84502DDA8EB0B0000E000201B
:1033D0008046002406E009A85246005D0D999047FA
:1033E000641C761C08988442F5DB04E030205246C9
:1033F0000D999047761CB8F10001A8F10108F5DCA1
:1034000005E019F8010B52460D999047761CBBF167
:103410000001ABF1010BF4DC6D1C34E7092801005D
:103420002DE9F04104460D4600BF05F003000028D9
:1034300008D000BF0BA34FF4B67216A11DA0FFF772
:10344000CFFE00BF00BF2E4608F014FA0746A06862
:1034500000683060A0680660384608F017FABDE8DA
:10346000F08100002E2E2F4D6964646C65776172C7
:1034700065732F54686972645F50617274792F4C60
:103480007749502F7372632F636F72652F6D656D6F
:10349000702E63006D656D705F667265653A206DB4
:1034A000656D2070726F7065726C7920616C6967F0
:1034B0006E656400417373657274696F6E202225B6
:1034C0007322206661696C6564206174206C696E8A
:1034D0006520256420696E2025730A0070B50546B5
:1034E00008F0C8F90646A8680468002C16D02068C1
:1034F000A968086000BF04F00300002808D000BFDE
:1035000009A34FF48C7214A11CA0FFF769FE00BF41
:1035100000BF304608F0BAF9204670BD304608F0CA
:10352000B5F90020F9E700002E2E2F4D6964646C78
:103530006577617265732F54686972645F50617258
:1035400074792F4C7749502F7372632F636F7265B4
:103550002F6D656D702E63006D656D705F6D616CB4
:103560006C6F633A206D656D702070726F7065725C
:103570006C7920616C69676E6564000041737365E6
:103580007274696F6E2022257322206661696C65F2
:1035900064206174206C696E6520256420696E204A
:1035A00025730A0070B50546002411E004EB4400C1
:1035B000094901EBC000067D4EB104EB440001EB6C
:1035C000C0008068A84202D1204600F087F9641C40
:1035D0000A2CEBDB70BD0000BCB900202DE9FF5FB9
:1035E0000646894617464FF00A0AD346D0460024BD
:1035F0000A200390002002900190009000BF73E029
:1036000004EB4400764901EBC000057DB8F10A0FD8
:1036100002D10DB9A04665E0002D63D000BF012D99
:103620000AD0022D08DA00BF6EA340F223127BA15C
:103630008AA0FFF7D5FD00BF00BFAEB104EB440187
:10364000674A02EBC1013068496888420CD13FB13A
:1036500004EB4400114601EBC0008068B84203D17E
:10366000204604B0BDE8F09F012D28D104EB4400B2
:103670005B4951F8300080B104EB440001EBC0001D
:10368000418A029881422DDB039404EB44005449A3
:1036900001EBC000408A029024E004EB4400504952
:1036A00001EBC000418A019881421BDBA24604EB7A
:1036B00044004B4901EBC000408A019012E0022D0A
:1036C00010DB04EB4400464901EBC000418A00983E
:1036D000814207DBA34604EB4400414901EBC000F3
:1036E000408A0090601C04B20A2C89DB09F00200B9
:1036F00028B9B8F10A0F05D109F0010010B94FF04F
:10370000FF30AEE7B8F10A0F01DA444631E0BBF111
:103710000A0F11DA5C4600BF04EB4400304951F84F
:10372000300040B100BF2FA340F26D1255A14BA055
:10373000FFF756FD00BF0CE0BAF10A0F01DA54465C
:1037400007E003980A2801DA039C02E04FF0FF30FB
:1037500087E700BF0A2C08DB00BF22A340F27F12DC
:103760004EA13EA0FFF73CFD00BF00BF204600F089
:10377000B5F800BF0A2C08DB00BF1AA340F2831281
:1037800046A136A0FFF72CFD00BF00BF00BF04EB31
:103790004400134901EBC000007D40B100BF11A3FC
:1037A0004FF4C27242A12DA0FFF71AFD00BF00BF67
:1037B00036B104EB44010A4A02EBC10130684860AB
:1037C000002004EB4401064A02EBC101488204EBED
:1037D0004400114601EBC0008760204641E700002D
:1037E000BCB900202E2E2F4D6964646C6577617220
:1037F00065732F54686972645F50617274792F4CDD
:103800007749502F7372632F636F72652F697076DB
:10381000342F6574686172702E6300007374617474
:1038200065203D3D204554484152505F535441541A
:10383000455F50454E44494E47207C7C207374615F
:103840007465203E3D204554484152505F535441D9
:1038500054455F535441424C450000004173736529
:103860007274696F6E2022257322206661696C650F
:1038700064206174206C696E6520256420696E2067
:1038800025730A006172705F7461626C655B695DCB
:103890002E71203D3D204E554C4C000069203C20AF
:1038A0004152505F5441424C455F53495A450000D4
:1038B0006172705F7461626C655B695D2E737461C7
:1038C0007465203D3D204554484152505F5354415A
:1038D00054455F454D5054590000000010B5044652
:1038E00004EB44000C4951F8300060B104EB440192
:1038F000094A52F8310006F0F1FD002004EB4401C2
:10390000054A42F83100002004EB4401024A02EB70
:10391000C101087510BD0000BCB90020F0B587B02A
:1039200007460D4600BF002D0AD100BF2EA340F26E
:103930008A223BA13EA0FFF753FC00BF07B0F0BDB9
:1039400000BF7C682088B0F5807F08D120790628E8
:1039500005D16079042802D16088082803D0384650
:1039600006F0BCFDEAE7D4F80E000690A0690590C9
:10397000686808B9002607E005986968884201D19F
:10398000012000E0002006460EB1012000E00220E8
:10399000034604F1080206A9284600F0CBFCE088A3
:1039A000B0F5807F03D0B0F5007F15D113E086B16C
:1039B000022206AB04F10800291DCDE90232CDE94F
:1039C000001005F1260302462231284600F05CFB78
:1039D00000E000BF01E000E000BF00BF384606F095
:1039E0007DFD00BFAAE700002E2E2F4D6964646C98
:1039F0006577617265732F54686972645F50617294
:103A000074792F4C7749502F7372632F636F7265EF
:103A10002F697076342F6574686172702E630000B0
:103A20006E6574696620213D204E554C4C000000A7
:103A3000417373657274696F6E202225732220664C
:103A400061696C6564206174206C696E6520256411
:103A500020696E2025730A002DE9FE4304460F46B7
:103A60001546A94600BF002C08D100BF5DA340F257
:103A70001E326AA16DA0FFF7B3FB00BF00BF00BFFD
:103A800047B900BF57A340F21F3272A167A0FFF7EA
:103A9000A7FB00BF00BF00BF002D08D100BF51A38E
:103AA0004FF448726EA161A0FFF79AFB00BF00BF00
:103AB0002146286802F02BFF10B1DFF8B48186E0C0
:103AC000287800F0F000E02816D101208DF80400DD
:103AD00000208DF805005E208DF80600687800F063
:103AE0007F008DF80700A8788DF80800E8788DF839
:103AF00009000DF1040869E02868A1680840D4E9CC
:103B00000112114088420ED0288880B24FF6A96178
:103B1000884208D0E06810B104F10C0903E06FF0AE
:103B20000300BDE8FE835348007800EB4000524993
:103B300001EBC000007D02281BDB4E48007800EB43
:103B4000400001EBC0008068A04212D149490978C9
:103B500001EB4101484A02EBC101D9F80000496874
:103B6000884206D1434802783946204600F086F85C
:103B7000D7E7002622E006EB46003F4901EBC000F4
:103B8000007D022818DB06EB460001EBC0008068D0
:103B9000A04211D106EB4601374A02EBC101D9F828
:103BA00000004968884207D13248067032463946DB
:103BB000204600F063F8B4E7701CC6B20A2EDADBC8
:103BC0003A464946204600F00DF9AAE700BF4FF4F7
:103BD0000060434604F1260239460090204600F07A
:103BE000B9FC9EE72E2E2F4D6964646C6577617277
:103BF00065732F54686972645F50617274792F4CD9
:103C00007749502F7372632F636F72652F697076D7
:103C1000342F6574686172702E6300006E6574697C
:103C20006620213D204E554C4C00000041737365C9
:103C30007274696F6E2022257322206661696C653B
:103C400064206174206C696E6520256420696E2093
:103C500025730A007120213D204E554C4C00000078
:103C600069706164647220213D204E554C4C000007
:103C700028510108A8010020BCB90020F8B505466C
:103C80000E46144600BF04EB4400314901EBC0006E
:103C9000007D022808DA00BF2EA340F2EE223BA1ED
:103CA00046A0FFF79DFA00BF00BF04EB440028497F
:103CB00001EBC000007D022839D104EB440001EB88
:103CC000C000408AB0F58E7F11DD04EB44000A4647
:103CD00002EBC000011D284600F09CFA38BB03200F
:103CE00004EB44011A4A02EBC10108751FE004EB22
:103CF0004400174901EBC000408AB0F5877F16DB0E
:103D000004EB44000B4603EBC00000F10C0204EB93
:103D1000440003EBC000011D284600F087FA30B9CB
:103D2000032004EB44010A4A02EBC10108754FF479
:103D30000060009004EB4400054901EBC00000F175
:103D40000C0305F126023146284600F003FCF8BDBD
:103D5000BCB900202E2E2F4D6964646C65776172AA
:103D600065732F54686972645F50617274792F4C67
:103D70007749502F7372632F636F72652F69707666
:103D8000342F6574686172702E6300006172705F19
:103D90007461626C655B6172705F6964785D2E73DB
:103DA00074617465203E3D204554484152505F5334
:103DB000544154455F535441424C4500417373652F
:103DC0007274696F6E2022257322206661696C65AA
:103DD00064206174206C696E6520256420696E2002
:103DE00025730A002DE9FE4F81460F46164609F15C
:103DF000260A4FF0FF3002900020019049463868B3
:103E000002F085FD38B9387800F0F000E02802D0E3
:103E10000FB1386818B96FF00F00BDE8FE8F4A4641
:103E200001213846FFF7DAFB8046B8F1000F02DACD
:103E30004FFA88F0F1E700BFB8F17F0F08D300BF59
:103E40005FA340F2C1326CA16FA0FFF7C9F900BFB8
:103E500000BF08F0FF0404EB4400754901EBC0000B
:103E6000007D70B90120019004EB4401704A02EB1F
:103E7000C101087504EB4400114601EBC000C0F815
:103E8000089000BF04EB4400694901EBC000007DCD
:103E900001280FD004EB440001EBC000007D022894
:103EA00008DA00BF46A340F2CD3262A156A0FFF768
:103EB00097F900BF00BF019800B93EB9394648469E
:103EC00000F0A8F902900EB90298A6E700BF46B923
:103ED00000BF3BA340F2E13260A14BA0FFF780F9A5
:103EE00000BF00BF04EB4400514901EBC000007D5E
:103EF000022811DB5C4804704FF40060009004EB72
:103F0000440001EBC00000F10C0352463146484624
:103F100000F020FB029050E004EB4400444901EB28
:103F2000C000007D012848D14FF0000B354618E055
:103F300000BF6889298988420AD1286840B100BF3A
:103F40001FA340F2F13249A12FA0FFF749F900BFAA
:103F500000BF287B00F0400010B14FF0010B02E0E1
:103F60002D68002DE4D100BFBBF1000F07D0324611
:103F70004FF420710E2006F0A5F8054603E0354603
:103F8000284606F0A1FCA5B104EB4400284951F8ED
:103F9000300030B104EB4401254A52F8310006F0FC
:103FA0009DFA04EB4400224941F830500020029071
:103FB00002E04FF0FF30029000BF02982DE70000B2
:103FC0002E2E2F4D6964646C6577617265732F5472
:103FD000686972645F50617274792F4C7749502F11
:103FE0007372632F636F72652F697076342F6574F7
:103FF000686172702E63000074797065206F766559
:1040000072666C6F77000000417373657274696F3C
:104010006E2022257322206661696C6564206174BC
:10402000206C696E6520256420696E2025730A0066
:10403000BCB900206172705F7461626C655B695D20
:104040002E7374617465203D3D2050454E44494EA9
:1040500047206F7220535441424C45007120213D4E
:10406000204E554C4C000000A80100206E6F2070BF
:1040700061636B65742071756575657320616C6C27
:104080006F776564210000002DE9FC5F06460F464E
:1040900090469946DDE90CAB0020019000BF002E50
:1040A00008D100BF31A340F257423EA141A0FFF723
:1040B00097F800BF00BF4FF420721C210E2005F0BE
:1040C00077FD05461DB94FF0FF30BDE8FC9F00BFEE
:1040D00068891C2808DA00BF24A340F262423FA18D
:1040E00034A0FFF77DF800BF00BF6C680F9803F0A5
:1040F0002AFFE08000BF96F82C00062808D000BFF9
:104100001AA340F2694242492AA0FFF769F800BFAA
:1041100000BFD9F80000A060B9F80400A081DBF866
:104120000000C4F81200BBF80400E082DAF80000D6
:10413000C4F80E000E980068A0614FF480702080D3
:1041400008206080062020710420607140F606007F
:1041500043463A4629460090304600F0FBF928468F
:1041600006F0BCF900250198AFE700002E2E2F4D78
:104170006964646C6577617265732F5468697264F1
:104180005F50617274792F4C7749502F7372632F8F
:10419000636F72652F697076342F65746861727011
:1041A0002E6300006E6574696620213D204E554CDB
:1041B0004C000000417373657274696F6E20222594
:1041C0007322206661696C6564206174206C696E7D
:1041D0006520256420696E2025730A006368656385
:1041E0006B207468617420666972737420706275E4
:1041F000662063616E20686F6C64207374727563EF
:1042000074206574686172705F68647200000000F9
:10421000305E010870B504460D46034A2946204623
:1042200000F004F870BD0000285101087FB5044675
:104230000D4616460121074A201D04F126038DE88C
:1042400025000391324619462046FFF71DFF04B0B2
:1042500070BD00002E51010870B5002464E004EB2D
:104260004400334901EBC000057D002D5BD004EB19
:10427000440001EBC000408A401C04EB44012C4A7E
:1042800002EBC101488204EB4400114601EBC0007F
:10429000408AB0F5967F0DDA04EB440001EBC000D4
:1042A000007D01280AD104EB440001EBC000408AE4
:1042B000052803DB2046FFF711FB34E004EB440044
:1042C0001B4901EBC000007D032807D1042004EB4B
:1042D0004401174A02EBC101087524E004EB4400D5
:1042E000134901EBC000007D042807D1022004EB34
:1042F00044010F4A02EBC101087514E004EB4400CD
:104300000B4901EBC000007D01280CD104EB4402F5
:104310000B4603EBC202111D04EB440203EBC20285
:104320009068FFF777FF641C0A2C98DB70BD0000D3
:10433000BCB900202DE9F84305460E4617469846BD
:1043400000BF95F82C00062808D000BF2EA340F22D
:10435000A9123BA143A0FEF743FF00BF00BF5EB11F
:10436000306848B12946306802F0D1FA20B9307877
:1043700000F0F000E02803D16FF00F00BDE8F883F3
:104380002A4641463046FFF729F90446002C01DA57
:1043900060B2F3E7022004EB44013C4A02EBC101A6
:1043A000087504EB4400114601EBC000856004EB86
:1043B000440001EBC0003968C160B9880182002067
:1043C00004EB440102EBC101488204EB44001146B6
:1043D00051F83000B0B104EB440051F830900020A7
:1043E00004EB440142F831004FF400603B4605F114
:1043F000260249460090284600F0ACF8484606F0F0
:104400006DF800BF0020B9E72E2E2F4D6964646C53
:104410006577617265732F54686972645F50617269
:1044200074792F4C7749502F7372632F636F7265C5
:104430002F697076342F6574686172702E63000086
:104440006E657469662D3E6877616464725F6C6541
:104450006E203D3D204554485F4857414444525FDB
:104460004C454E00417373657274696F6E2022254E
:104470007322206661696C6564206174206C696ECA
:104480006520256420696E2025730A00BCB90020D0
:104490002DE9F04104460E464FF00E0860890E28C3
:1044A00000DC4FE0E07B18B996F83000401CE07368
:1044B0006568AF89287800F00100B0B1287801283C
:1044C00009D1687888B9A8785E280ED1607B40F061
:1044D0001000607309E006221D492846FBF787FF9C
:1044E00018B9607B40F008006073082F03D0B7F55F
:1044F000C16F22D110E096F82D0000F0080000B93D
:1045000020E04146204606F033FA00B11AE0314679
:10451000204602F089FB11E096F82D0000F008001B
:1045200000B90FE04146204606F022FA00B109E04A
:1045300031462046FFF7F2F900E003E000BF00201B
:10454000BDE8F081204605F0C9FF0020F8E7000033
:10455000285101082DE9F04705460E4617469846B2
:10456000DDF82090484603F0EEFC82460E213046EE
:1045700005F0A0FA00B122E07468A4F80CA0D8F805
:1045800000002060B8F80400A0803868C4F8060075
:10459000B888608100BF95F82C00062808D000BFBD
:1045A00008A34FF4997215A121A0FEF719FE00BFD0
:1045B00000BF31462846AA699047BDE8F0876FF0F2
:1045C0000100FAE72E2E2F4D6964646C65776172E5
:1045D00065732F54686972645F50617274792F4CEF
:1045E0007749502F7372632F6E657469662F6574F7
:1045F0006865726E65742E63000000006E657469F4
:10460000662D3E6877616464725F6C656E206D75BF
:104610007374206265203620666F72206574686549
:10462000726E65745F6F75747075742100000000A0
:10463000417373657274696F6E2022257322206640
:1046400061696C6564206174206C696E6520256405
:1046500020696E2025730A0010B5044600BF44B9D6
:1046600000BF0CA340F2372211A115A0FEF7B8FD40
:1046700000BF00BF732084F82E0074212F20015545
:10468000194860611948A061204603F079FA0020BA
:1046900010BD00002E2E2F4C5749502F54617267C9
:1046A00065742F65746865726E657469662E630043
:1046B0006E6574696620213D204E554C4C0000000B
:1046C000417373657274696F6E20222573222066B0
:1046D00061696C6564206174206C696E6520256475
:1046E00020696E2025730A00593A0008F57D0008FC
:1046F0000646354600BF4FF0FF310E48006805F012
:104700007FF80028F7D100BF0B4807F023F92846AF
:1047100003F0EEFA04463CB1294620462A69904748
:1047200010B1204605F0DAFE034807F028F9002C06
:10473000EAD1E0E724000020F800002070470000E4
:1047400008B50546002000902C4600BF6A460121AE
:104750001048FCF75DFF009800F00400009020680E
:1047600090F82D00C0F3800028B9009818B1206897
:1047700004F036FD0AE0206890F82D00C0F38000B8
:1047800020B1009810B9206804F0C4FCC82004F0DF
:10479000F1FDDBE7003500201CB504460020019048
:1047A000009094F82D00C0F38000002854D02E48CB
:1047B0004068A0B34FF4805200212B48FDF76EF8FB
:1047C000FDF7C2F9019000BF6A4601212648FCF7B7
:1047D0001FFFFDF7B9F90199401AB0F57A7F00D9AA
:1047E00024E0009800F020002028EDD16A461F2127
:1047F0001D48FCF70DFF009800F0100020B14FF4A9
:1048000000611948C16002E000211748C1600098AA
:1048100000F0040020B100211348816014E004E09E
:104820004FF48041104881600EE000BF0E48C06820
:10483000C0F3CF000C498968C1F34F0140EA01027F
:1048400000210948FDF72AF800210748FCF70EFB74
:104850000548FCF731FF02E00348FCF756FF20460D
:10486000FFF76CFF1CBD0000003500202DE9F04172
:1048700080460E460EB1307810B90020BDE8F081B8
:10488000344600252BE008F1380040F82540274643
:1048900026212046FBF78CFD04461CB10020207029
:1048A000641C08E020213846FBF782FD04460CB169
:1048B0000020207000243D213846FBF779FD074693
:1048C0003FB100203870781C08F1780141F82500CC
:1048D00004E0002108F1780040F825106D1C102D2F
:1048E00001DA002CCFD12846C8E738B504468DF848
:1048F000000069460320ABBE204638BD0146D1E921
:104900000102801A704710B50446607C10B1204641
:1049100000F001F810BD704770B504460E4604B1B2
:1049200016B96FF00F0070BD3146204600F022F836
:1049300018B1012060740020F5E7002060740C4D70
:1049400011E030466968FBF744FD58B9A86820605B
:10495000E8686060E868A0600020E060287C20745F
:104960000020E0E72D68002DEBD1A81FDBE7000059
:104970002C56010870B504460D461BA12846FBF7CE
:1049800028FD20B11CA12846FBF723FD50B90F20BC
:10499000A0601B4820600F2060600020E060207451
:1049A000012070BD17A12846FBF713FD50B9042064
:1049B000A06016482060042060600020E060207441
:1049C0000120EEE712A12846FBF703FD50B90520B0
:1049D000A06011482060052060600020E060207425
:1049E0000120DEE70020DCE72F6D79706167652E1E
:1049F00068746D6C000000002F6D79706167650050
:104A0000E55001082F646F6E65000000F550010845
:104A10002F6572726F720000FA5001082DE9F041A3
:104A200004460F461646D4E90110884203D14FF0E0
:104A3000FF30BDE8F081607C28B13246394620461F
:104A400000F013F8F5E7D4E90101451AB54200DD9D
:104A50003546A268206881182A463846FBF764FC70
:104A6000A0682844A0602846E3E72DE9F041044609
:104A70000E461546D4E90110884215DA2046FFF7A4
:104A80003DFF0746BD4200DA2F46A2682068811824
:104A90002A463046FBF748FCA0683844A060204610
:104AA000FFF72CFFBDE8F0814FF0FF30FAE7000080
:104AB00070B50446002500BFC0200059002808D06A
:104AC00000BF20A34FF46E722CA131A0FEF788FB2B
:104AD00000BF00BF0025606B38B9606928B160690C
:104AE000007C00F0020000B10125E5B160690C21F5
:104AF000426804F1CC0003F07DFA04F1CC00FBF72E
:104B000061FC0646092E0CD804F1CC0030442AA1E1
:104B10000A8802808978817004F1CC00C421085190
:104B200000E0002500BF25B12448C16AC020015122
:104B300006E02248416AC0200151002084F831007B
:104B400070BD00002E2E2F4D6964646C6577617214
:104B500065732F54686972645F50617274792F4C69
:104B60007749502F7372632F617070732F6874745C
:104B7000702F68747470642E63000000616C72653D
:104B8000616479206265656E20686572653F00002A
:104B9000417373657274696F6E20222573222066DB
:104BA00061696C6564206174206C696E65202564A0
:104BB00020696E2025730A000D0A00003451010897
:104BC0002DE9F047044689464448016BBC20015159
:104BD0000021C0200151C4200151B9F1000F16D1AC
:104BE0003E484068C4F8B80094F8310020B13B4812
:104BF000816BC820015103E03848416BC820015146
:104C00000020A4F8DA00A4F8D800BDE8F08734A1A9
:104C10004846FBF7BBFB20B130484068C4F8B800F9
:104C200017E030A14846FBF7B1FB20B12B48806864
:104C3000C4F8B8000DE02CA14846FBF7A7FB20B153
:104C40002648C068C4F8B80003E024480068C4F8E7
:104C5000B8003F214846FBF7ABFB06460EB10020EB
:104C6000307000272E214846FBF7A2FB804606E065
:104C700008F101072E213846FBF79AFB8046B8F170
:104C8000000FF5D16FB1002508E0184951F8350043
:104C9000394603F0F9F900B902E06D1C142DF4D384
:104CA00000E014250EB13F203070142D06D20F48BD
:104CB00000EBC5004168C820015107E01FB90CA1F5
:104CC000C820015102E015A1C82001510020A4F81C
:104CD000DA00A4F8D80000BF97E7000034510108BB
:104CE0003430340034303000353031007051010838
:104CF000436F6E74656E742D547970653A206170DF
:104D0000706C69636174696F6E2F6F637465742D65
:104D100073747265616D0D0A0D0A0000436F6E7445
:104D2000656E742D547970653A20746578742F70AF
:104D30006C61696E0D0A0D0A000000002DE9F0415A
:104D4000074600BF002F08D100BF45A34FF44172B2
:104D500051A154A0FEF744FA00BF00BF7C6B00BF16
:104D600044B900BF3EA340F2063258A14DA0FEF761
:104D700037FA00BF00BF5848006800B357480068C2
:104D8000E8B157480068D0B1002514E053480068E6
:104D900050F8251004F11200FBF71BFB50B94FF43B
:104DA000807204F1230128464B4B1B689847E08131
:104DB000BDE8F0816D1C4A4800688542E6DB04F1DD
:104DC0001200FBF7FFFAE72804D204F11200FBF708
:104DD000F9FA00E0E720112801D911200BE004F1D5
:104DE0001200FBF7EFFAE72804D204F11200FBF7F8
:104DF000E9FA00E0E720064612223AA104F1230076
:104E0000FBF792FA324604F1120104F13500FBF788
:104E10008BFA06F1120004F12301084436A10A6856
:104E200002608A88828089798171002206F11900E6
:104E300004F123010A540846FBF7C4FA064600BFF2
:104E4000B6F5803F08D300BF05A340F23F322CA146
:104E500014A0FEF7C5F900BF00BFE68100BFA7E7B9
:104E60002E2E2F4D6964646C6577617265732F54C3
:104E7000686972645F50617274792F4C7749502F62
:104E80007372632F617070732F687474702F6874FD
:104E90007470642E63000000687320213D204E551D
:104EA0004C4C0000417373657274696F6E2022254B
:104EB0007322206661696C6564206174206C696E80
:104EC0006520256420696E2025730A0073736920AC
:104ED000213D204E554C4C00D4000020DC00002029
:104EE000D80000203C623E2A2A2A554E4B4E4F578E
:104EF0004E205441472000002A2A2A3C2F623E00BF
:104F00006C656E203C3D2030786666666600000069
:104F10002DE9F04107460D46164606B91DB96FF05A
:104F20000500BDE8F081012128460CF0E5FA01F00A
:104F300030F9044614B94FF0FF30F2E7E56121463D
:104F4000284607F06FF8094928460BF073FC08491A
:104F5000284607F0A9FD0422064928460AF082F9EE
:104F6000054928460CF072FA0020DAE74D57000890
:104F7000EF500008FD5600085B5F00082DE9F04186
:104F800007460C46606930B92146384600F094F86F
:104F90000020BDE8F0816069FFF7B0FC0646002EF6
:104FA00005DC2146384600F087F80020F1E7606A0A
:104FB00038B1A06AB04201DAA06A00E03046054686
:104FC0001FE0B7F86450AE4200DA3546788E4004F0
:104FD0004FEA1048454500DD454600BFA8B203F042
:104FE00053FA6062606A08B1A56205E0284605EBE5
:104FF000D0714D10642DF1DC00BF606A08B900204B
:10500000C7E72A46616A6069FFF708FD0546002D7B
:1050100009DAA81C08B90020BBE72146384600F091
:105020004BF80020B5E7E562606AA061606B20B1D3
:10503000606B8560616B606A08600120A9E770B5EC
:1050400004460D4600222946204600F001F870BDB6
:105050002DE9F04107460C4616460021384606F079
:10506000E1FF002138460BF0E5FB0021384607F050
:105070001BFD0022114638460AF0F4F8002138469C
:105080000CF0E4F914B1204601F0ADF82EB1384629
:1050900006F004FF0020BDE8F081384607F07EF8F6
:1050A000054625B10422034938460AF0DBF82846B4
:1050B000F1E70000FD56000870B505460C4694F86F
:1050C000310078B1204601F06FF8204601F095F8E4
:1050D000E561012084F8310000BF688B40F040009A
:1050E000688303E021462846FFF7A9FF70BD70B52D
:1050F00004460E46254615B1284601F074F870BDE9
:105100002DE9F74F86B080460026B1460020059075
:105110000798FBF757F98246BAF1000F5FD0AAF162
:1051200001000799085C2F2859D1634907988842E4
:1051300002D1BAF1010F52D1AAF101003F2801D9E1
:105140003F2001E0AAF1010005463DB12A465A4838
:105150000799FBF7E9F800205749485500243AE041
:105160001DB3C5F13F0003900398D8B1534951F8DE
:105170003400FBF727F90290DDE90210884201D2E2
:10518000039800E0029801904C4A52F834104A4AC1
:105190005019019AFBF7C8F8002101982844464AA3
:1051A000115400BF4448049003E0444850F83400D0
:1051B000049040460499FFF7AFFB8346BBF1000F14
:1051C00008D10498079046463C4800EBC40000799B
:1051D000059002E0641C052CC2D300BF00BF002E66
:1051E00057D13F210798FBF7E3F88146B9F1000F4B
:1051F00004D0002089F8000009F101094FF0FF30C8
:105200002F4908602F48006838B32F48006820B342
:1052100000271DE02C48006850F837100798FBF76E
:10522000D8F8A0B949464046FFF720FB244908605A
:105230002548006800EBC70008F1780308F1380240
:105240004568084601683846A847079004E07F1C77
:105250001C4800688742DDDB00BF40460799FFF726
:105260005BFB8346BBF1000F01D1464604E007A972
:10527000404600F02BF806462EB1307C00F00800C6
:1052800010B10120059004E03046079900F0C0FFFE
:10529000059026B907A9404600F018F8064605987B
:1052A000CDE9000931464046DDE9073200F040F81B
:1052B00009B0BDE8F08F000074820020245201087C
:1052C000E8000020E4000020E000002070B5064661
:1052D0000C460EA0206030462168FFF71DFB0546F6
:1052E00095B10DA0206030462168FFF715FB0546FB
:1052F00055B10CA0206030462168FFF70DFB054634
:1053000015B10020206070BD3046FCE72F343034EA
:105310002E68746D6C0000002F3430342E68746D6C
:10532000000000002F3430342E7368746D6C000060
:105330002DE9F04704460D4617469846DDE9089AE0
:10534000002D47D0B9F1000F0FD000F00DFF064639
:1053500056B10020B08186F8240128683060686862
:10536000B06028687060666300BF65612868A061EE
:1053700000BF6868002808DA00BF2AA340F634128C
:1053800036A13EA0FDF72CFF00BF00BF687C20B116
:10539000286810B90020E06201E06868E06200203F
:1053A00084F83000E7B16069007C00F00100B8B11A
:1053B0003CA1E26AA06902F085FE06464EB1311DAD
:1053C000A269881AA1690144A161E16A091AE1622E
:1053D00000BF05E000206061A061E06284F8300059
:1053E000606920B16069007C00F0010018B9414695
:1053F0002046FFF7E5FB94F8310080B1606B18B1EF
:10540000002084F831000AE0606940B16069007CE6
:1054100000F00300012802D1002084F831000020B0
:10542000BDE8F0872E2E2F4D6964646C657761723C
:1054300065732F54686972645F50617274792F4C80
:105440007749502F7372632F617070732F68747473
:10545000702F68747470642E6300000046696C6578
:10546000206C656E677468206D75737420626520AA
:10547000706F73697469766521000000417373650C
:105480007274696F6E2022257322206661696C65D3
:1054900064206174206C696E6520256420696E202B
:1054A00025730A000D0A0D0A000000002DE9F74FD0
:1054B00084B00C46049F00BF47B900BF5EA340F212
:1054C000AE726BA16DA0FDF78BFE00BF00BF00BFE9
:1054D00044B900BF58A340F2AF7272A167A0FDF7B4
:1054E0007FFE00BF00BF606908B9A06920B16FF0FE
:1054F000070007B0BDE8F08F206A08B9276203E013
:105500003946206A04F02CFD384605F0DDF9206AA2
:10551000006898B1206A008940F2FF31884202D2C7
:10552000206A008901E040F2FF30814600234A46AC
:105530005F49206A04F032FF5D4E03E07E68B7F8F1
:105540000A9000BFB9F1070F63DB4A4659A1304604
:1055500002F0B8FD8246BAF1000F5AD00020039045
:10556000042255A13046FAF758FF08B9F51C04E0AB
:10557000002030716FF00F00BBE7681C801BA9EBA7
:10558000000080B202904EA1681C029A02F09AFDBF
:105590008046B8F1000F07D146A1681C029A02F0BC
:1055A00091FD804601200390681CA8EB000080B2AA
:1055B0000190B8F1000F2BD0A84529D94A4641A146
:1055C000304602F07FFD10B3681C0090039878B954
:1055D0004A463EA1304602F075FD28B94A4641A12F
:1055E000304602F06FFD18B1012084F8310002E06E
:1055F000002084F83100002028700022DDE900013D
:1056000042542046039A0099FFF77AFD71E700BFE4
:1056100000BF206A04F04CFD8346206A0089B0F583
:10562000806F05D2BBF1050F02DC6FF0040060E76C
:105630006FF00F005DE700002E2E2F4D6964646C43
:105640006577617265732F54686972645F50617227
:1056500074792F4C7749502F7372632F6170707378
:105660002F687474702F68747470642E6300000067
:105670007020213D204E554C4C0000004173736555
:105680007274696F6E2022257322206661696C65D1
:1056900064206174206C696E6520256420696E2029
:1056A00025730A00687320213D204E554C4C0000A4
:1056B000747E00200D0A00004745542000000000C1
:1056C000200000000D0A0D0A00000000436F6E6EFE
:1056D000656374696F6E3A206B6565702D616C69E6
:1056E00076650000436F6E6E656374696F6E3A2075
:1056F0004B6565702D416C69766500002DE9F041C0
:1057000005460E462C463CB900213046FFF797FC73
:1057100007460020BDE8F08114F8300F401C2070CF
:1057200014F83009042805D121463046FFF787FCDC
:105730000020EFE7606938B12146304600F0AAF852
:1057400010B1304608F09EFD0020E3E72DE9F04758
:1057500080460F46154699464646B9F1000F01D1DD
:1057600005B176B935B1298938460BF01BF92846C1
:1057700004F0B4FE31463846FFF761FC0020BDE876
:10578000F087298938460BF00DF97069002835D16A
:105790003A4631462846FFF789FE044600BF002CF2
:1057A00011D0601D00280ED00B3000280BD0083817
:1057B000002808D000BF14A340F6042220A12BA08B
:1057C000FDF70EFD00BF00BF601D30B1306A20B193
:1057D000306A04F083FE00203062284604F07EFE2A
:1057E00024B93146384600F055F806E004F11000BF
:1057F00018B931463846FFF722FC02E0284604F08B
:105800006DFE0020BBE700002E2E2F4D6964646CF6
:105810006577617265732F54686972645F50617255
:1058200074792F4C7749502F7372632F61707073A6
:105830002F687474702F68747470642E6300000095
:10584000687474705F70617273655F72657175659D
:1058500073743A20756E6578706563746564207240
:10586000657475726E2076616C7565004173736541
:105870007274696F6E2022257322206661696C65DF
:1058800064206174206C696E6520256420696E2037
:1058900025730A0070B506460C4600250CB9002099
:1058A00070BDB4F8DA0005280EDA2146304600F063
:1058B000B6FA0546032D05D0012D05D0B4F8DA005F
:1058C000052801DA2846EBE7E06A30B92146304680
:1058D000FFF754FB08B90020E2E7606B28B12146CE
:1058E000304600F03FF8054604E02146304600F01F
:1058F00010F80546E06A50B96069FEF7FFFF00281E
:1059000005DC21463046FFF7D7FB0020C8E72846D4
:10591000C6E7F8B506460C4600274FF6FF71E06A69
:10592000884201D2E06A01E04FF6FF7080B2009039
:10593000606A08B1012000E0002003466A46304654
:10594000A16900F0A5FC054655B90127BDF8001076
:10595000A0690844A061BDF80010E06A401AE06246
:105960003846F8BD2DE9F84380460D460026B1467D
:105970006C6B00BF002C08D100BFE8A340F2CB4203
:10598000F4A1F7A0FDF72CFC00BF00BFB8F864003D
:1059900000902068A96988422DD92068A969401A19
:1059A0004FF6FF71884203DA2068A969401A01E0C6
:1059B0004FF6FF7080B20090686A08B1012000E0E5
:1059C000002003466A464046A96900F061FC06468D
:1059D0005EB94FF00109BDF80010A8690844A8613C
:1059E000BDF80010E86A401AE862B8F8640010B91F
:1059F0004846BDE8F883D7E1BDF8000008B948463D
:105A0000F7E794F8240105287ED2DFE800F0031FB1
:105A100044BCFD0000270FE020680078DA4951F807
:105A200037100978884205D12774012084F82401B1
:105A3000A08103E0781CC7B2022FEDD300BFA0689D
:105A4000401EA0602068401C2060ACE1207CCE4954
:105A500051F83000A189405C28B90020A0810220C3
:105A600084F8240116E0207CC74951F83000A18950
:105A7000405C21680978884203D1A089401CA0813C
:105A800002E0002084F82401A068401EA060206885
:105A9000401C206087E1A089B0B9206800782028E8
:105AA0000BD020680078092807D0206800780A28E1
:105AB00003D0206800780D2806D1A068401EA060A1
:105AC0002068401C20606EE120680078217CAE4A8E
:105AD00002EBC1014968097888420FD0206800783C
