:020000040800F2
:10000000A8700020A1010008AD200008B91D00085B
:10001000A920000827050008912100080000000021
:10002000000000000000000000000000B3200008F5
:100030002B05000800000000B1200008B5200008D2
:10004000BB010008BB010008BB010008BB010008A0
:10005000BB010008BB010008BB010008BB01000890
:10006000BB010008BB010008BB010008BB01000880
:10007000BB010008BB010008BB010008BB01000870
:10008000BB010008BB010008BB010008BB01000860
:10009000BB010008BB010008BB010008BB01000850
:1000A000BB010008BB010008BB010008BB01000840
:1000B000BB010008BB010008BB010008BB01000830
:1000C000BB010008BB010008BB010008BB01000820
:1000D000BB010008BB010008BB010008BB01000810
:1000E000BB010008BB010008BB010008BB01000800
:1000F000BB010008BB010008BB010008BB010008F0
:10010000BB010008BB010008BB010008BB010008DF
:10011000BB010008BB010008BB010008BB010008CF
:10012000BB010008BB010008BB010008BB010008BF
:10013000BB010008BB010008BB010008BB010008AF
:10014000BB010008BB010008BB010008BB0100089F
:10015000BB010008BB010008BB010008BB0100088F
:10016000BB010008BB010008BB010008BB0100087F
:10017000BB010008BB010008BB0100080000000033
:10018000BB010008BB010008DFF810D000F05CF9EB
:100190000048004725720008AFF30080A8700020D7
:1001A0000648804706480047FEE7FEE7FEE7FEE711
:1001B000FEE7FEE7FEE7FEE7FEE7FEE77521000843
:1001C000890100082DE9F05F0546002092469B4614
:1001D00088460646814640241BE02846414647465D
:1001E000224600F0E8F853465A46C01A914110D30F
:1001F00011461846224600F0CFF82D1A67EB010889
:100200004F4622460120002100F0C6F817EB0009F6
:100210004E41201EA4F10104DFDC484631462A4647
:100220004346BDE8F09F0000004870471C120108DB
:100230000649074A0868504343F2390210440860EF
:10024000400870470149086070470000F400002032
:100250006D4EC64110B5431A934209D283188818CF
:1002600003E010F8011D03F8011D521EF9D210BD64
:1002700040EA01039B0703D009E008C9121F08C028
:10028000042AFAD203E011F8013B00F8013B521EA8
:10029000F9D210BDD2B201E000F8012B491EFBD209
:1002A00070470022F6E710B513460A460446194681
:1002B000FFF7F0FF204610BD30B505462A460B4635
:1002C00012F8010B13F8014B08B1A042F8D01CB191
:1002D000002802D06D1CF1E7284630BDCAB2401E8E
:1002E00010F8011F8A4202D00029F9D1002070477E
:1002F000421C10F8011B0029FBD1801A704710B571
:10030000002200E0521C835C8C5CA34201D1002BD4
:10031000F8D1D8B2E1B2401A10BD30B50446002081
:10032000034600E05B1C934203D2E05CCD5C401BC3
:10033000F8D030BD30B505460020034600E05B1C18
:10034000934205D2EC5CC85C201A01D1002CF6D196
:1003500030BD70B5064602F019F8046805460A2259
:100360000021304600F037F82C6070BD30B50B46E8
:10037000014600202022012409E021FA02F59D42D5
:1003800005D303FA02F5491B04FA02F52844151EA9
:10039000A2F10102F1DC30BD202A04DB203A00FA90
:1003A00002F1002070479140C2F1200320FA03F3CC
:1003B000194390407047202A04DB203A21FA02F0CA
:1003C0000021704721FA02F3D040C2F1200291408F
:1003D0000843194670472DE9F04791460F4680467D
:1003E0000446002614F8015B2DB1FFF71DFF0068DD
:1003F000405DC007F6D12B2D02D02D2D18D0641EE4
:100400004A463946204600F031F827B13968A14202
:1004100001D1C7F8008071054FF002040BD54042AE
:10042000002803DD01F0B2FF0460A007BDE8F087FB
:1004300046F48066E4E70028F8DA01F0A7FF0460DC
:100440006FF00040F2E70000064C074D06E0E06860
:1004500040F0010394E8070098471034AC42F6D30B
:10046000FFF796FE58180108781801082DE9F05F8B
:1004700082460078002715468B460AF10104B946EA
:10048000302801D09DB113E014F8010B0127782822
:1004900003D0582801D045B10AE00DB1102D07D185
:1004A0000027102514F8010B02E0082500E00A25BA
:1004B0000026B0460EE005FB080005FB06F101270B
:1004C00001EB10461FFA80F8B6F5803F00D3B9461D
:1004D00014F8010B294600F018F80028EBDABBF1FC
:1004E000000F05D00FB1641E00E05446CBF8004069
:1004F000B9F1000F06D001F049FF02210160C81ECA
:10050000BDE8F09F48EA0640FAE73A2800D23038C2
:1005100020F02002412A01D3A2F13700884201D302
:100520004FF0FF30704700BFFEE77047016801F5EC
:100530008051896921F00202016801F580518A61C8
:100540007047016801F58051896941F00202016834
:1005500001F580518A617047016801F58051896910
:1005600021F40052016801F580518A6170470168E9
:1005700001F58051896941F40052016801F580510B
:100580008A61704708B508490968C9084FF47A724A
:10059000B1FBF2F14143009100BF00BF00994A1E38
:1005A00000920029F9D108BD3400002038B5044676
:1005B00000200090206800F58050806940F4801190
:1005C000206800F580508161206800F580508069C6
:1005D00000900120FFF7D6FF0099206800F58050B9
:1005E000816138BD30B503461479557944EA052058
:1005F000084C0C442064D4782406957844EA0544D9
:10060000557844EA0524157844EA0500014C0C4469
:10061000606430BD0080024070B5AEB004460E4646
:10062000002526B14FF40061E160C900A1600020FF
:10063000119012901390149015901690E06918B9CB
:100640004FF48060179001E0002017904FF4007085
:100650001890002019901A901B901C901D9040201B
:100660001E9000201F902090219022902390249093
:1006700025902690802027900020289029902A906D
:100680002B902C902D902068056871480540DDE97D
:10069000110108431399084314990843A1680843BA
:1006A0001599084316990843E168084317990843C8
:1006B00018990843199908431A9908431B99084344
:1006C00005432068056020680568012000F01AF9DC
:1006D00020680560DDE91C0108431E9908431F9945
:1006E00008432099084321990843229908432399F4
:1006F00008432168486020684568012000F002F93D
:100700002068456024982168886025982168C86021
:10071000206885694FF641700540DDE9261040EA02
:10072000014028990843299908432A9908432B999D
:10073000084305432068856120688569012000F031
:10074000E1F820688561DDE92C0108432168C86172
:100750002068C569012000F0D5F82068C561002037
:1007600001904FF000700290002003904FF40010B1
:1007700004900020059006900790089004200990AE
:10078000C0050A9040120B9080010C9040120D9011
:1007900080200E9000200F901090206800F580506F
:1007A00085692C480540DDE90101084303990843A8
:1007B0000499084305990843069908430799084393
:1007C00008990843099908430543206800F58050BB
:1007D0008561206800F580508569012000F092F85D
:1007E000206800F580508561DDE90A0108430C9915
:1007F00008430D9908430E9908430F9940EA810078
:100800001099084340F40001206800F58050016011
:10081000206800F580500568012000F073F820681A
:1008200000F580500560A069012809D1206800F515
:100830008050C06908490843216801F58051C861AA
:10084000002120466269FFF7CDFE2EB070BD00008A
:100850000F8120FF233FDEF84000010038B5044639
:10086000002000902068006820F0040021680860E3
:100870002068006800900120FFF784FE009821683E
:10088000086038BD38B50446002000902068006834
:1008900040F0040021680860206800680090012092
:1008A000FFF770FE00982168086038BD38B504462F
:1008B000002000902068006820F00800216808608F
:1008C0002068006800900120FFF75CFE0098216816
:1008D000086038BD38B504460020009020680068E4
:1008E00040F008002168086020680068009001203E
:1008F000FFF748FE00982168086038BD72B600BF57
:10090000FEE7000070B5044600F00CFE06462546E2
:10091000681C10B104480078054400BF00F002FED6
:10092000801BA842FAD370BD3000002070B5054688
:100930000C46002600BF95F84500012801D1022091
:1009400070BD012085F8450000BF022085F84400F5
:10095000002C6DD02868066843480640D4E90001A1
:100960000843A1680843E1680843A968084321696E
:10097000084361690843E9680843A1690843E169DC
:100980000843216A0843616A0843A16A0843064391
:1009900028680660286806680120FFF7B3FF28680A
:1009A0000660D4E90B010843616B0843A16B08435F
:1009B000E16B0843216C0843616C0843A16C084358
:1009C00029684860286846680120FFF79BFF28686F
:1009D0004660E06C29688860206D2968C8602868D6
:1009E00086694FF641700640B4F85410A06D40EA95
:1009F0000140E16D0843216E0843616E0843A16E1A
:100A00000843064328688661286886690120FFF745
:100A100079FF28688661D4E91B0108432968C86109
:100A20002868C6690120FFF76DFF2868C66110E0DD
:100A30002868066826F49046D5E902010843064373
:100A400028680660286806680120FFF75BFF2868B1
:100A50000660012085F8440000BF002085F84500AD
:100A600000BF00BF6CE700000F8120FF70B5044697
:100A70000D461646002200BF94F84500012801D11A
:100A8000022070BD012084F8450000BF022084F8D8
:100A90004400A56200221FE005EB42114FF0004028
:100AA000086044F2F4504860C2EBC21000EB400012
:100AB00006EB80008860A069012803D1486820F017
:100AC00000404860581E904204D905EB4210203087
:100AD000C86000E0CD60521C9A42DDD3206800F56A
:100AE0008050C560012084F8440000BF002084F8D5
:100AF000450000BF00BFC4E770B504460D4616466A
:100B0000002200BF94F84500012801D1022070BDE9
:100B1000012084F8450000BF022084F84400E5620B
:100B200000221BE005EB42114FF480100860C2EB7D
:100B3000C21000EB400006EB80008860E06918B945
:100B4000086840F440000860581E904204D905EB44
:100B500042102030C86000E0CD60521C9A42E1D3C0
:100B6000206800F580500561012084F8440000BF32
:100B7000002084F8450000BF00BFC8E701460022FE
:100B800000BF91F84500012801D1022070470120E3
:100B900081F8450000BF022081F84400886A00689F
:100BA00000F00040002838D1886A006800F48070A6
:100BB000F0B1886B401C8863886B012801D1886A7A
:100BC00008638B6A4B63886A0068C0F30D40021F9C
:100BD000CA63086B83680B64886AC06888620120F6
:100BE00081F8440000BF002081F8450000BFCDE738
:100BF000886A006800F4007048B1886A08630023BE
:100C00004B6301238B63886AC068886205E0886B48
:100C1000401C8863886AC0688862012081F84400AB
:100C200000BF002081F8450000BF0120AEE70000B2
:100C30002DE9FC4104460025002001909D4E00272F
:100C4000804614B90120BDE8FC8194F8440028B91D
:100C5000002084F84500204600F03AF900BF00204B
:100C600000909548006840F4804093490860084629
:100C7000006800F48040009000BF00BF8F4800680B
:100C800020F400008D49086008460068216A084386
:100C90008A490860206800F58050006840F0010132
:100CA000206800F58050016000F03CFC07460FE032
:100CB00000F038FCC01BB0F5FA7F09D9032084F896
:100CC000440000BF002084F8450000BF0320BAE7BD
:100CD000206800F58050006800F001000028E7D18E
:100CE0002068056925F01C0500F0AAFD0646744839
:100CF000864205D37348864202D245F008051AE0C1
:100D00007048864205D36B48864202D245F00C05F6
:100D100011E06848864203D36B48864200D20AE05D
:100D20006948864205D36948864202D245F00405E7
:100D300001E045F01005206805614FF400420021F4
:100D4000204600F0A1FA48B14FF001084146204684
:100D5000FFF762FC012084F8440074E7FF20FFF7EE
:100D6000D1FD6068002871D000F0DCFB074600BFB1
:100D700001AA0121204600F04DF900F0D3FBC01B71
:100D800041F2883188420FD94FF001084146204690
:100D9000FFF742FC012084F8440000BF002084F8E3
:100DA000450000BF03204EE7019800F0040004282E
:100DB000DED182020021204600F066FA48B14FF0F1
:100DC000010841462046FFF727FC012084F8440033
:100DD00039E700F0A7FB074600BF01AA0121204622
:100DE00000F018F900F09EFBC01B41F288318842E8
:100DF0000FD94FF0010841462046FFF70DFC0120B6
:100E000084F8440000BF002084F8450000BF0320A0
:100E100019E7019800F020002028DED101AA1F2147
:100E2000204600F0F7F848B14FF00108414620464F
:100E3000FFF7F2FB012084F8440004E7019800F07A
:100E4000100020B14FF40061E16002E00DE00021EC
:100E5000E160019800F00400042802D10021A160A3
:100E60001EE04FF48041A1601AE0E068C0F3CF00BB
:100E7000A168C1F34F0140EA01020021204600F0C1
:100E800003FA48B14FF0010841462046FFF7C4FB82
:100E9000012084F84400D6E640F6FF70FFF732FDEB
:100EA00041462046FFF7B8FB012084F844000020AB
:100EB000C9E600000087930344380240043801402B
:100EC000002D3101C00E160200E1F50580D1F008B9
:100ED00010B586B00446142101A8FFF7E2F948498D
:100EE000206888427ED100BF00BF002000904548A6
:100EF000006840F00070434908600846006800F050
:100F00000070009000BF00BF00BF002000900846A6
:100F1000006840F0806008600846006800F080606B
:100F2000009000BF00BF00BF00200090084600688E
:100F300040F0006008600846006800F00060009023
:100F400000BF00BF00BF00BF00200090084600683F
:100F500040F0040008600846006800F004000090BB
:100F600000BF00BF00BF002000900846006840F0AE
:100F7000010008600846006800F00100009000BF12
:100F800000BF00BF002000900846006840F002004B
:100F900008600846006800F00200009000BF00BF33
:100FA0003220019002200290002003900320049040
:100FB0000B20059001A9144800F0AEF9862001909D
:100FC0000220029000200390032004900B20059043
:100FD00001A90E4800F0A0F94FF4605001900220E2
:100FE000029000E009E000200390032004900B2011
:100FF000059001A9064800F08FF906B010BD000069
:1010000000800240303802400008024000000240E8
:10101000000402402DE9F04104460E461746002523
:10102000A84694F84400822802D10220BDE8F0814D
:10103000822084F844002068056905F01C05208A98
:101040004FF4784101EAC0200543481100EA8610B8
:10105000054325F0020545F001052068056100F013
:1010600061FA804612E000F05DFAA0EB0800B0F5EE
:10107000803F09D3012084F8440000BF002084F899
:10108000450000BF0320D1E72068056905F0010095
:101090000028E8D12068406980B23860012084F8D7
:1010A00044000020C2E710B5044600BF94F8450094
:1010B000012801D1022010BD012084F8450000BFA5
:1010C000022084F844002046FFF704FC2046FFF786
:1010D000D9FB2046FFF76AFA2046FFF748FA204678
:1010E000FFF72FFA012084F8440000BF002084F8A5
:1010F000450000BF00BFDEE710B5044600BF94F80E
:101100004500012801D1022010BD012084F84500CE
:1011100000BF022084F844002046FFF71DFA204655
:10112000FFF704FA2046FFF799FB2046FFF73EFA47
:101130002046FFF7BBFB012084F8440000BF0020DD
:1011400084F8450000BF00BFDEE770B5024600230B
:101150000025002400BF92F84500012801D102209B
:1011600070BD012082F8450000BF022082F84400D3
:1011700049B9012082F8440000BF002082F84500F0
:1011800000BF0120ECE7D06A006800F0004048B1E1
:10119000122082F8440000BF002082F8450000BF02
:1011A0000120DDE740F2F450814208D9B1FBF0F3B1
:1011B000B1FBF0F600FB161010B15B1C00E0012340
:1011C000012B13D1D06A006840F04050D66A3060DD
:1011D000C1F30C00D66A7060D06A006840F000402D
:1011E000D66A3060D06AC068D06232E000242EE057
:1011F000D06A006820F04050D66A30602CB9D06ABE
:10120000006840F08050D66A306040F2F450D66AF0
:101210007060581EA04210D1D06A006840F00050A3
:10122000D66A3060581EC0EBC01000EB4000A1EB46
:101230008005C5F30C00D66A7060D06A006840F083
:101240000040D66A3060D06AC068D062641C9C429C
:10125000CED3106800F58050406900F0040048B11A
:101260000426106800F5805046610026106800F5DD
:1012700080504660012082F8440000BF002082F8C0
:10128000450000BF00BF6BE72DE9F04104460E4664
:1012900017460025A84694F84400422802D10220AF
:1012A000BDE8F081422084F844002068056905F01B
:1012B0001C05208A4FF4784101EAC02005434811FB
:1012C00000EA8610054345F0020545F00105B8B275
:1012D000216848612068056100F024F9804612E029
:1012E00000F020F9A0EB0800B0F5803F09D3012001
:1012F00084F8440000BF002084F8450000BF0320AC
:10130000CEE72068056905F001000028E8D101203A
:1013100084F844000020C3E7F8B502460B460025D8
:10132000002400200021DCE0012606FA01F51E68F9
:1013300006EA0504AC4273D15E68012E08D05E68EF
:10134000022E05D05E68112E02D05E68122E13D1D7
:1013500090684F000326BE40B0434F00DE68BE4099
:1013600030439060506801268E40B0431E79C6F32A
:1013700000168E4030435060D0684F000326BE40B8
:10138000B0434F009E68BE403043D0605E68022E7E
:1013900002D05E68122E13D1CF0802F1200656F853
:1013A00027004E07F70E0F26BE40B0434F07FF0E33
:1013B0001E69BE403043CF0802F1200646F82700E0
:1013C00010684F000326BE40B0431E7906F00306A6
:1013D0004F00BE40304310605E6806F08056B6F1A4
:1013E000805F7DD100BF00260096404E366846F4EF
:1013F00080463E4F3E603E46366806F48046009684
:1014000000BF00BF3A4E8F0856F827008E07370FEF
:101410000F26BE40B043374EB24202D1002624E030
:101420005EE0354EB24201D101261EE0334EB2429B
:1014300001D1022619E0324EB24201D1032614E056
:10144000304EB24201D104260FE02F4EB24201D1FC
:1014500005260AE02D4EB24201D1062605E02C4EAB
:10146000B24201D1072600E008268F073F0FBE4099
:1014700030431F4E8F0846F82700264E3068A043A1
:101480005E6806F48036B6F5803F00D12043214ED9
:101490003060361D3068A0435E6806F40036B6F54D
:1014A000003F00D120431B4E361D3060361D306892
:1014B000A0435E6806F48016B6F5801F00D1204375
:1014C000144E08363060361D3068A0435E6806F45E
:1014D0000016B6F5001F00D120430E4E0C363060CA
:1014E000491C1029FFF420AFF8BD00004438024029
:1014F0000838014000000240000402400008024099
:10150000000C02400010024000140240001802408B
:10151000001C0240003C01400AB1816101E00B0463
:101520008361704701480068704700002800002070
:101530000348006803490978084401490860704776
:10154000280000203000002010B50D48006840F44D
:1015500000700B4908600846006840F4806008602D
:101560000846006840F480700860032000F092F89C
:10157000002000F007F800F02BF8002010BD00005C
:10158000003C024070B504460E4800784FF47A7172
:10159000B1FBF0F00C490968B1FBF0F5284600F00A
:1015A000F1FB08B1012070BD102C07D200222146AA
:1015B000501E00F031F80548046001E00120F2E718
:1015C0000020F0E730000020340000202C00002034
:1015D00008B500BF002000900E48006840F480402D
:1015E0000C4908600846006800F48040009000BF85
:1015F00000BF00BF00200090081F006840F080502E
:10160000091F08600846006800F08050009000BF85
:1016100000BF08BD443802402DE9F05F80460D460A
:101620001646002700F096FE074639462A463346FE
:1016300001F00700C0F1070ABAF1040F02D94FF018
:10164000040A01E0C0F1070AD14600F1040ABAF128
:10165000070F02D24FF0000A01E0A0F1030AD446BE
:101660004FF0010A0AFA09FAAAF1010A0AEA020A83
:101670000AFA0CFA4FF0010B0BFA0CFBABF1010B61
:101680000BEA030B4AEA0B042146404600F06AFECF
:10169000BDE8F09F00BF00F00702064B19684FF647
:1016A000FF031940044B0B4343EA0221014B19602D
:1016B00000BF70470CED00E00000FA0570B504466D
:1016C0000D460CB9012070BD5848006800F00F00AD
:1016D000A84209D255490D700846006800F00F0075
:1016E000A84201D00120EEE7207800F00200022895
:1016F0001DD1207800F00400042805D14C48006872
:1017000040F4E0504A490860207800F008000828BA
:1017100005D14748006840F46040454908604448A6
:10172000006820F0F000A168084341490860207873
:1017300000F00100A8B36068012807D13C480838D0
:101740000068C0F34040B8B90120BCE760680228D7
:1017500002D06068032807D1354808380068C0F314
:10176000406048B90120AEE7314808380068C0F34E
:10177000400008B90120A6E72D48006820F00300CA
:10178000616808432A490860FFF7CCFE064609E075
:10179000FFF7C8FE801B41F28831884202D903203E
:1017A00091E707E02248006800F00C006168B0EBA8
:1017B000810FEDD11D48006800F00F00A84209D943
:1017C0001A490D700846006800F00F00A84201D0C9
:1017D000012078E7207800F00400042807D114489D
:1017E000006820F4E050E16808431149086020785F
:1017F00000F00800082808D10D48006820F4604077
:10180000216940EAC1000A49086000F01FF8084950
:101810000968C1F30311074A515CC84006490860D2
:1018200006480068FFF7AEFE00204CE7003C02408F
:1018300008380240600C0108340000202C00002011
:101840000148006870470000340000202DE9F0478F
:10185000002400250026A1462548006800F00C0061
:1018600020B1042805D008283AD105E0DFF884909B
:1018700039E0DFF8849036E01D48001F006800F072
:101880003F041B48001F006800F4800078B11A482C
:101890001749091F0968C1F38811A0FB01700146AF
:1018A000224600233846FEF78DFC05460EE011481F
:1018B0000F49091F0968C1F38811A0FB0170014697
:1018C000224600233846FEF77DFC05460848001FE7
:1018D0000068C0F30140401C4600B5FBF6F902E089
:1018E000DFF8109000BF00BF4846BDE8F087000059
:1018F000083802400024F40040787D01F8B5044621
:101900000CB90120F8BD207800F00100002874D047
:10191000F948006800F00C0004280DD0F648006873
:1019200000F00C00082813D1F348001F006800F4F1
:101930008000B0F5800F0BD1EF4808380068C0F385
:101940004040002859D06068002856D10120D9E7CE
:1019500000BF6068B0F5803F08D1E74808380068EC
:1019600040F48030E449083908601EE06068B0F552
:10197000A02F0DD1E0480838006840F48020DE49EF
:10198000083908600846006840F4803008600CE0C0
:10199000D9480838006820F48030D74908390860F1
:1019A0000846006820F48020086000BF606890B19D
:1019B000FFF7B8FD054606E0FFF7B4FD401B6428BD
:1019C00001D903209EE7CC4808380068C0F34040A6
:1019D0000028F1D011E0FFF7A5FD054606E0FFF76E
:1019E000A1FD401B642801D903208BE7C2480838B9
:1019F0000068C0F340400028F1D1207800F00200D8
:101A000002285FD1BC48006800F00C0058B1BA4809
:101A1000006800F00C0008281CD1B748001F0068BF
:101A200000F48000B0B9B44808380068C0F3400042
:101A300020B1E068012801D0012063E7AE480838F2
:101A4000006820F0F800216940EAC100AA4908397D
:101A5000086037E0E06800B30120A8490860FFF79C
:101A600061FD054606E0FFF75DFD401B022801D938
:101A7000032047E7A04808380068C0F3400000286A
:101A8000F1D09D480838006820F0F800216940EA4C
:101A9000C10099490839086014E00020974908609E
:101AA000FFF740FD054606E0FFF73CFD401B02281E
:101AB00001D9032026E7904808380068C0F34000A9
:101AC0000028F1D1207800F0080008282CD16069A6
:101AD000A8B101208A490860FFF724FD054606E009
:101AE000FFF720FD401B022801D903200AE78248A6
:101AF0006C300068C0F340000028F1D014E00020F2
:101B00007F490860FFF70EFD054606E0FFF70AFD76
:101B1000401B022801D90320F4E677486C300068A6
:101B2000C0F340000028F1D1207800F00400042820
:101B300070D1002770483830006800F0805090B9AC
:101B400000BF002000906C483830006840F08050A2
:101B50006949383108600846006800F080500090FC
:101B600000BF00BF01276748006800F48070B0B96B
:101B70006448006840F4807062490860FFF7D2FC56
:101B8000054606E0FFF7CEFC401B022801D90320E2
:101B9000B8E65C48006800F480700028F2D000BF0E
:101BA000A068012808D154486830006840F001005E
:101BB0005149683108601DE0A06805280DD14E48E4
:101BC0006830006840F004004B49683108600846FE
:101BD000006840F0010008600CE047486830006889
:101BE00020F001004449683108600846006820F090
:101BF0000400086000BFA068A8B1FFF793FC054689
:101C000009E0FFF78FFC401B41F28831884202D97E
:101C1000032077E626E0384868300068C0F34000CB
:101C20000028EED013E0FFF77DFC054608E0FFF743
:101C300079FC401B41F28831884201D9032061E6DA
:101C40002D4868300068C0F340000028EFD1012F14
:101C500007D129483830006820F0805026493831B3
:101C6000086000BFA069002845D02348006800F044
:101C70000C0008285DD0A069022845D100201F492A
:101C80000866FFF74FFC054606E0FFF74BFC401BDC
:101C9000022801D9032035E6174808380068C0F348
:101CA00040600028F1D1D4E907010843616A40EAA5
:101CB00081110122A06AC2EB500041EA00412C20B0
:101CC000005D41EA00600C49091F086001200B49D2
:101CD0000866FFF727FC054606E0FFF723FC401BDC
:101CE000022801D903200DE6034808380068C0F334
:101CF00040600028F1D03FE0083802400000474231
:101D0000800E47420070004000201C490866FFF723
:101D100009FC054606E0FFF705FC401B022801D937
:101D20000320EFE516480068C0F340600028F2D1B8
:101D300022E0A069012800D1E4E51148001D0668F1
:101D400006F48001E069814214D106F03F01206A67
:101D500081420FD147F6C0703040616A884209D194
:101D600006F44031A06A814204D106F07061E06A55
:101D7000814201D00120C5E50020C3E500004742B3
:101D80000038024070B504462546681EB0F1807FD9
:101D900001D301200FE0681E4FF0E02148610F21C0
:101DA0004FF0FF3000F0DEFA00204FF0E0218861B4
:101DB00007200861002070BD00BFFEE700B587B0B6
:101DC000142102A8FEF76DFA00BF002001901F4801
:101DD000006840F004001D4908600846006800F0F3
:101DE0000400019000BF00BF00BF00200190084622
:101DF000006840F0010008600846006800F001003B
:101E0000019000BF00BF00BF00200190084600689D
:101E100040F0020008600846006800F002000190EF
:101E200000BF00BF00224FF460410948FFF774FB78
:101E30004FF4604002900120039000200490059030
:101E400002A90348FFF768FA07B000BD3038024026
:101E5000000802400EB5C02084490870A8204870D0
:101E600064208870C820C870FF20814908704870BD
:101E700088700020C870C0207E490870A820487073
:101E800064208870C87005F0F1F878480078000682
:101E90007649497840EA01407449897840EA01204E
:101EA0007249C978084302067048007800066F49F5
:101EB000497840EA01406D49897840EA01206B4940
:101EC000C978084300F47F4042EA0022674800785E
:101ED00000066649497840EA01416448807841EA51
:101EE00000206249C978084300F47F0042EA1022CA
:101EF0005E48007801065D48407841EA00415B4851
:101F0000807841EA00205949C978084342EA1060C4
:101F1000594908605648007800065549497840EA12
:101F200001405349897840EA01205149C978084362
:101F300002064F48007800064D49497840EA0140C2
:101F40004B49897840EA01204949C978084300F49F
:101F50007F4042EA0022464800780006444949781A
:101F600040EA01414248807841EA00204049C9786E
:101F7000084300F47F0042EA10223D480078010641
:101F80003B48407841EA00413948807841EA0020E6
:101F90003749C978084342EA106038490860354833
:101FA000007800063349497840EA01403149897890
:101FB00040EA01202F49C978084302062D480078DD
:101FC00000062C49497840EA01402A49897840EACC
:101FD00001202849C978084300F47F4042EA0022E2
:101FE0002448007800062349497840EA0141214805
:101FF000807841EA00201F49C978084300F47F0037
:1020000042EA10221B48007801061A48407841EA4B
:1020100000411848807841EA00201649C9780843F1
:1020200042EA106016490860164817490022144B0E
:10203000CDE900210290114A0F49144805F098FD9E
:10204000124806F007F8114890F82D00C0F3800000
:1020500018B10E4806F03EF902E00C4806F000F810
:102060000B490A4806F062F80EBD00001C00002073
:102070002000002024000020100000201400002078
:1020800018000020593700082139000808320020C4
:102090002D3A000810B5034801F08EFC07F016FA3F
:1020A00010BD00000832002000BFFEE700BFFEE7C1
:1020B0007047704710B5FFF73BFA10BD00B593B0FD
:1020C000302107A8FEF7EDF8142102A8FEF7E9F881
:1020D00000BF002001902548006840F0805023494F
:1020E00008600846006800F08050019000BF00BF03
:1020F00000BF002001901E48006840F480401C4949
:1021000008600846006800F48040019000BF00BFEE
:102110000220079001200A9010200B9002200D90C1
:1021200000210E9108210F91A821109102211191F7
:102130000421129107A8FFF7E1FB08B1FEF7DEFBCF
:102140000F20029002200390002004904FF4A05032
:1021500005904FF480500690052102A8FFF7AEFAD3
:1021600008B1FEF7CBFB13B000BD000040380240C1
:10217000007000400548006840F4700003490860A2
:102180004FF00060014980390860704788ED00E039
:1021900000BFFEE72DE9F04781460E4614461D4676
:1021A000022E02D021A0BDE8F08715E022A1206810
:1021B000FEF7A5F820B92868FEF7CBF8C7B209E00A
:1021C0001EA12068FEF79BF820B92868FEF7C1F829
:1021D00000F0FF08241D2D1D301EA6F10106E5DCD0
:1021E000022F20DCB8F1010F1DDC27B1012F09D02F
:1021F000022F15D10DE042464FF400511148FFF770
:102200008BF90DE042464FF480410E48FFF784F908
:1022100006E042464FF400410A48FFF77DF900BF4F
:1022200000BF09A0BFE701A0BDE700002F6E6F74DB
:10223000666F756E640000006C6564007374617491
:1022400065000000000802402F696E6465782E6802
:10225000746D6C002DE9F04104460D461646E0B25F
:1022600030B1012810D002281ED003283CD12BE029
:10227000FFF758F907463B461CA23146284600F0B6
:102280004FF880B2BDE8F0811948006800F40050B2
:1022900008B118A000E018A0034618A2314628464D
:1022A00000F03EF880B2EDE71148006800F480408D
:1022B00008B110A000E010A0034610A23146284645
:1022C00000F02EF880B2DDE70948006800F4004015
:1022D00008B108A000E008A0034608A2314628463D
:1022E00000F01EF880B2CDE70020CBE72575000096
:1022F000140802404F6E00004F6666002573000010
:102300000FB4054B10B503A9044A029800F052F827
:1023100010BC5DF814FB00007F3B0008F8000020B3
:102320000FB47CB50C0009AD01D0611E00E00021A6
:10233000CDE90001064B6A462946089800F03AF8B4
:10234000002C02D0009A002111707CBC5DF814FBB7
:10235000F726000802480068C0F30220704700001A
:102360000CED00E010B5002804DB0A07130E054A47
:10237000135406E00A07140E034A00F00F031B1F54
:10238000D45410BD00E400E018ED00E000487047B0
:10239000FC00002002E008C8121F08C1002AFAD180
:1023A00070477047002001E001C1121F002AFBD1D5
:1023B000704700002DE9FF4F8BB088460546002688
:1023C00006E025280BD0DDE90D1290476D1C761C28
:1023D00028780028F5D10FB03046BDE8F08F0024F2
:1023E000A146A2460122AE4900E0044315F8013F90
:1023F000203B02FA03F00842F7D128782A2810D0AF
:102400006FF02F022878A0F13001092915D809EBC7
:10241000890102EB410144F0020400EB01096D1C4B
:10242000F0E758F8041B5FEA010903D544F40054AF
:10243000C9F1000944F002046D1C28782E2817D138
:1024400015F8010F44F004042A280ED06FF02F0273
:102450002878A0F1300109290AD80AEB8A0102EB99
:10246000410100EB010A6D1CF2E758F804AB6D1C4A
:1024700028786C280FD006DC4C2817D068280DD09F
:102480006A2814D104E0742810D07A280FD10DE006
:1024900044F400140AE044F4801401E044F44014CD
:1024A0006978814202D104F580146D1C6D1C287876
:1024B000692865D006DC00288DD0632827D06428E1
:1024C00006D15DE06E2808D073282AD0752877D011
:1024D000DDE90D129047761CE0E0C4F302500228BB
:1024E00009D003280DD0D8F8001004280DD00E60B4
:1024F00008F10408D2E0D8F80010F217C1E9006230
:10250000F6E7D8F800100E80F2E70E70F0E718F842
:10251000041B8DF8001000208DF80100EB4601200F
:1025200003E058F804BB4FF0FF3061074FF000079D
:1025300001D40AE07F1C57450DDA8742FADB1BF80D
:1025400007100029F6D106E07F1C8742FCDB1BF850
:1025500007100029F8D1DDE90D23A9EB070081461A
:10256000214600F0B1F83044C61904E0DDE90D124F
:102570001BF8010B90477F1EF8D22146484688E0A1
:1025800058F8040BC4F302514FF00A0B032900D191
:1025900000B2042900D140B2002802DA40422D21C5
:1025A00002E0210505D52B218DF82410012104E03E
:1025B00006E0E10710D02021F6E708AF089113E00C
:1025C00058F8040BC4F302514FF00A0B032900D151
:1025D00080B2042900D1C0B20021EEE75946FDF7D0
:1025E000C5FE303107F8011D0028F7D1ADEB07001B
:1025F00000F1200B600702D524F4803401E04FF095
:10260000010ADA4502DDAAEB0B0000E00020824659
:1026100000EB0B0108980144A9EB01000A90E003CC
:1026200006D4DDE90D2321460A9800F04DF8064452
:102630004FF0000908E009A911F80900DDE90D12C1
:10264000904709F10109761C08998945F3DBE003FD
:102650000CD5DDE90D2321460A9800F035F8064433
:1026600004E0DDE90D1230209047761CBAF100013C
:10267000AAF1010AF5DC05E0DDE90D1217F8010BFE
:102680009047761CBBF10001ABF1010BF4DC0A981A
:102690002146DDE90D2300F005F806446D1C97E6A0
:1026A000092801002DE9F041044600251E46174681
:1026B000880404D405E039462020B0476D1C641E10
:1026C000F9D52846BDE8F0812DE9F0410446002502
:1026D0001E469046C80301D5302700E02027880415
:1026E00004D505E041463846B0476D1C641EF9D557
:1026F0002846BDE8F0814A68002A06D00A68531CC3
:102700000B6010704868401E4860704770B5044602
:102710000D4600BF05F00300002808D000BF08A345
:102720004FF4B67212A11AA0FFF7EAFD00BF00BF76
:102730002E46A06800683060A068066070BD00008A
:102740002E2E2F4D6964646C6577617265732F540A
:10275000686972645F50617274792F4C7749502FA9
:102760007372632F636F72652F6D656D702E6300DA
:102770006D656D705F667265653A206D656D207080
:10278000726F7065726C7920616C69676E65640048
:10279000417373657274696F6E20222573222066FF
:1027A00061696C6564206174206C696E65202564C4
:1027B00020696E2025730A0070B50546A868046874
:1027C000002C13D02068A968086000BF04F0030043
:1027D000002808D000BF06A34FF48C7210A119A0E6
:1027E000FFF78EFD00BF00BF204670BD0020FCE754
:1027F0002E2E2F4D6964646C6577617265732F545A
:10280000686972645F50617274792F4C7749502FF8
:102810007372632F636F72652F6D656D702E630029
:102820006D656D705F6D616C6C6F633A206D656D89
:10283000702070726F7065726C7920616C69676E60
:1028400065640000417373657274696F6E202225A0
:102850007322206661696C6564206174206C696E06
:102860006520256420696E2025730A0070B5054631
:10287000002411E004EB4400094901EBC000067D8F
:102880004EB104EB440001EBC0008068A84202D1C5
:10289000204600F087F9641C0A2CEBDB70BD0000B9
:1028A000B86B00202DE9FF5F0646894617464FF0BA
:1028B0000A0AD346D04600240A2003900020029042
:1028C0000190009000BF73E004EB4400764901EBF7
:1028D000C000057DB8F10A0F02D10DB9A04665E030
:1028E000002D63D000BF012D0AD0022D08DA00BFF1
:1028F0006EA340F223127BA18AA0FFF701FD00BF67
:1029000000BFAEB104EB4401674A02EBC10130687D
:10291000496888420CD13FB104EB4400114601EBF9
:10292000C0008068B84203D1204604B0BDE8F09FE3
:10293000012D28D104EB44005B4951F8300080B1EF
:1029400004EB440001EBC000418A029881422DDB78
:10295000039404EB4400544901EBC000408A029008
:1029600024E004EB4400504901EBC000418A019887
:1029700081421BDBA24604EB44004B4901EBC00043
:10298000408A019012E0022D10DB04EB440046491E
:1029900001EBC000418A0098814207DBA34604EBAB
:1029A0004400414901EBC000408A0090601C04B221
:1029B0000A2C89DB09F0020028B9B8F10A0F05D109
:1029C00009F0010010B94FF0FF30AEE7B8F10A0F7F
:1029D00001DA444631E0BBF10A0F11DA5C4600BF70
:1029E00004EB4400304951F8300040B100BF2FA340
:1029F00040F26D1255A14BA0FFF782FC00BF0CE026
:102A0000BAF10A0F01DA544607E003980A2801DAFE
:102A1000039C02E04FF0FF3087E700BF0A2C08DB81
:102A200000BF22A340F27F124EA13EA0FFF768FC38
:102A300000BF00BF204600F0B5F800BF0A2C08DB3D
:102A400000BF1AA340F2831246A136A0FFF758FC3C
:102A500000BF00BF00BF04EB4400134901EBC000FE
:102A6000007D40B100BF11A34FF4C27242A12DA05E
:102A7000FFF746FC00BF00BF36B104EB44010A4A31
:102A800002EBC10130684860002004EB4401064AB3
:102A900002EBC101488204EB4400114601EBC00087
:102AA0008760204641E70000B86B00202E2E2F4D96
:102AB0006964646C6577617265732F5468697264C8
:102AC0005F50617274792F4C7749502F7372632F66
:102AD000636F72652F697076342F657468617270E8
:102AE0002E6300007374617465203D3D2045544899
:102AF0004152505F53544154455F50454E44494EF6
:102B000047207C7C207374617465203E3D204554D1
:102B1000484152505F53544154455F535441424CD5
:102B200045000000417373657274696F6E20222541
:102B30007322206661696C6564206174206C696E23
:102B40006520256420696E2025730A006172705F1C
:102B50007461626C655B695D2E71203D3D204E5550
:102B60004C4C000069203C204152505F5441424C83
:102B7000455F53495A4500006172705F7461626C31
:102B8000655B695D2E7374617465203D3D2045541D
:102B9000484152505F53544154455F454D5054593C
:102BA0000000000010B5044604EB44000C4951F845
:102BB000300060B104EB4401094A52F8310006F0DC
:102BC000FDF8002004EB4401054A42F831000020E2
:102BD00004EB4401024A02EBC101087510BD00007C
:102BE000B86B0020F0B587B007460D4600BF002D3A
:102BF0000AD100BF2EA340F28A223BA13EA0FFF7DC
:102C00007FFB00BF07B0F0BD00BF7C682088B0F537
:102C1000807F08D12079062805D16079042802D167
:102C20006088082803D0384606F0C8F8EAE7D4F8E8
:102C30000E000690A0690590686808B9002607E0B4
:102C400005986968884201D1012000E0002006460D
:102C50000EB1012000E00220034604F1080206A99B
:102C6000284600F0CBFCE088B0F5807F03D0B0F5BB
:102C7000007F15D113E086B1022206AB04F10800F3
:102C8000291DCDE90232CDE9001005F126030246E7
:102C90002231284600F05CFB00E000BF01E000E0CC
:102CA00000BF00BF384606F089F800BFAAE7000061
:102CB0002E2E2F4D6964646C6577617265732F5495
:102CC000686972645F50617274792F4C7749502F34
:102CD0007372632F636F72652F697076342F65741A
:102CE000686172702E6300006E6574696620213D14
:102CF000204E554C4C000000417373657274696F2F
:102D00006E2022257322206661696C6564206174DF
:102D1000206C696E6520256420696E2025730A0089
:102D20002DE9FE4304460F461546A94600BF002C78
:102D300008D100BF5DA340F21E326AA16DA0FFF76B
:102D4000DFFA00BF00BF00BF47B900BF57A340F282
:102D50001F3272A167A0FFF7D3FA00BF00BF00BF08
:102D6000002D08D100BF51A34FF448726EA161A09D
:102D7000FFF7C6FA00BF00BF2146286802F075FEC3
:102D800010B1DFF8B48186E0287800F0F000E02888
:102D900016D101208DF8040000208DF805005E207A
:102DA0008DF80600687800F07F008DF80700A8789D
:102DB0008DF80800E8788DF809000DF1040869E045
:102DC0002868A1680840D4E90112114088420ED059
:102DD000288880B24FF6A961884208D0E06810B117
:102DE00004F10C0903E06FF00300BDE8FE835348D3
:102DF000007800EB4000524901EBC000007D022842
:102E00001BDB4E48007800EB400001EBC0008068FF
:102E1000A04212D14949097801EB4101484A02EB2D
:102E2000C101D9F800004968884206D143480278B8
:102E30003946204600F086F8D7E7002622E006EB68
:102E400046003F4901EBC000007D022818DB06EB7D
:102E5000460001EBC0008068A04211D106EB46019C
:102E6000374A02EBC101D9F800004968884207D10E
:102E70003248067032463946204600F063F8B4E71F
:102E8000701CC6B20A2EDADB3A464946204600F0EC
:102E90000DF9AAE700BF4FF40060434604F1260293
:102EA00039460090204600F0B9FC9EE72E2E2F4DAB
:102EB0006964646C6577617265732F5468697264C4
:102EC0005F50617274792F4C7749502F7372632F62
:102ED000636F72652F697076342F657468617270E4
:102EE0002E6300006E6574696620213D204E554CAE
:102EF0004C000000417373657274696F6E20222567
:102F00007322206661696C6564206174206C696E4F
:102F10006520256420696E2025730A007120213DFB
:102F2000204E554C4C000000697061646472202191
:102F30003D204E554C4C0000780C0108E800002064
:102F4000B86B0020F8B505460E46144600BF04EBEA
:102F50004400314901EBC000007D022808DA00BFBF
:102F60002EA340F2EE223BA146A0FFF7C9F900BF15
:102F700000BF04EB4400284901EBC000007D02289B
:102F800039D104EB440001EBC000408AB0F58E7FDC
:102F900011DD04EB44000A4602EBC000011D284687
:102FA00000F09CFA38BB032004EB44011A4A02EB00
:102FB000C10108751FE004EB4400174901EBC00094
:102FC000408AB0F5877F16DB04EB44000B4603EB29
:102FD000C00000F10C0204EB440003EBC000011D33
:102FE000284600F087FA30B9032004EB44010A4A6E
:102FF00002EBC10108754FF40060009004EB44003F
:10300000054901EBC00000F10C0305F12602314631
:10301000284600F003FCF8BDB86B00202E2E2F4D83
:103020006964646C6577617265732F546869726452
:103030005F50617274792F4C7749502F7372632FF0
:10304000636F72652F697076342F65746861727072
:103050002E6300006172705F7461626C655B617207
:10306000705F6964785D2E7374617465203E3D20E5
:103070004554484152505F53544154455F53544165
:10308000424C4500417373657274696F6E2022254E
:103090007322206661696C6564206174206C696EBE
:1030A0006520256420696E2025730A002DE9FE4FF6
:1030B00081460F46164609F1260A4FF0FF3002906E
:1030C000002001904946386802F0CFFC38B93878C2
:1030D00000F0F000E02802D00FB1386818B96FF0A6
:1030E0000F00BDE8FE8F4A4601213846FFF7DAFBA4
:1030F0008046B8F1000F02DA4FFA88F0F1E700BF1E
:10310000B8F17F0F08D300BF5FA340F2C1326CA1BA
:103110006FA0FFF7F5F800BF00BF08F0FF0404EB55
:103120004400754901EBC000007D70B90120019099
:1031300004EB4401704A02EBC101087504EB440042
:10314000114601EBC000C0F8089000BF04EB44003A
:10315000694901EBC000007D01280FD004EB440059
:1031600001EBC000007D022808DA00BF46A340F250
:10317000CD3262A156A0FFF7C3F800BF00BF01988F
:1031800000B93EB93946484600F0A8F902900EB998
:103190000298A6E700BF46B900BF3BA340F2E13268
:1031A00060A14BA0FFF7ACF800BF00BF04EB4400E8
:1031B000514901EBC000007D022811DB5C4804701E
:1031C0004FF40060009004EB440001EBC00000F1FC
:1031D0000C0352463146484600F020FB029050E076
:1031E00004EB4400444901EBC000007D012848D1B4
:1031F0004FF0000B354618E000BF688929898842E6
:103200000AD1286840B100BF1FA340F2F13249A1A2
:103210002FA0FFF775F800BF00BF287B00F040002B
:1032200010B14FF0010B02E02D68002DE4D100BF7A
:10323000BBF1000F07D032464FF420710E2005F08D
:10324000B1FB054603E03546284605F083FFA5B1EE
:1032500004EB4400284951F8300030B104EB44013C
:10326000254A52F8310005F0A9FD04EB440022493B
:1032700041F830500020029002E04FF0FF30029001
:1032800000BF02982DE700002E2E2F4D6964646C5C
:103290006577617265732F54686972645F506172FB
:1032A00074792F4C7749502F7372632F636F726557
:1032B0002F697076342F6574686172702E63000018
:1032C00074797065206F766572666C6F77000000A8
:1032D000417373657274696F6E20222573222066B4
:1032E00061696C6564206174206C696E6520256479
:1032F00020696E2025730A00B86B00206172705F30
:103300007461626C655B695D2E7374617465203DE8
:103310003D2050454E44494E47206F722053544142
:10332000424C45007120213D204E554C4C00000080
:10333000E80000206E6F207061636B65742071750A
:103340006575657320616C6C6F77656421000000A2
:103350002DE9FC5F06460F4690469946DDE90CAB29
:103360000020019000BF002E08D100BF31A340F221
:1033700057423EA141A0FEF7C3FF00BF00BF4FF47C
:1033800020721C210E2005F083F805461DB94FF070
:10339000FF30BDE8FC9F00BF68891C2808DA00BF29
:1033A00024A340F262423FA134A0FEF7A9FF00BF70
:1033B00000BF6C680F9803F052FEE08000BF96F8E3
:1033C0002C00062808D000BF1AA340F269424249E7
:1033D0002AA0FEF795FF00BF00BFD9F80000A0604B
:1033E000B9F80400A081DBF80000C4F81200BBF8B3
:1033F0000400E082DAF80000C4F80E000E980068BD
:10340000A0614FF480702080082060800620207129
:103410000420607140F6060043463A462946009073
:10342000304600F0FBF9284605F0C8FC002501985D
:10343000AFE700002E2E2F4D6964646C65776172D2
:1034400065732F54686972645F50617274792F4C90
:103450007749502F7372632F636F72652F6970768F
:10346000342F6574686172702E6300006E65746934
:103470006620213D204E554C4C0000004173736581
:103480007274696F6E2022257322206661696C65F3
:1034900064206174206C696E6520256420696E204B
:1034A00025730A00636865636B2074686174206625
:1034B0006972737420706275662063616E20686F34
:1034C0006C642073747275637420657468617270C3
:1034D0005F686472000000001418010870B50446AB
:1034E0000D46034A2946204600F004F870BD00004E
:1034F000780C01087FB504460D4616460121074A9F
:10350000201D04F126038DE825000391324619465B
:103510002046FFF71DFF04B070BD00007E0C0108BF
:1035200070B5002464E004EB4400334901EBC000B3
:10353000057D002D5BD004EB440001EBC000408A08
:10354000401C04EB44012C4A02EBC101488204EB0D
:103550004400114601EBC000408AB0F5967F0DDAB9
:1035600004EB440001EBC000007D01280AD104EB0C
:10357000440001EBC000408A052803DB2046FFF72A
:1035800011FB34E004EB44001B4901EBC000007D5B
:10359000032807D1042004EB4401174A02EBC101C0
:1035A000087524E004EB4400134901EBC000007DE2
:1035B000042807D1022004EB44010F4A02EBC101A9
:1035C000087514E004EB44000B4901EBC000007DDA
:1035D00001280CD104EB44020B4603EBC202111D7F
:1035E00004EB440203EBC2029068FFF777FF641C10
:1035F0000A2C98DB70BD0000B86B00202DE9F84361
:1036000005460E461746984600BF95F82C0006283A
:1036100008D000BF2EA340F2A9123BA143A0FEF7A1
:103620006FFE00BF00BF5EB1306848B12946306808
:1036300002F01BFA20B9307800F0F000E02803D146
:103640006FF00F00BDE8F8832A4641463046FFF789
:1036500029F90446002C01DA60B2F3E7022004EBFA
:1036600044013C4A02EBC101087504EB44001146D9
:1036700001EBC000856004EB440001EBC000396839
:10368000C160B9880182002004EB440102EBC10152
:10369000488204EB4400114651F83000B0B104EB0D
:1036A000440051F83090002004EB440142F831000E
:1036B0004FF400603B4605F126024946009028463B
:1036C00000F0ACF8484605F079FB00BF0020B9E7F0
:1036D0002E2E2F4D6964646C6577617265732F546B
:1036E000686972645F50617274792F4C7749502F0A
:1036F0007372632F636F72652F697076342F6574F0
:10370000686172702E6300006E657469662D3E6894
:1037100077616464725F6C656E203D3D204554485E
:103720005F4857414444525F4C454E0041737365B6
:103730007274696F6E2022257322206661696C6540
:1037400064206174206C696E6520256420696E2098
:1037500025730A00B86B00202DE9F04104460E469F
:103760004FF00E0860890E2800DC4FE0E07B18B9AE
:1037700096F83000401CE0736568AF89287800F047
:103780000100B0B12878012809D1687888B9A878F3
:103790005E280ED1607B40F01000607309E00622C5
:1037A0001D492846FCF7B9FD18B9607B40F00800B8
:1037B0006073082F03D0B7F5C16F22D110E096F8DF
:1037C0002D0000F0080000B920E04146204605F039
:1037D0000FFD00B11AE03146204602F0D3FA11E0A5
:1037E00096F82D0000F0080000B90FE04146204691
:1037F00005F0FEFC00B109E031462046FFF7F2F982
:1038000000E003E000BF0020BDE8F081204605F0A5
:10381000D5FA0020F8E70000780C01082DE9F04700
:1038200005460E4617469846DDF82090484603F0B8
:1038300016FC82460E21304604F0ACFD00B122E0B9
:103840007468A4F80CA0D8F800002060B8F8040050
:10385000A0803868C4F80600B888608100BF95F879
:103860002C00062808D000BF08A34FF4997215A1B8
:1038700021A0FEF745FD00BF00BF31462846AA69DA
:103880009047BDE8F0876FF00100FAE72E2E2F4D2C
:103890006964646C6577617265732F5468697264DA
:1038A0005F50617274792F4C7749502F7372632F78
:1038B0006E657469662F65746865726E65742E63D3
:1038C000000000006E657469662D3E68776164646F
:1038D000725F6C656E206D75737420626520362092
:1038E000666F722065746865726E65745F6F75745B
:1038F0007075742100000000417373657274696F04
:103900006E2022257322206661696C6564206174D3
:10391000206C696E6520256420696E2025730A007D
:1039200010B5044600BF44B900BF0CA340F22222E8
:1039300011A115A0FEF7E4FC00BF00BF732084F8BE
:103940002E0074212F200155194860611948A0618B
:10395000204603F0C3F9002010BD00002E2E2F4C8E
:103960005749502F5461726765742F65746865728A
:103970006E657469662E63006E6574696620213D0C
:10398000204E554C4C000000417373657274696F92
:103990006E2022257322206661696C656420617443
:1039A000206C696E6520256420696E2025730A00ED
:1039B000212D00080D6F0008F8B50446204603F0DD
:1039C00023FA06466A4601211648FDF723FBD0B9C3
:1039D000009800F0040058B994F82D00C0F380005E
:1039E00088B1204604F03CFB204604F0A3FB0AE02B
:1039F00094F82D00C0F3800028B9204604F06AFC3A
:103A0000204604F0FDFB06B9F8BD21463046226988
:103A1000904705461DB1304605F0D0F9002600BF9D
:103A2000F2E70000C0310020704700001CB50446DA
:103A300000200190009094F82D00C0F38000002831
:103A400054D02E484068A0B34FF4805200212B4838
:103A5000FDF71AFCFDF766FD019000BF6A460121E3
:103A60002648FDF7D7FAFDF75DFD0199401AB0F53C
:103A70007A7F00D924E0009800F020002028EDD1C2
:103A80006A461F211D48FDF7C5FA009800F0100096
:103A900020B14FF400611948C16002E000211748CD
:103AA000C160009800F0040020B10021134881603B
:103AB00014E004E04FF48041104881600EE000BF44
:103AC0000E48C068C0F3CF000C498968C1F34F01AC
:103AD00040EA010200210948FDF7D6FB0021074812
:103AE000FCF724FF0548FDF7DEFA02E00348FDF786
:103AF00003FB2046FFF798FF1CBD0000C0310020EB
:103B00002DE9F04180460E460EB1307810B9002004
:103B1000BDE8F081344600252BE008F1380040F87C
:103B20002540274626212046FCF7D8FB04461CB139
:103B300000202070641C08E020213846FCF7CEFBF2
:103B400004460CB10020207000243D213846FCF7CB
:103B5000C5FB07463FB100203870781C08F178019A
:103B600041F8250004E0002108F1780040F8251014
:103B70006D1C102D01DA002CCFD12846C8E738B5CE
:103B800004468DF8000069460320ABBE204638BDD0
:103B90000146D1E90102801A704710B50446607CE5
:103BA00010B1204600F001F810BD00210160416015
:103BB0007047000070B504460E4604B116B96FF0A8
:103BC0000F0070BD3146204600F022F818B10120E8
:103BD00060740020F5E7002060740C4D11E0304661
:103BE0006968FCF78CFB58B9A8682060E8686060D9
:103BF000E868A0600020E060287C20740020E0E7F6
:103C00002D68002DEBD1A81FDBE700008010010814
:103C100070B504460D460CA12846FCF770FB80B930
:103C2000FDF780FC064633460BA220210B48FEF729
:103C300077FB60600020A0602074084820600120AD
:103C400070BD0020FCE700002F74696D657374611E
:103C50006D702E68746D6C002575000000010020E9
:103C60002DE9F04104460F461646D4E9011088427A
:103C700003D14FF0FF30BDE8F081607C28B13246BF
:103C80003946204600F013F8F5E7D4E90101451A5A
:103C9000B54200DD3546A268206881182A463846BC
:103CA000FCF7D8FAA0682844A0602846E3E72DE98D
:103CB000F04104460F461646D4E90101451A002D8D
:103CC0000FDDB54200DD3546A268206881182A461E
:103CD0003846FCF7BFFAA0682844A0602846BDE833
:103CE000F0814FF0FF30FAE770B50446002500BFC1
:103CF000C0200059002808D000BF1CA34FF46E72EA
:103D000028A12DA0FEF7FCFA00BF00BF0025606BC4
:103D100038B9606928B16069007C00F0020000B128
:103D20000125E5B160690C21426804F1CC0003F083
:103D3000EBF904F1CC00FCF7DBFA0646092E0CD8AF
:103D400004F1CC00304426A10A8802808978817071
:103D500004F1CC00C421085100E0002500BF1DB1D2
:103D60002048016AC020015170BD00002E2E2F4D49
:103D70006964646C6577617265732F5468697264F5
:103D80005F50617274792F4C7749502F7372632F93
:103D9000617070732F687474702F68747470642EFF
:103DA00063000000616C7265616479206265656E14
:103DB00020686572653F0000417373657274696FB6
:103DC0006E2022257322206661696C65642061740F
:103DD000206C696E6520256420696E2025730A00B9
:103DE0000D0A0000840C01082DE9F04704468946BD
:103DF0004048016BBC2001510021C0200151C4206A
:103E00000151B9F1000F0ED13A484068C4F8B8002A
:103E10003848416BC82001510020A4F8DA00A4F80A
:103E2000D800BDE8F08734A14846FCF745FA20B138
:103E300030484068C4F8B80017E030A14846FCF7A5
:103E40003BFA20B12B488068C4F8B8000DE02CA1E3
:103E50004846FCF731FA20B12648C068C4F8B800DB
:103E600003E024480068C4F8B8003F214846FCF746
:103E700035FA06460EB10020307000272E21484644
:103E8000FCF72CFA804606E008F101072E2138469F
:103E9000FCF724FA8046B8F1000FF5D16FB1002588
:103EA00008E0184951F83500394603F077F900B9B0
:103EB00002E06D1C142DF4D300E014250EB13F2058
:103EC0003070142D06D20F4800EBC5004168C820A1
:103ED000015107E01FB90CA1C820015102E015A152
:103EE000C82001510020A4F8DA00A4F8D80000BFCF
:103EF00097E70000840C010834303400343030007F
:103F000035303100BC0C0108436F6E74656E742D42
:103F1000547970653A206170706C69636174696F7F
:103F20006E2F6F637465742D73747265616D0D0A05
:103F30000D0A0000436F6E74656E742D54797065C0
:103F40003A20746578742F706C61696E0D0A0D0AE1
:103F5000000000002DE9F041074600BF002F08D106
:103F600000BF45A34FF4417251A154A0FEF7C8F918
:103F700000BF00BF7C6B00BF44B900BF3EA340F24E
:103F8000063258A14DA0FEF7BBF900BF00BF58484C
:103F90000068F8B157480068E0B157480068C8B1F8
:103FA000002513E05348006850F8251004F1120072
:103FB000FCF7A5F948B9C02204F11B0128464C4B77
:103FC0001B689847E081BDE8F0816D1C4A48006895
:103FD0008542E7DB04F11200FCF78AF9A72804D236
:103FE00004F11200FCF784F900E0A720092801D9A8
:103FF00009200BE004F11200FCF77AF9A72804D29B
:1040000004F11200FCF774F900E0A7200646122222
:104010003AA104F11B00FCF71DF9324604F112012C
:1040200004F12D00FCF716F906F1120004F11B0152
:10403000084437A10A6802608A8882808979817180
:10404000002206F1190004F11B010A540846FCF78E
:104050004FF9064600BFB6F5803F08D300BF06A360
:1040600040F23F322CA115A0FEF74AF900BF00BF75
:10407000E68100BFA7E700002E2E2F4D6964646C17
:104080006577617265732F54686972645F506172FD
:1040900074792F4C7749502F7372632F617070734E
:1040A0002F687474702F68747470642E630000003D
:1040B000687320213D204E554C4C000041737365C0
:1040C0007274696F6E2022257322206661696C65A7
:1040D00064206174206C696E6520256420696E20FF
:1040E00025730A0073736920213D204E554C4C0006
:1040F00038000020400000203C0000203C623E2AA6
:104100002A2A554E4B4E4F574E205441472000000F
:104110002A2A2A3C2F623E006C656E203C3D2030EE
:1041200078666666660000002DE9F04107460D4698
:10413000164606B91DB96FF00500BDE8F0810121F2
:1041400028460AF02DFF01F0DAF8044614B94FF0C2
:10415000FF30F2E7E5612146284605F0B7FC094942
:1041600028460AF0BBF80849284606F0F1F904226F
:104170000649284608F0CAFD054928460AF0BAFE55
:104180000020DAE7BD480008E14200086D48000859
:10419000CB5000082DE9F04107460C46606930B964
:1041A0002146384600F094F80020BDE8F0816069AF
:1041B000FFF7EEFC0646002E05DC2146384600F0EF
:1041C00087F80020F1E7606A38B1A06AB04201DAEE
:1041D000A06A00E0304605461FE0B7F86450AE42E2
:1041E00000DA3546788E40044FEA1048454500DD38
:1041F000454600BFA8B203F06FF96062606A08B17B
:10420000A56205E0284605EBD0714D10642DF1DC68
:1042100000BF606A08B90020C7E72A46616A606982
:10422000FFF71EFD0546002D09DAA81C08B900207D
:10423000BBE72146384600F04BF80020B5E7E562C1
:10424000606AA061606B20B1606B8560616B606AC1
:1042500008600120A9E770B504460D4600222946F2
:10426000204600F001F870BD2DE9F04107460C46EC
:1042700016460021384605F029FC002138460AF090
:104280002DF80021384606F063F900221146384621
:1042900008F03CFD002138460AF02CFE14B12046FF
:1042A00001F057F82EB1384605F04CFB0020BDE870
:1042B000F081384605F0C6FC054625B104220349C5
:1042C000384608F023FD2846F1E700006D48000855
:1042D00070B504460D4629462046FFF7BCFF70BD69
:1042E00070B504460E46254615B1284601F031F852
:1042F00070BD00002DE9F74F86B080460026B1461C
:10430000002005900798FBF7F3FF8246BAF1000FF3
:104310005FD0AAF101000799085C2F2859D16349A1
:104320000798884202D1BAF1010F52D1AAF10100D7
:104330003F2801D93F2001E0AAF1010005463DB127
:104340002A465A480799FBF785FF002057494855E8
:1043500000243AE01DB3C5F13F0003900398D8B1A3
:10436000534951F83400FBF7C3FF0290DDE9021016
:10437000884201D2039800E0029801904C4A52F81A
:1043800034104A4A5019019AFBF764FF0021019842
:104390002844464A115400BF4448049003E044486E
:1043A00050F83400049040460499FFF703FC83461C
:1043B000BBF1000F08D10498079046463C4800EB3B
:1043C000C4000079059002E0641C052CC2D300BF34
:1043D00000BF002E57D13F210798FBF77FFF814692
:1043E000B9F1000F04D0002089F8000009F101099B
:1043F0004FF0FF302F4908602F48006838B32F482E
:10440000006820B300271DE02C48006850F83710E2
:104410000798FBF774FFA0B949464046FFF770FBC9
:10442000244908602548006800EBC70008F17803BC
:1044300008F138024568084601683846A8470790E1
:1044400004E07F1C1C4800688742DDDB00BF40465B
:104450000799FFF7AFFB8346BBF1000F01D146463A
:1044600004E007A9404600F02BF806462EB1307C48
:1044700000F0080010B10120059004E030460799D3
:1044800000F07CFF059026B907A9404600F018F817
:1044900006460598CDE9000931464046DDE9073278
:1044A00000F040F809B0BDE8F08F00003C36002075
:1044B000700D01084C00002048000020440000203E
:1044C00070B506460C460EA0206030462168FFF706
:1044D00071FB054695B10DA0206030462168FFF7BD
:1044E00069FB054655B10CA0206030462168FFF7F6
:1044F00061FB054615B10020206070BD3046FCE729
:104500002F3430342E68746D6C0000002F3430343A
:104510002E68746D000000002F3430342E736874E0
:104520006D6C00002DE9F04704460D46174698468D
:10453000DDE9089A002D47D0B9F1000F0FD000F047
:10454000CBFE064656B10020B08186F8DC00286814
:1045500030606868B06028687060666300BF65613D
:104560002868A06100BF6868002808DA00BF20A39F
:1045700040F634122CA134A0FDF7C2FE00BF00BFEC
:10458000687C20B1286810B90020E06201E068680A
:10459000E062002084F83000E7B16069007C00F040
:1045A0000100B8B132A1E26AA06902F015FE064628
:1045B0004EB1311DA269881AA1690144A161E16A65
:1045C000091AE16200BF05E000206061A061E062BD
:1045D00084F83000606920B16069007C00F001005F
:1045E00018B941462046FFF7FFFB0020BDE8F087E1
:1045F0002E2E2F4D6964646C6577617265732F543C
:10460000686972645F50617274792F4C7749502FDA
:104610007372632F617070732F687474702F687475
:104620007470642E6300000046696C65206C656ED2
:10463000677468206D75737420626520706F73698C
:104640007469766521000000417373657274696F47
:104650006E2022257322206661696C656420617476
:10466000206C696E6520256420696E2025730A0020
:104670000D0A0D0A000000002DE9F74F84B00C462A
:10468000049F00BF47B900BF53A340F2AE7260A1C0
:1046900062A0FDF735FE00BF00BF00BF44B900BFF8
:1046A0004DA340F2AF7267A15CA0FDF729FE00BFE9
:1046B00000BF606908B9A06920B16FF0070007B0BA
:1046C000BDE8F08F206A08B9276203E03946206A06
:1046D00004F0B6F8384604F03DFD206A006898B151
:1046E000206A008940F2FF31884202D2206A0089A4
:1046F00001E040F2FF30814600234A465449206AD7
:1047000004F0BCFA524E03E07E68B7F80A9000BF8E
:10471000B9F1070F4EDB4A464EA1304602F05CFD70
:104720008246BAF1000F45D00020039004224AA12E
:104730003046FBF7FFFD08B9F51C04E0002030719E
:104740006FF00F00BBE7681C801BA9EB000080B274
:10475000029043A1681C029A02F03EFD8046B8F127
:10476000000F07D13BA1681C029A02F035FD80467C
:1047700001200390681CA8EB000080B20190B8F102
:10478000000F16D0A84514D94A4636A1304602F08B
:1047900023FD68B1681C0090002028700022DDE92C
:1047A000000142542046039A0099FFF7A3FD86E7D3
:1047B00000BF00BF206A04F0EBF88346206A00893E
:1047C000B0F5806F05D2BBF1050F02DC6FF004007D
:1047D00075E76FF00F0072E72E2E2F4D6964646C41
:1047E0006577617265732F54686972645F50617296
:1047F00074792F4C7749502F7372632F61707073E7
:104800002F687474702F68747470642E63000000D5
:104810007020213D204E554C4C00000041737365C3
:104820007274696F6E2022257322206661696C653F
:1048300064206174206C696E6520256420696E2097
:1048400025730A00687320213D204E554C4C000012
:104850003C3200200D0A00004745542000000000B3
:10486000200000000D0A0D0A000000002DE9F041B3
:1048700005460E462C463CB900213046FFF7EBFCBE
:1048800007460020BDE8F08114F8300F401C20706E
:1048900014F83009042805D121463046FFF7DBFC27
:1048A0000020EFE7606938B12146304600F0AAF8F1
:1048B00010B1304607F03AFA0020E3E72DE9F0475F
:1048C00080460F46154699464646B9F1000F01D17C
:1048D00005B176B935B12989384609F0B7FD2846C2
:1048E00004F06CFA31463846FFF7B5FC0020BDE80D
:1048F000F0872989384609F0A9FD7069002835D16B
:104900003A4631462846FFF7B7FE044600BF002C62
:1049100011D0601D00280ED00B3000280BD00838B5
:10492000002808D000BF14A340F6042220A12BA029
:10493000FDF7E6FC00BF00BF601D30B1306A20B15A
:10494000306A04F03BFA00203062284604F036FA60
:1049500024B93146384600F055F806E004F110005D
:1049600018B931463846FFF776FC02E0284604F0D5
:1049700025FA0020BBE700002E2E2F4D6964646CE1
:104980006577617265732F54686972645F506172F4
:1049900074792F4C7749502F7372632F6170707345
:1049A0002F687474702F68747470642E6300000034
:1049B000687474705F70617273655F72657175653C
:1049C00073743A20756E65787065637465642072DF
:1049D000657475726E2076616C75650041737365E0
:1049E0007274696F6E2022257322206661696C657E
:1049F00064206174206C696E6520256420696E20D6
:104A000025730A0070B506460C4600250CB9002037
:104A100070BDB4F8DA0005280EDA2146304600F001
:104A2000B6FA0546032D05D0012D05D0B4F8DA00FD
:104A3000052801DA2846EBE7E06A30B9214630461E
:104A4000FFF7A8FB08B90020E2E7606B28B1214618
:104A5000304600F03FF8054604E02146304600F0BD
:104A600010F80546E06A50B96069FFF791F8002830
:104A700005DC21463046FFF72BFC0020C8E728461E
:104A8000C6E7F8B506460C4600274FF6FF71E06A08
:104A9000884201D2E06A01E04FF6FF7080B20090D8
:104AA000606A08B1012000E0002003466A463046F3
:104AB000A16900F0A3FC054655B90127BDF8001017
:104AC000A0690844A061BDF80010E06A401AE062E5
:104AD0003846F8BD2DE9F84380460D460026B1461C
:104AE0006C6B00BF002C08D100BFE8A340F2CB42A2
:104AF000F4A1F7A0FDF704FC00BF00BFB8F8640004
:104B000000902068A96988422DD92068A969401AB7
:104B10004FF6FF71884203DA2068A969401A01E064
:104B20004FF6FF7080B20090686A08B1012000E083
:104B3000002003466A464046A96900F05FFC06462D
:104B40005EB94FF00109BDF80010A8690844A861DA
:104B5000BDF80010E86A401AE862B8F8640010B9BD
:104B60004846BDE8F883D7E1BDF8000008B94846DB
:104B7000F7E794F8DC0005287ED2DFE800F0031F99
:104B800044BCFD0000270FE020680078DA4951F8A6
:104B900037100978884205D12774012084F8DC0099
:104BA000A08103E0781CC7B2022FEDD300BFA0683C
:104BB000401EA0602068401C2060ACE1207CCE49F3
:104BC00051F83000A189405C28B90020A081022062
:104BD00084F8DC0016E0207CC74951F83000A18938
:104BE000405C21680978884203D1A089401CA081DB
:104BF00002E0002084F8DC00A068401EA06020686D
:104C0000401C206087E1A089B0B920680078202886
:104C10000BD020680078092807D0206800780A287F
:104C200003D0206800780D2806D1A068401EA0603F
:104C30002068401C20606EE120680078217CAE4A2C
:104C400002EBC1014968097888420FD020680078DA
:104C500020280BD020680078092807D02068007829
:104C60000A2803D0206800780D282ED1A08920B909
:104C7000002084F8DC0037E04CE1032084F8DC00FD
:104C800000BFA089FF2808DD00BF80A340F23A5290
:104C90009AA18FA0FDF734FB00BF00BF207B60749A
:104CA0000021A28904F11200815420680078217C3F
:104CB000914A02EBC10149680978884202D101207A
:104CC000A08111E00020A0810EE0A089082808DA68
:104CD00020680178A289501CA08104F1120081543F
:104CE00002E0002084F8DC00A068401EA06020687C
:104CF000401C20600FE1A089B0B92068007820280E
:104D00000BD020680078092807D0206800780A288E
:104D100003D0206800780D2806D1A068401EA0604E
:104D20002068401C2060F6E0207C734901EBC00045
:104D30004068A189405C21680978884249D1A0680F
:104D4000401EA0602068401C2060A089401CA081FB
:104D5000207C694901EBC0004068A189405CB8BB78
:104D60002846FFF7F7F80020A081042084F8DC0033
:104D700020686060606800E035E0A969884231D948
:104D80006068A969401A4FF6FF71884203DA6068CB
:104D9000A969401A01E04FF6FF7080B20090686A7E
:104DA00008B1012000E0002003466A464046A96998
:104DB00000F024FB06465EB94FF00109BDF8001073
:104DC000A8690844A861BDF80010E86A401AE862C2
:104DD00008E0A068401EA0602068401C2060002001
:104DE00084F8DC0097E06068A96988422DD9606882
:104DF000A969401A4FF6FF71884203DA6068A96911
:104E0000401A01E04FF6FF7080B20090BDF800003C
:104E100060B1686A08B1012000E0002003466A46DC
:104E20004046A96900F0EAFA064600E0002666BBA3
:104E30004FF00109BDF80010A8690844A861BDF849
:104E40000010E86A401AE86265E0A089E1898842BA
:104E500017DAE089A189401A80B20090A28904F192
:104E60001B00111801236A46404600F0C7FA0646A7
:104E70005EB94FF00109A089BDF800100844A08177
:104E800003E00020A08184F8DC0044E02E2E2F4DAA
:104E90006964646C6577617265732F5468697264C4
:104EA0005F50617274792F4C7749502F7372632F62
:104EB000617070732F687474702F68747470642ECE
:104EC0006300000073736920213D204E554C4C0057
:104ED000417373657274696F6E2022257322206698
:104EE00061696C6564206174206C696E652025645D
:104EF00020696E2025730A00980D01087373692DCF
:104F00003E7461675F696E646578203C3D2030784F
:104F10006666000000BF00BF94F8DC00042801D0E2
:104F2000A06810B1002E3FF41FAE94F8DC000428F6
:104F30002BD02068A969884227D92068A969401A1E
:104F40004FF6FF71884203DA2068A969401A01E030
:104F50004FF6FF7080B20090686A08B1012000E04F
:104F6000002003466A464046A96900F047FA064613
:104F70005EB94FF00109BDF80010A8690844A861A6
:104F8000BDF80010E86A401AE8624846E9E52DE9F4
:104F9000FC5F81460C4600200190C020005910B9EA
:104FA0002046FEF7A1FEB9F86450009569E0B4F818
:104FB000DA2004F1B80151F82200FBF799F987B221
:104FC000B4F8D800381AA84201DD284602E0B4F847
:104FD000D800381A80B20090B4F8DA1004F1B800A2
:104FE00050F82100B4F8D81000EB010ABDF800B069
:104FF0004FF00008B4F8DA00032801D148F00108A6
:10500000B4F8DA00042801DA48F0020843466A4698
:105010005146484600F0F2F9064636B9BDF80000A0
:10502000834502D00120019002E00EB100200090E3
:1050300034F8D80FBDF8001008442080BDF80000F7
:10504000281A85B234F8D809B84219D1B4F8DA0070
:10505000401CA4F8DA0004E0B4F8DA00401CA4F81C
:10506000DA00B4F8DA00052807DAB4F8DA1004F147
:10507000B80050F821000028EED00020A4F8D80095
:1050800000BF3DB1B4F8DA00052803DABDF800002E
:1050900000288CD1B4F8DA0005280CDBA06950B9DF
:1050A00021464846FFF776F810B10220019002E051
:1050B0000320BDE8FC9FB4F8DA00052801DBA069F5
:1050C00008B90220F5E70198F3E72DE9F04104461D
:1050D0000E461746254615B90020BDE8F081002090
:1050E00085F8300029463046FFF78CFC0020F4E7B5
:1050F00070B505460C4600BF002D08D100BF0DA3BA
:1051000040F6B22219A11DA0FDF7FAF800BF00BFBA
:1051100000BF002C08DC00BF06A340F6B32221A18B
:1051200016A0FDF7EDF800BF00BF25480560254833
:10513000046070BD2E2E2F4D6964646C65776172BA
:1051400065732F54686972645F50617274792F4C73
:105150007749502F7372632F617070732F68747466
:10516000702F68747470642E630000006E6F20638B
:1051700067697320676976656E0000004173736527
:105180007274696F6E2022257322206661696C65D6
:1051900064206174206C696E6520256420696E202E
:1051A00025730A00696E76616C6964206E756D62A4
:1051B0006572206F662068616E646C6572730000B2
:1051C000440000204800002070B506460C461546F5
:1051D00000BF002E08D100BF14A340F6972221A1E2
:1051E00026A0FDF78DF800BF00BF2E48066000BF67
:1051F000002C08D100BF0DA340F69E222AA11FA0BB
:10520000FDF77EF800BF00BF00BF002D08DC00BF27
:1052100006A340F69F2228A118A0FDF771F800BF51
:1052200000BF2B4804602B48056070BD2E2E2F4D0B
:105230006964646C6577617265732F546869726420
:105240005F50617274792F4C7749502F7372632FBE
:10525000617070732F687474702F68747470642E2A
:10526000630000006E6F207373695F68616E646C29
:10527000657220676976656E000000004173736592
:105280007274696F6E2022257322206661696C65D5
:1052900064206174206C696E6520256420696E202D
:1052A00025730A00380000206E6F20746167732038
:1052B000676976656E000000696E76616C696420CE
:1052C0006E756D626572206F662074616773000091
:1052D000400000203C00002010B5E02002F0FCF867
:1052E00004461CB1E0212046FAF7DBFF204610BD42
:1052F00010B5044614B1204601F0B2FF10BD10B540
:10530000DC2002F0E9F8044614B1204600F02BF846
:10531000204610BD10B50446606920B16069FEF7F3
:105320003CFC00206061606A20B1606A01F098FF77
:1053300000206062606B20B1606BFFF7D9FF002036
:105340006063206A20B1206A03F038FD00202062EB
:1053500010BD10B504462CB12046FFF7DBFF2046F8
:1053600001F07EFF10BD10B50446DC212046FAF79F
:1053700098FF0520A4F8DA0010BD00002DE9F047E1
:1053800080460D464FF0000AB8F1000F2DD0D146EF
:1053900017A12846FAF790FF07460FB10020387092
:1053A0002C46A94613A12046FAF786FF044606E0DC
:1053B000A146641C0FA12046FAF77EFF0446002C8C
:1053C000F6D100260AE00C4850F82610484601F0B5
:1053D000E5FE10B94FF0010A02E0761C052EF2D36B
:1053E00000BF0FB13F20387000BF5046BDE8F087C6
:1053F0003F0000002E0000005C0D01082DE9F04781
:105400000546894616469A4600BF002E08D100BFC1
:105410001FA340F219222CA12FA0FCF771FF00BF9F
:1054200000BF348814B90020BDE8F087B5F8647077
:10543000A74200DA3C46688E4004070CBC4200DDFF
:105440003C4600BF53462246494628460AF05EFCC9
:10545000804608F1010068B9B5F8640018B1B5F8E4
:105460006600092801DB012404E0204604EBD0712A
:10547000C1F34F0408F1010008B9012CE2DCB8F1D6
:10548000000F01D1348001E0002030804046CBE79E
:105490002E2E2F4D6964646C6577617265732F548D
:1054A000686972645F50617274792F4C7749502F2C
:1054B0007372632F617070732F687474702F6874C7
:1054C0007470642E630000006C656E677468202140
:1054D0003D204E554C4C0000417373657274696FEA
:1054E0006E2022257322206661696C6564206174D8
:1054F000206C696E6520256420696E2025730A0082
:1055000010B52E2006F0E8FA044600BF002C08D1A2
:1055100000BF07A340F6722213A11AA0FCF7F0FE09
:1055200000BF00BF5021204600F040F810BD000031
:105530002E2E2F4D6964646C6577617265732F54EC
:10554000686972645F50617274792F4C7749502F8B
:105550007372632F617070732F687474702F687426
:105560007470642E6300000068747470645F696E08
:1055700069743A207463705F6E6577206661696C48
:1055800065640000417373657274696F6E20222533
:105590007322206661696C6564206174206C696E99
:1055A0006520256420696E2025730A0070B50446C5
:1055B0000E46002C2CD00121204609F0F1FC324689
:1055C0001449204604F086FA054600BF002D08D095
:1055D00000BF11A340F657221DA124A0FCF790FEA6
:1055E00000BF00BFFF21204606F0FCF8044600BFC4
:1055F000002C08D100BF08A340F6592225A11BA00A
:10560000FCF77EFE00BF00BF2A49204604F0A1F946
:1056100070BD0000901101082E2E2F4D6964646C3E
:105620006577617265732F54686972645F50617247
:1056300074792F4C7749502F7372632F6170707398
:105640002F687474702F68747470642E6300000087
:1056500068747470645F696E69743A207463705F13
:1056600062696E64206661696C656400417373658C
:105670007274696F6E2022257322206661696C65E1
:1056800064206174206C696E6520256420696E2039
:1056900025730A0068747470645F696E69743A20D7
:1056A0007463705F6C697374656E206661696C65A4
:1056B000640000002941000870B505460C462246EA
:1056C0000321284600F03AF970BD00002DE9FF5F84
:1056D00005468A466548806803900398007800076D
:1056E000860E142E00DAB7E06889042800D2B3E0F1
:1056F0006868047814B1082C70D100E0A6E0DFF8E7
:105700006C9109F114095948007D00F0F000E0287F
:1057100000D1A5E0554A1168506900F0A6F900B122
:105720009EE02889082800D296E006F10E0128465E
:1057300002F030FE002840D0288930441FFA80FB58
:105740002889584500DD8BE04FF4207259460E2021
:1057500002F09EFE074607B982E0798906F108004B
:10576000814203D2384603F029FB79E0324678685B
:105770000399FAF76FFD3146384603F039FD0028EA
:105780000DD000BF00BF3AA3B62247A154A0FCF73A
:10579000B7FD00BF00BF384603F010FB60E02946AC
:1057A000384603F057F918B1384603F007FB57E0C5
:1057B000284603F003FB3D4611E006F10E012846A2
:1057C00003F016FD58B100BF00BF29A3C7224EA1A8
:1057D00043A0FCF795FD00BF00BF41E024E0D5F8F1
:1057E00004803146284602F0D5FDE0B96F68D9F84B
:1057F0000000F8601D4800693861002088F800004A
:10580000A8F80200FF2038720020788101200021D2
:10581000FF230A46CDE9010A00914946284600F0D7
:1058200099FB834600BF11E0032C0ED00B2C0CD04B
:105830000C2C0AD0042C08D0052C06D00D2C04D03A
:105840000E2C02D0112C00D000BF00BF00BF284694
:1058500003F0B4FABDE8FF9F284603F0AFFAF9E77A
:10586000284603F0ABFA00BFF4E700007C360020C6
:105870002E2E2F4D6964646C6577617265732F54A9
:10588000686972645F50617274792F4C7749502F48
:105890007372632F636F72652F697076342F69633B
:1058A0006D702E630000000069636D705F696E703B
:1058B00075743A206D6F76696E6720722D3E706147
:1058C000796C6F616420746F2069636D7020686506
:1058D00061646572206661696C65640A000000009D
:1058E000417373657274696F6E202225732220667E
:1058F00061696C6564206174206C696E6520256443
:1059000020696E2025730A0069636D705F696E708F
:1059100075743A20726573746F72696E67206F7266
:105920006967696E616C20702D3E7061796C6F6182
:1059300064206661696C65640A0000002DE9FF4718
:105940000746884691464FF420722421222002F017
:105950009FFD05460DB9BDE8FF8700BF6889242873
:1059600008D200BF19A34FF4B47226A130A0FCF7EF
:10597000C7FC00BF00BFD7F804A06C6884F80080A3
:1059800084F801900020A080E08079686A6802F1C4
:1059900008001C22FAF75EFCDAF80C00039003A85A
:1059A00000F040FD06465EB100206080012000212D
:1059B000FF2303AACDE901060091284600F0CAFAA8
:1059C000284603F0FBF900BFC5E700002E2E2F4D3F
:1059D0006964646C6577617265732F546869726479
:1059E0005F50617274792F4C7749502F7372632F17
:1059F000636F72652F697076342F69636D702E63E3
:105A000000000000636865636B2074686174206641
:105A10006972737420706275662063616E20686FAE
:105A20006C642069636D70206D65737361676500D8
:105A3000417373657274696F6E202225732220662C
:105A400061696C6564206174206C696E65202564F1
:105A500020696E2025730A0070B505460C46224663
:105A60000B212846FFF76AFF70BD18B50246009269
:105A7000D04300B10AB9012018BD91F82D0000F003
:105A8000020008B90020F7E74868904201D10020E1
:105A9000F2E700988B681840D1E90134234098421E
:105AA00008D1886822EA00008C68E343984201D15B
:105AB0000120E1E70020DFE72DE9F74F8CB0044635
:105AC0000F464FF00008B98CA1F11400C11700EB8C
:105AD0005171C1F3CF0A1420059060680990DDF878
