:020000040800F2
:1000000078BE002061020008F1230008EB20000800
:10001000ED230008CB040008F925000800000000CB
:10002000000000000000000000000000A101000826
:10003000CF04000800000000FD01000809240008AA
:100040007B0200087B0200087B0200087B0200089C
:100050007B0200087B0200087B0200087B0200088C
:100060007B0200087B0200087B0200087B0200087C
:100070007B0200087B0200087B0200087B0200086C
:100080007B0200087B0200087B0200087B0200085C
:100090007B0200087B0200087B0200087B0200084C
:1000A0007B020008112500087B0200087B02000883
:1000B0007B0200087B0200087B0200087B0200082C
:1000C0007B0200087B0200087B0200087B0200081C
:1000D0007B0200087B0200087B0200087B0200080C
:1000E0007B0200087B0200087B0200087B020008FC
:1000F0007B0200087B0200087B0200087B020008EC
:100100007B0200087B0200087B0200087B020008DB
:100110007B0200087B0200087B0200087B020008CB
:100120007B0200087B0200087B0200087B020008BB
:100130007B020008890500087B0200087B0200089A
:100140007B0200087B0200087B0200087B0200089B
:100150007B0200087B0200087B0200087B0200088B
:100160007B0200087B0200087B0200087B0200087B
:100170007B0200087B0200087B02000800000000F0
:100180007B0200087B020008DFF810D000F060F965
:10019000004800471D640008AFF3008078BE0020CF
:1001A0002C4B19680868B0E8F04F80F30988BFF35A
:1001B0006F8F4FF0000080F311887047000000003F
:1001C00008480068006880F308884FF0000080F35A
:1001D000148862B661B6BFF34F8FBFF36F8F00DF35
:1001E00000BF00BF08ED00E0DFF80C00016841F43B
:1001F00070010160704700BF88ED00E0EFF30980F7
:10020000BFF36F8F134B1A681EF0100F08BF20ED5D
:10021000108A20E9F04F106009B44FF0500080F3CD
:100220001188BFF34F8FBFF36F8F11F0C5FE4FF0F2
:10023000000080F3118809BC19680868B0E8F04F25
:100240001EF0100F08BFB0EC108A80F30988BFF3CE
:100250006F8F70473C000020EFF30580704700006F
:100260000648804706480047FEE7FEE7FEE7FEE750
:10027000FEE7FEE7FEE7FEE7FEE7FEE7F5240008FF
:10028000890100082DE9F05F0546002092469B4653
:1002900088460646814640241BE02846414647469C
:1002A000224600F0C5F853465A46C01A914110D371
:1002B00011461846224600F0ACF82D1A67EB0108EB
:1002C0004F4622460120002100F0A3F817EB000959
:1002D0004E41201EA4F10104DFDC484631462A4687
:1002E0004346BDE8F09F00000649074A08685043AE
:1002F00043F2390210440860400870470149086021
:1003000070470000840100206D4EC64110B5431AAD
:10031000934209D28318881803E010F8011D03F8EE
:10032000011D521EF9D210BD40EA01039B0703D004
:1003300009E008C9121F08C0042AFAD203E011F824
:10034000013B00F8013B521EF9D210BDD2B201E0D0
:1003500000F8012B491EFBD270470022F6E710B5CA
:1003600013460A4604461946FFF7F0FF204610BD23
:10037000CAB2401E10F8011F8A4202D00029F9D1EA
:1003800000207047421C10F8011B0029FBD1801A85
:10039000704710B5002200E0521C835C8C5CA342C5
:1003A00001D1002BF8D1D8B2E1B2401A10BD30B55E
:1003B00004460020034600E05B1C934203D2E05C4D
:1003C000CD5C401BF8D030BD30B50546002003465B
:1003D00000E05B1C934205D2EC5CC85C201A01D1A2
:1003E000002CF6D130BD30B50B460146002020224E
:1003F000012409E021FA02F59D4205D303FA02F532
:10040000491B04FA02F52844151EA2F10102F1DC91
:1004100030BD202A04DB203A00FA02F100207047A8
:100420009140C2F1200320FA03F319439040704732
:10043000202A04DB203A21FA02F00021704721FA39
:1004400002F3D040C2F120029140084319467047A0
:10045000064C074D06E0E06840F0010394E8070011
:1004600098471034AC42F6D3FFF792FEE0440108FF
:100470000045010870B58C1810F8015B15F00703F2
:1004800001D110F8013B2A1106D110F8012B03E02D
:1004900010F8016B01F8016B5B1EF9D12B0705D435
:1004A0000023521E0DD401F8013BFAE710F8013B7E
:1004B000CB1A921C03E013F8015B01F8015B521E9A
:1004C000F9D5A142D8D3002070BD00BFFEE7704728
:1004D000016801F58051896921F00202016801F586
:1004E00080518A617047016801F58051896941F046
:1004F0000202016801F580518A617047016801F5C7
:100500008051896921F40052016801F580518A61A6
:100510007047016801F58051896941F40052016812
:1005200001F580518A61704708B508490968C90812
:100530004FF47A72B1FBF2F14143009100BF00BF6A
:1005400000994A1E00920029F9D108BD3800002008
:1005500038B5044600200090206800F5805080697E
:1005600040F48011206800F580508161206800F51A
:100570008050806900900120FFF7D6FF0099206825
:1005800000F58050816138BD10B5024800F02EFBA7
:1005900010BD0000C834002030B5034614795579E9
:1005A00044EA0520084C0C442064D478240695784D
:1005B00044EA0544557844EA0524157844EA0500E0
:1005C000014C0C44606430BD0080024070B5AEB098
:1005D00004460E46002526B14FF40061E160C900D3
:1005E000A160002011901290139014901590169015
:1005F000E06918B94FF48060179001E0002017906F
:100600004FF400701890002019901A901B901C90C5
:100610001D9040201E9000201F902090219022903D
:1006200023902490259026908020279000202890C9
:1006300029902A902B902C902D9020680568714865
:100640000540DDE911010843139908431499084353
:10065000A16808431599084316990843E1680843BF
:100660001799084318990843199908431A99084398
:100670001B99084305432068056020680568012030
:1006800000F01AF920680560DDE91C0108431E9995
:1006900008431F9908432099084321990843229948
:1006A0000843239908432168486020684568012071
:1006B00000F002F920684560249821688860259838
:1006C0002168C860206885694FF641700540DDE902
:1006D000261040EA014028990843299908432A999D
:1006E00008432B9908430543206885612068856984
:1006F000012000F0E1F820688561DDE92C01084364
:100700002168C8612068C569012000F0D5F820681B
:10071000C561002001904FF000700290002003900E
:100720004FF4001004900020059006900790089068
:1007300004200990C0050A9040120B9080010C9093
:1007400040120D9080200E9000200F901090206895
:1007500000F5805085692C480540DDE9010108431A
:1007600003990843049908430599084306990843E7
:1007700007990843089908430999084305432068E5
:1007800000F580508561206800F580508569012062
:1007900000F092F8206800F580508561DDE90A01DB
:1007A00008430C9908430D9908430E9908430F9983
:1007B00040EA81001099084340F40001206800F5E8
:1007C00080500160206800F580500568012000F02D
:1007D00073F8206800F580500560A069012809D1F0
:1007E000206800F58050C06908490843216801F578
:1007F0008051C861002120466269FFF7CDFE2EB00E
:1008000070BD00000F8120FF233FDEF84000010093
:1008100038B50446002000902068006820F00400ED
:10082000216808602068006800900120FFF77CFEC6
:1008300000982168086038BD38B504460020009053
:100840002068006840F004002168086020680068A3
:1008500000900120FFF768FE00982168086038BD0D
:1008600038B50446002000902068006820F0080099
:10087000216808602068006800900120FFF754FE9E
:1008800000982168086038BD38B504460020009003
:100890002068006840F0080021680860206800684F
:1008A00000900120FFF740FE00982168086038BDE5
:1008B00072B600BFFEE7000070B5044600F070FE9F
:1008C00006462546681C10B104480078054400BF60
:1008D00000F066FE801BA842FAD370BD34000020F1
:1008E00070B505460C46002600BF95F84500012866
:1008F00001D1022070BD012085F8450000BF022013
:1009000085F84400002C6DD02868066843480640EE
:10091000D4E900010843A1680843E1680843A968D5
:1009200008432169084361690843E9680843A169EC
:100930000843E1690843216A0843616A0843A16AE0
:100940000843064328680660286806680120FFF708
:10095000B3FF28680660D4E90B010843616B0843C4
:10096000A16B0843E16B0843216C0843616C0843A9
:10097000A16C084329684860286846680120FFF791
:100980009BFF28684660E06C29688860206D2968B4
:10099000C860286886694FF641700640B4F8541064
:1009A000A06D40EA0140E16D0843216E0843616E8D
:1009B0000843A16E08430643286886612868866953
:1009C0000120FFF779FF28688661D4E91B010843FD
:1009D0002968C8612868C6690120FFF76DFF28688B
:1009E000C66110E02868066826F49046D5E9020141
:1009F0000843064328680660286806680120FFF758
:100A00005BFF28680660012085F8440000BF0020D5
:100A100085F8450000BF00BF6CE700000F8120FF94
:100A200070B504460D461646002200BF94F84500F6
:100A3000012801D1022070BD012084F8450000BFCB
:100A4000022084F84400A56200221FE005EB421159
:100A50004FF00040086044F2F4504860C2EBC2100E
:100A600000EB400006EB80008860A069012803D1FC
:100A7000486820F000404860581E904204D905EBB9
:100A800042102030C86000E0CD60521C9A42DDD395
:100A9000206800F58050C560012084F8440000BF44
:100AA000002084F8450000BF00BFC4E770B50446CD
:100AB0000D461646002200BF94F84500012801D1DA
:100AC000022070BD012084F8450000BF022084F898
:100AD0004400E56200221BE005EB42114FF4801058
:100AE0000860C2EBC21000EB400006EB800088609B
:100AF000E06918B9086840F440000860581E904248
:100B000004D905EB42102030C86000E0CD60521CD3
:100B10009A42E1D3206800F580500561012084F8F5
:100B2000440000BF002084F8450000BF00BFC8E7B4
:100B300070470146002200BF91F84500012801D10D
:100B400002207047012081F8450000BF022081F893
:100B500044003AE0521C886A006800F44070B0F526
:100B6000007F07D1886A086301238B63886AC068A5
:100B700088622AE0886A006800F4407030B9886BA7
:100B8000401C8863886AC06888621EE08B6A4B6379
:100B9000886B401C8863886B012801D1886A0863D0
:100BA000886A0068C0F30D40001FC863086B836843
:100BB0000B64886AC0688862012081F8440000BF25
:100BC000002081F8450000BFBBE7886A006800F09C
:100BD000004008B9042ABDD3012081F8440000BFB9
:100BE000002081F8450000BF0120AAE710B50446A7
:100BF000206800F58050406900F0400040280FD187
:100C0000204600F089FA4021206800F580504161BB
:100C1000012084F8440000BF002084F8450016E05D
:100C2000206800F58050406900F0010078B120464E
:100C300000F06DFB0121206800F58050416101202A
:100C400084F8440000BF002084F8450000BF4FF442
:100C50008031206800F580504161206800F58050A7
:100C6000406900F40040B0F5004F10D12046FFF776
:100C70005FFF4FF40041206800F580504161012082
:100C800084F8440000BF002084F8450000BF10BD78
:100C90002DE9FC4104460025002001909D4E0027CF
:100CA000804614B90120BDE8FC8194F8440028B9BD
:100CB000002084F84500204600F03AF900BF0020EB
:100CC00000909548006840F48040934908600846C9
:100CD000006800F48040009000BF00BF8F480068AB
:100CE00020F400008D49086008460068216A084326
:100CF0008A490860206800F58050006840F00101D2
:100D0000206800F58050016000F04AFC07460FE0C3
:100D100000F046FCC01BB0F5FA7F09D9032084F827
:100D2000440000BF002084F8450000BF0320BAE75C
:100D3000206800F58050006800F001000028E7D12D
:100D40002068056925F01C0500F010FE0646744871
:100D5000864205D37348864202D245F008051AE060
:100D60007048864205D36B48864202D245F00C0596
:100D700011E06848864203D36B48864200D20AE0FD
:100D80006948864205D36948864202D245F0040587
:100D900001E045F01005206805614FF40042002194
:100DA000204600F0B5FA48B14FF001084146204610
:100DB000FFF70CFC012084F8440074E7FF20FFF7E4
:100DC0007BFD6068002871D000F0EAFB074600BF99
:100DD00001AA0121204600F055F900F0E1FBC01BFB
:100DE00041F2883188420FD94FF001084146204630
:100DF000FFF7ECFB012084F8440000BF002084F8DA
:100E0000450000BF03204EE7019800F004000428CD
:100E1000DED182020021204600F07AFA48B14FF07C
:100E2000010841462046FFF7D1FB012084F8440029
:100E300039E700F0B5FB074600BF01AA01212046B3
:100E400000F020F900F0ACFBC01B41F28831884271
:100E50000FD94FF0010841462046FFF7B7FB0120AC
:100E600084F8440000BF002084F8450000BF032040
:100E700019E7019800F020002028DED101AA1F21E7
:100E8000204600F0FFF848B14FF0010841462046E7
:100E9000FFF79CFB012084F8440004E7019800F070
:100EA000100020B14FF40061E16002E00DE000218C
:100EB000E160019800F00400042802D10021A16043
:100EC0001EE04FF48041A1601AE0E068C0F3CF005B
:100ED000A168C1F34F0140EA01020021204600F061
:100EE00017FA48B14FF0010841462046FFF76EFB64
:100EF000012084F84400D6E640F6FF70FFF7DCFCE2
:100F000041462046FFF762FB012084F844000020A0
:100F1000C9E60000008793034438024004380140CA
:100F2000002D3101C00E160200E1F50580D1F00858
:100F300010B586B00446142101A8FFF70EFA4C49FB
:100F4000206888427ED100BF00BF00200090494841
:100F5000006840F00070474908600846006800F0EB
:100F60000070009000BF00BF00BF00200090084646
:100F7000006840F0806008600846006800F080600B
:100F8000009000BF00BF00BF00200090084600682E
:100F900040F0006008600846006800F000600090C3
:100FA00000BF00BF00BF00BF0020009008460068DF
:100FB00040F0040008600846006800F0040000905B
:100FC00000BF00BF00BF002000900846006840F04E
:100FD000010008600846006800F00100009000BFB2
:100FE00000BF00BF002000900846006840F00200EB
:100FF00008600846006800F00200009000BF00BFD3
:1010000032200190022002900020039003200490DF
:101010000B20059001A9184800F0C2F98620019024
:101020000220029000200390032004900B200590E2
:1010300001A9124800F0B4F94FF460500190022069
:10104000029000E011E000200390032004900B20A8
:10105000059001A90A4800F0A3F9002205213D20CE
:1010600000F04EFB3D2000F03BFB06B010BD000041
:101070000080024030380240000802400000024078
:10108000000402402DE9F04104460E4617460025B3
:10109000A84694F84400822802D10220BDE8F081DD
:1010A000822084F844002068056905F01C05208A28
:1010B0004FF4784101EAC0200543481100EA861048
:1010C000054325F0020545F001052068056100F0A3
:1010D00067FA804612E000F063FAA0EB0800B0F572
:1010E000803F09D3012084F8440000BF002084F829
:1010F000450000BF0320D1E72068056905F0010025
:101100000028E8D12068406980B23860012084F866
:1011100044000020C2E7000010B504460248006801
:1011200006F0B6FD10BD00000400002010B5044616
:1011300000BF94F84500012801D1022010BD012014
:1011400084F8450000BF022084F844002046FFF7E1
:101150009BFB2046FFF770FB2046FFF7F9F920467E
:10116000FFF7D7F92046FFF7BEF9012084F84400C5
:1011700000BF002084F8450000BF00BFDEE710B5C7
:10118000044600BF94F84500012801D1022010BD9B
:10119000012084F8450000BF022084F84400204666
:1011A000FFF7ACF92046FFF793F92046FFF730FB35
:1011B0002046FFF7CDF92046FFF752FB012084F8C7
:1011C000440000BF002084F8450000BF00BFDEE7F8
:1011D00070B5024600230025002400BF92F84500A8
:1011E000012801D1022070BD012082F8450000BF16
:1011F000022082F8440049B9012082F8440000BF6F
:10120000002082F8450000BF0120ECE7D06A0068AA
:1012100000F0004048B1122082F8440000BF0020D6
:1012200082F8450000BF0120DDE740F2F450814222
:1012300008D9B1FBF0F3B1FBF0F600FB161010B1CA
:101240005B1C00E00123012B13D1D06A006840F041
:101250004050D66A3060C1F30C00D66A7060D06A24
:10126000006840F00040D66A3060D06AC068D06242
:1012700032E000242EE0D06A006820F04050D66AA8
:1012800030602CB9D06A006840F08050D66A306077
:1012900040F2F450D66A7060581EA04210D1D06A55
:1012A000006840F00050D66A3060581EC0EBC01095
:1012B00000EB4000A1EB8005C5F30C00D66A70601E
:1012C000D06A006840F00040D66A3060D06AC068DA
:1012D000D062641C9C42CED3106800F580504069F7
:1012E00000F0040048B10426106800F58050466103
:1012F0000026106800F580504660012082F8440006
:1013000000BF002082F8450000BF00BF6BE77047B8
:101310002DE9F04104460E4617460025A84694F8EC
:101320004400422802D10220BDE8F081422084F826
:1013300044002068056905F01C05208A4FF47841B7
:1013400001EAC0200543481100EA8610054345F034
:10135000020545F00105B8B22168486120680561C1
:1013600000F01EF9804612E000F01AF9A0EB080028
:10137000B0F5803F09D3012084F8440000BF00206D
:1013800084F8450000BF0320CEE72068056905F01A
:1013900001000028E8D1012084F844000020C3E7C0
:1013A000F8B502460B460025002400200021DCE0B1
:1013B000012606FA01F51E6806EA0504AC4273D15F
:1013C0005E68012E08D05E68022E05D05E68112E80
:1013D00002D05E68122E13D190684F000326BE40E3
:1013E000B0434F00DE68BE40304390605068012635
:1013F0008E40B0431E79C6F300168E4030435060D5
:10140000D0684F000326BE40B0434F009E68BE40E8
:101410003043D0605E68022E02D05E68122E13D177
:10142000CF0802F1200656F827004E07F70E0F26C8
:10143000BE40B0434F07FF0E1E69BE403043CF0889
:1014400002F1200646F8270010684F000326BE4030
:10145000B0431E7906F003064F00BE4030431060D3
:101460005E6806F08056B6F1805F7DD100BF002631
:101470000096404E366846F480463E4F3E603E46FB
:10148000366806F48046009600BF00BF3A4E8F08CB
:1014900056F827008E07370F0F26BE40B043374E51
:1014A000B24202D1002624E05EE0354EB24201D1C4
:1014B00001261EE0334EB24201D1022619E0324E1F
:1014C000B24201D1032614E0304EB24201D10426CB
:1014D0000FE02F4EB24201D105260AE02D4EB24256
:1014E00001D1062605E02C4EB24201D1072600E0CC
:1014F00008268F073F0FBE4030431F4E8F0846F827
:101500002700264E3068A0435E6806F48036B6F5A4
:10151000803F00D12043214E3060361D3068A0430B
:101520005E6806F40036B6F5003F00D120431B4E3E
:10153000361D3060361D3068A0435E6806F48016A4
:10154000B6F5801F00D12043144E08363060361D9A
:101550003068A0435E6806F40016B6F5001F00D19F
:1015600020430E4E0C363060491C1029FFF420AF8A
:10157000F8BD000044380240083801400000024035
:101580000004024000080240000C0240001002402B
:101590000014024000180240001C0240003C0140C0
:1015A00001480068704700002C00002003480068D4
:1015B0000349097808440149086070472C0000205D
:1015C0003400002010B50D48006840F400700B494D
:1015D00008600846006840F48060086008460068BB
:1015E00040F480700860032000F0C8F8002000F08C
:1015F00007F800F04BF8002010BD0000003C02404E
:1016000070B588B004460025002600222146192026
:1016100000F076F8192000F063F800BF0020019078
:101620001648006840F00100144908600846006848
:1016300000F00100019000BF00BF02A903A800F064
:1016400073F900F099F945000D48B5FBF0F0461E1E
:101650000C480D49086040F2E7310B48C160466014
:1016600000210161816000F035FC20B9064800F0DE
:101670004CFC08B070BD0120FBE70000443802407C
:1016800040420F0000000140E803002008B500BF01
:10169000002000901148006840F480400F49086025
:1016A0000846006800F48040009000BF00BF00BF03
:1016B00000200090081F006840F08050091F08605B
:1016C0000846006800F08050009000BF00BF002274
:1016D0000F21901E00F014F808BD000044380240AD
:1016E00001460846002809DB00F01F0301229A404A
:1016F00043099B0003F1E023C3F8002100BF7047BA
:101700002DE9F05F80460D461646002700F086FF63
:10171000074639462A46334601F00700C0F1070A5A
:10172000BAF1040F02D94FF0040A01E0C0F1070A30
:10173000D14600F1040ABAF1070F02D24FF0000AB5
:1017400001E0A0F1030AD4464FF0010A0AFA09FAAF
:10175000AAF1010A0AEA020A0AFA0CFA4FF0010B8E
:101760000BFA0CFBABF1010B0BEA030B4AEA0B047F
:101770002146404600F05AFFBDE8F09F00BF00F050
:101780000702064B19684FF6FF031940044B0B4341
:1017900043EA0221014B196000BF70470CED00E0E5
:1017A0000000FA0570B504460D460CB9012070BD65
:1017B0005848006800F00F00A84209D255490D7042
:1017C0000846006800F00F00A84201D00120EEE7B3
:1017D000207800F0020002281DD1207800F00400DB
:1017E000042805D14C48006840F4E0504A4908609C
:1017F000207800F00800082805D14748006840F428
:101800006040454908604448006820F0F000A16845
:10181000084341490860207800F00100A8B36068DF
:10182000012807D13C4808380068C0F34040B8B9E7
:101830000120BCE76068022802D06068032807D155
:10184000354808380068C0F3406048B90120AEE769
:10185000314808380068C0F3400008B90120A6E705
:101860002D48006820F00300616808432A49086099
:10187000FFF796FE064609E0FFF792FE801B41F255
:101880008831884202D9032091E707E022480068A6
:1018900000F00C006168B0EB810FEDD11D480068CD
:1018A00000F00F00A84209D91A490D7008460068D7
:1018B00000F00F00A84201D0012078E7207800F066
:1018C0000400042807D11448006820F4E050E168BF
:1018D000084311490860207800F00800082808D162
:1018E0000D48006820F46040216940EAC1000A49BF
:1018F000086000F051F808490968C1F30311074A6C
:10190000515CC8400649086006480068FFF778FE49
:1019100000204CE7003C024008380240D833010860
:1019200038000020300000200F2202600D4A1268AB
:1019300002F0030242600B4A126802F0F002826079
:10194000084A126802F4E052C260064A126802F4C1
:101950006042D2080261044A126802F00F020A6073
:101960007047000008380240003C0240014800680F
:10197000704700003800002000B5FFF7F7FF04496A
:101980000968C1F34231034A515CC84000BD000000
:1019900008380240E83301082DE9F047002400250B
:1019A0000026A1462548006800F00C0020B104285C
:1019B00005D008283AD105E0DFF8849039E0DFF857
:1019C000849036E01D48001F006800F03F041B486B
:1019D000001F006800F4800078B11A481749091FF9
:1019E0000968C1F38811A0FB01700146224600235B
:1019F0003846FEF747FC05460EE011480F49091F1F
:101A00000968C1F38811A0FB01700146224600233A
:101A10003846FEF737FC05460848001F0068C0F34B
:101A20000140401C4600B5FBF6F902E0DFF81090DB
:101A300000BF00BF4846BDE8F087000008380240FC
:101A40000024F40040787D01F8B504460CB901206B
:101A5000F8BD207800F00100002874D0F948006833
:101A600000F00C0004280DD0F648006800F00C00CF
:101A7000082813D1F348001F006800F48000B0F577
:101A8000800F0BD1EF4808380068C0F340400028B1
:101A900059D06068002856D10120D9E700BF60689E
:101AA000B0F5803F08D1E7480838006840F480303E
:101AB000E449083908601EE06068B0F5A02F0DD138
:101AC000E0480838006840F48020DE4908390860A2
:101AD0000846006840F4803008600CE0D9480838B7
:101AE000006820F48030D74908390860084600684B
:101AF00020F48020086000BF606890B1FFF750FDBF
:101B0000054606E0FFF74CFD401B642801D9032081
:101B10009EE7CC4808380068C0F340400028F1D068
:101B200011E0FFF73DFD054606E0FFF739FD401BDC
:101B3000642801D903208BE7C24808380068C0F345
:101B400040400028F1D1207800F0020002285FD147
:101B5000BC48006800F00C0058B1BA48006800F0BA
:101B60000C0008281CD1B748001F006800F4800052
:101B7000B0B9B44808380068C0F3400020B1E0684C
:101B8000012801D0012063E7AE480838006820F042
:101B9000F800216940EAC100AA490839086037E025
:101BA000E06800B30120A8490860FFF7F9FC05468A
:101BB00006E0FFF7F5FC401B022801D9032047E7A8
:101BC000A04808380068C0F340000028F1D09D48C4
:101BD0000838006820F0F800216940EAC1009949FE
:101BE0000839086014E0002097490860FFF7D8FC26
:101BF000054606E0FFF7D4FC401B022801D903206C
:101C000026E7904808380068C0F340000028F1D16A
:101C1000207800F0080008282CD16069A8B10120C4
:101C20008A490860FFF7BCFC054606E0FFF7B8FCF0
:101C3000401B022801D903200AE782486C30006863
:101C4000C0F340000028F1D014E000207F49086074
:101C5000FFF7A6FC054606E0FFF7A2FC401B0228A2
:101C600001D90320F4E677486C300068C0F34000E7
:101C70000028F1D1207800F00400042870D100275A
:101C800070483830006800F0805090B900BF0020E4
:101C900000906C483830006840F080506949383115
:101CA00008600846006800F08050009000BF00BF48
:101CB00001276748006800F48070B0B96448006884
:101CC00040F4807062490860FFF76AFC054606E050
:101CD000FFF766FC401B022801D90320B8E65C48E8
:101CE000006800F480700028F2D000BFA0680128CE
:101CF00008D154486830006840F00100514968310B
:101D000008601DE0A06805280DD14E4868300068C5
:101D100040F004004B49683108600846006840F014
:101D2000010008600CE047486830006820F00100BE
:101D30004449683108600846006820F004000860E3
:101D400000BFA068A8B1FFF72BFC054609E0FFF72C
:101D500027FC401B41F28831884202D9032077E6F4
:101D600026E0384868300068C0F340000028EED014
:101D700013E0FFF715FC054608E0FFF711FC401BD8
:101D800041F28831884201D9032061E62D4868304C
:101D90000068C0F340000028EFD1012F07D1294887
:101DA0003830006820F0805026493831086000BF84
:101DB000A069002845D02348006800F00C000828DE
:101DC0005DD0A069022845D100201F490866FFF7B1
:101DD000E7FB054606E0FFF7E3FB401B022801D9BD
:101DE000032035E6174808380068C0F34060002833
:101DF000F1D1D4E907010843616A40EA8111012267
:101E0000A06AC2EB500041EA00412C20005D41EA8B
:101E100000600C49091F086001200B490866FFF7A4
:101E2000BFFB054606E0FFF7BBFB401B022801D9BC
:101E300003200DE6034808380068C0F3406000281E
:101E4000F1D03FE00838024000004742800E474290
:101E50000070004000201C490866FFF7A1FB054602
:101E600006E0FFF79DFB401B022801D90320EFE5A8
:101E700016480068C0F340600028F2D122E0A06953
:101E8000012800D1E4E51148001D066806F4800130
:101E9000E069814214D106F03F01206A81420FD1EE
:101EA00047F6C0703040616A884209D106F440317B
:101EB000A06A814204D106F07061E06A814201D0DB
:101EC0000120C5E50020C3E500004742003802407C
:101ED0007047704710B504460CB9012010BD94F846
:101EE0003D0028B9002084F83C00204600F00CF8A2
:101EF000022084F83D00211D206800F011FB012024
:101F000084F83D000020E9E7704701460868C06892
:101F100040F001000B68D8600868806800F0070294
:101F2000062A05D00868006840F001000B681860B8
:101F300000207047704710B5044620680069C0F360
:101F40004000D8B12068C068C0F34000B0B16FF065
:101F5000020021680861012020772068806900F074
:101F6000030018B12046FFF7E5FF05E0204600F02A
:101F7000ADF8204600F0ABF800202077206800691B
:101F8000C0F38000D8B12068C068C0F38000B0B151
:101F90006FF00400216808610220207720688069C2
:101FA00000F4407018B12046FFF7C4FF05E020465A
:101FB00000F08CF8204600F08AF800202077206896
:101FC0000069C0F3C000D8B12068C068C0F3C00089
:101FD000B0B16FF008002168086104202077206804
:101FE000C06900F0030018B12046FFF7A3FF05E029
:101FF000204600F06BF8204600F069F800202077BA
:1020000020680069C0F30010D8B12068C068C0F330
:102010000010B0B16FF0100021680861082020772F
:102020002068C06900F4407018B12046FFF782FFB5
:1020300005E0204600F04AF8204600F048F800206D
:1020400020772068006900F0010058B12068C0685E
:1020500000F0010030B16FF00100216808612046F6
:1020600000F036F820680069C0F3C01058B120684D
:10207000C068C0F3C01030B16FF080002168086103
:102080002046FFF725FF20680069C0F3801058B193
:102090002068C068C0F3801030B16FF04000216844
:1020A0000861204600F020F820680069C0F3401065
:1020B00058B12068C068C0F3401030B16FF0200004
:1020C000216808612046FFF704FF10BD7047704784
:1020D00010B5044603492068884201D1FFF766FA2B
:1020E00010BD000000000140704700BFFEE7000087
:1020F00008B500BF002000901548006840F00400BB
:10210000134908600846006800F00400009000BF12
:1021100000BF00BF002000900846006840F00100AA
:1021200008600846006800F00100009000BF00BF92
:1021300000BF002000900846006840F002000860E0
:102140000846006800F00200009000BF00BF08BD14
:10215000303802400EB5C02094490870A82048705D
:1021600064208870C870FF2091490870487088709A
:102170000020C870C0208F490870A82048706420D3
:102180008870FA20C870002108460EF0A1FF874829
:10219000007800068549497840EA014083498978FA
:1021A00040EA01208149C978084302067F48007847
:1021B00000067E49497840EA01407C49897840EA36
:1021C00001207A49C978084300F47F4042EA00229E
:1021D0007648007800067549497840EA014173481D
:1021E000807841EA00207149C978084300F47F00F3
:1021F00042EA10226D48007801066C48407841EAB6
:1022000000416A48807841EA00206849C97808435B
:1022100042EA106068490860654800780006644931
:10222000497840EA01406249897840EA01206049E2
:10223000C978084302065E48007800065C49497880
:1022400040EA01405A49897840EA01205849C97852
:10225000084300F47F4042EA002255480078000617
:102260005349497840EA01415148807841EA0020C9
:102270004F49C978084300F47F0042EA10224C48D5
:10228000007801064A48407841EA00414848807891
:1022900041EA00204649C978084342EA10604749AC
:1022A00008604448007800064249497840EA014005
:1022B0004049897840EA01203E49C978084302062E
:1022C0003C48007800063B49497840EA01403949DA
:1022D000897840EA01203749C978084300F47F40F3
:1022E00042EA00223348007800063249497840EA41
:1022F00001413048807841EA00202E49C9780843DE
:1023000000F47F0042EA10222A480078010629489A
:10231000407841EA00412748807841EA0020254979
:10232000C978084342EA10602549086025482649D3
:102330000022234BCDE900210290204A1E49234868
:1023400004F098FD214805F007F8204890F82D008A
:10235000C0F3800018B11D4805F03EF902E01B48AB
:1023600005F000F81A49194805F062F80022012129
:10237000084605F019FC174908601448164908601A
:1023800014480068486024211448FDF7E6FF14A0B3
:10239000124908604FF480604861102088610A4645
:1023A0000D49114805F0AEFC0EBD000020000020D4
:1023B0002400002028000020140000201800002025
:1023C0001C000020C9120108753A000810350020D1
:1023D000B53B0008080000200C0000204435002018
:1023E0004C696E6B546872005D3B000800BFFEE7ED
:1023F00000BFFEE7FFF7AEFE02F0CCF900BF012000
:1024000005F04AF9FBE7000010B500BF502080F34B
:102410001188BFF34F8FBFF36F8F00BF10F038FDEF
:1024200018B14FF080500449086000BF002080F3CD
:10243000118800BF10BD000004ED00E000B593B0AE
:10244000302107A8FDF789FF142102A8FDF785FFB9
:1024500000BF002001902548006840F080502349CB
:1024600008600846006800F08050019000BF00BF7F
:1024700000BF002001901E48006840F480401C49C5
:1024800008600846006800F48040019000BF00BF6B
:102490000220079001200A9010200B9002200D903E
:1024A00000210E9108210F91A82110910221119174
:1024B0000421129107A8FFF7C7FA08B1FEF7F8F94F
:1024C0000F20029002200390002004904FF4A050AF
:1024D00005904FF480500690052102A8FFF762F99D
:1024E00008B1FEF7E5F913B000BD00004038024026
:1024F000007000400548006840F47000034908601F
:102500004FF00060014980390860704788ED00E0B5
:1025100010B50248FFF70FFD10BD0000E8030020D2
:1025200010B50268294B98420ED0B0F1804F0BD005
:10253000274B984208D0274B984205D0264B98420B
:1025400002D0264B984203D122F070024B681A4306
:102550001E4B984220D0B0F1804F1DD01C4B9842AA
:102560001AD01C4B984217D01B4B984214D01B4BCF
:10257000984211D01A4B98420ED01A4B98420BD069
:10258000194B984208D0194B984205D0184B9842E5
:1025900002D0184B984203D122F44072CB681A4300
:1025A00022F080034C6943EA040202608B68C36234
:1025B0000B688362054B984202D0084B984201D1C8
:1025C0000B6903630123436110BD0000000001405B
:1025D0000004004000080040000C004000040140DE
:1025E0000040014000440140004801400018004004
:1025F000001C00400020004000BFFEE70FB4054B68
:1026000010B503A9044A029800F03CF810BC5DF82C
:1026100014FB0000893C0008880100200248006883
:10262000C0F30220704700000CED00E010B5002858
:1026300004DB0A07130E054A135406E00A07140EBA
:10264000034A00F00F031B1FD45410BD00E400E048
:1026500018ED00E0EFF311807047EFF3058070474D
:10266000EFF31080704702E008C8121F08C1002A6B
:10267000FAD170477047002001E001C1121F002A03
:10268000FBD170472DE9FF4F8BB09A460F460546A8
:10269000002606E025280BD052460D9990476D1C68
:1026A000761C28780028F5D10FB03046BDE8F08FB1
:1026B0000024A0460122604900E0044315F8013FD0
:1026C000203B02FA03F00842F7D128782E2817D1D0
:1026D00015F8010F44F004042A280ED06FF02F02E1
:1026E0002878A0F1300109290AD808EB880102EB0B
:1026F000410100EB01086D1CF2E757F8048B6D1CDB
:10270000287869283ED006DC0028CDD063280BD07D
:10271000642804D136E0732810D075284BD0524677
:102720000D999047761C85E017F8040B8DF8000092
:1027300000208DF80100E946012003E057F8049BD2
:102740004FF0FF3061074FF0000401D40AE0641C31
:1027500044450DDA8442FADB19F804100029F6D159
:1027600006E0641C8442FCDB19F804100029F8D14F
:10277000264404E019F8010B52460D999047641E57
:10278000F8D257E001CF4FF00A0B002802DA40429E
:102790002D2102E0210504D52B218DF824100121E3
:1027A00003E0E10705D02021F7E70DF120090891AA
:1027B0000CE00021F9E701CF4FF00A0BF9E7594689
:1027C000FDF711FE01F1300209F8012D0028F6D1C4
:1027D000ADEB090000F1200B600701D44FF00108B8
:1027E000D84502DDA8EB0B0000E000208046002465
:1027F00006E009A85246005D0D999047641C761CBE
:1028000008988442F5DB04E0302052460D99904749
:10281000761CB8F10001A8F10108F5DC05E019F813
:10282000010B52460D999047761CBBF10001ABF1AC
:10283000010BF4DC6D1C34E7092801002DE9F0419F
:1028400004460D4600BF05F00300002808D000BF75
:102850000BA34FF4B67216A11DA0FFF7CFFE00BF69
:1028600000BF2E4607F098F90746A0680068306060
:10287000A0680660384607F09BF9BDE8F0810000CB
:102880002E2E2F4D6964646C6577617265732F54C9
:10289000686972645F50617274792F4C7749502F68
:1028A0007372632F636F72652F6D656D702E630099
:1028B0006D656D705F667265653A206D656D20703F
:1028C000726F7065726C7920616C69676E65640007
:1028D000417373657274696F6E20222573222066BE
:1028E00061696C6564206174206C696E6520256483
:1028F00020696E2025730A0070B5054607F04CF973
:102900000646A8680468002C16D02068A9680860EC
:1029100000BF04F00300002808D000BF09A34FF453
:102920008C7214A11CA0FFF769FE00BF00BF3046E7
:1029300007F03EF9204670BD304607F039F9002017
:10294000F9E700002E2E2F4D6964646C6577617283
:1029500065732F54686972645F50617274792F4C8B
:102960007749502F7372632F636F72652F6D656D9A
:10297000702E63006D656D705F6D616C6C6F633A96
:10298000206D656D702070726F7065726C7920615A
:102990006C69676E65640000417373657274696F7A
:1029A0006E2022257322206661696C656420617443
:1029B000206C696E6520256420696E2025730A00ED
:1029C00070B50546002411E004EB4400094901EB11
:1029D000C000067D4EB104EB440001EBC0008068EE
:1029E000A84202D1204600F087F9641C0A2CEBDBD8
:1029F00070BD000084B900202DE9FF5F06468946BE
:102A000017464FF00A0AD346D04600240A20039006
:102A1000002002900190009000BF73E004EB44009E
:102A2000764901EBC000057DB8F10A0F02D10DB95E
:102A3000A04665E0002D63D000BF012D0AD0022D15
:102A400008DA00BF6EA340F223127BA18AA0FFF731
:102A5000D5FD00BF00BFAEB104EB4401674A02EBF5
:102A6000C1013068496888420CD13FB104EB440091
:102A7000114601EBC0008068B84203D1204604B083
:102A8000BDE8F09F012D28D104EB44005B4951F8CB
:102A9000300080B104EB440001EBC000418A029891
:102AA00081422DDB039404EB4400544901EBC00048
:102AB000408A029024E004EB4400504901EBC0003E
:102AC000418A019881421BDBA24604EB44004B493A
:102AD00001EBC000408A019012E0022D10DB04EBF4
:102AE0004400464901EBC000418A0098814207DB5F
:102AF000A34604EB4400414901EBC000408A00902A
:102B0000601C04B20A2C89DB09F0020028B9B8F174
:102B10000A0F05D109F0010010B94FF0FF30AEE700
:102B2000B8F10A0F01DA444631E0BBF10A0F11DABD
:102B30005C4600BF04EB4400304951F8300040B11E
:102B400000BF2FA340F26D1255A14BA0FFF756FD19
:102B500000BF0CE0BAF10A0F01DA544607E003980F
:102B60000A2801DA039C02E04FF0FF3087E700BF3C
:102B70000A2C08DB00BF22A340F27F124EA13EA028
:102B8000FFF73CFD00BF00BF204600F0B5F800BFD6
:102B90000A2C08DB00BF1AA340F2831246A136A01C
:102BA000FFF72CFD00BF00BF00BF04EB440013493A
:102BB00001EBC000007D40B100BF11A34FF4C27211
:102BC00042A12DA0FFF71AFD00BF00BF36B104EBF4
:102BD00044010A4A02EBC10130684860002004EB5E
:102BE0004401064A02EBC101488204EB440011464D
:102BF00001EBC0008760204641E7000084B9002057
:102C00002E2E2F4D6964646C6577617265732F5445
:102C1000686972645F50617274792F4C7749502FE4
:102C20007372632F636F72652F697076342F6574CA
:102C3000686172702E6300007374617465203D3D9D
:102C4000204554484152505F53544154455F5045CC
:102C50004E44494E47207C7C207374617465203E4D
:102C60003D204554484152505F53544154455F53B1
:102C70005441424C45000000417373657274696FA2
:102C80006E2022257322206661696C656420617460
:102C9000206C696E6520256420696E2025730A000A
:102CA0006172705F7461626C655B695D2E71203D5D
:102CB0003D204E554C4C000069203C204152505F55
:102CC0005441424C455F53495A4500006172705F60
:102CD0007461626C655B695D2E7374617465203D1F
:102CE0003D204554484152505F53544154455F453F
:102CF0004D5054590000000010B5044604EB440048
:102D00000C4951F8300060B104EB4401094A52F813
:102D1000310005F075FD002004EB4401054A42F83E
:102D20003100002004EB4401024A02EBC1010875A6
:102D300010BD000084B90020F0B587B007460D46ED
:102D400000BF002D0AD100BF2EA340F28A223BA172
:102D50003EA0FFF753FC00BF07B0F0BD00BF7C688A
:102D60002088B0F5807F08D12079062805D16079C8
:102D7000042802D16088082803D0384605F040FDB9
:102D8000EAE7D4F80E000690A0690590686808B9D3
:102D9000002607E005986968884201D1012000E01B
:102DA000002006460EB1012000E00220034604F197
:102DB000080206A9284600F0CBFCE088B0F5807F29
:102DC00003D0B0F5007F15D113E086B1022206AB27
:102DD00004F10800291DCDE90232CDE9001005F10A
:102DE000260302462231284600F05CFB00E000BFCB
:102DF00001E000E000BF00BF384605F001FD00BF64
:102E0000AAE700002E2E2F4D6964646C657761720D
:102E100065732F54686972645F50617274792F4CC6
:102E20007749502F7372632F636F72652F697076C5
:102E3000342F6574686172702E6300006E6574696A
:102E40006620213D204E554C4C00000041737365B7
:102E50007274696F6E2022257322206661696C6529
:102E600064206174206C696E6520256420696E2081
:102E700025730A002DE9FE4304460F461546A94670
:102E800000BF002C08D100BF5DA340F21E326AA132
:102E90006DA0FFF7B3FB00BF00BF00BF47B900BF85
:102EA00057A340F21F3272A167A0FFF7A7FB00BF34
:102EB00000BF00BF002D08D100BF51A34FF44872DE
:102EC0006EA161A0FFF79AFB00BF00BF21462868F2
:102ED00001F015FF10B1DFF8B48186E0287800F02A
:102EE000F000E02816D101208DF8040000208DF8B4
:102EF00005005E208DF80600687800F07F008DF8F0
:102F00000700A8788DF80800E8788DF809000DF121
:102F1000040869E02868A1680840D4E9011211405A
:102F200088420ED0288880B24FF6A961884208D026
:102F3000E06810B104F10C0903E06FF00300BDE894
:102F4000FE835348007800EB4000524901EBC0007B
:102F5000007D02281BDB4E48007800EB400001EBAF
:102F6000C0008068A04212D14949097801EB4101B3
:102F7000484A02EBC101D9F800004968884206D1ED
:102F8000434802783946204600F086F8D7E7002605
:102F900022E006EB46003F4901EBC000007D02281D
:102FA00018DB06EB460001EBC0008068A04211D19F
:102FB00006EB4601374A02EBC101D9F80000496827
:102FC000884207D13248067032463946204600F022
:102FD00063F8B4E7701CC6B20A2EDADB3A464946FB
:102FE000204600F00DF9AAE700BF4FF40060434609
:102FF00004F1260239460090204600F0B9FC9EE715
:103000002E2E2F4D6964646C6577617265732F5441
:10301000686972645F50617274792F4C7749502FE0
:103020007372632F636F72652F697076342F6574C6
:10303000686172702E6300006E6574696620213DC0
:10304000204E554C4C000000417373657274696FDB
:103050006E2022257322206661696C65642061748C
:10306000206C696E6520256420696E2025730A0036
:103070007120213D204E554C4C0000006970616468
:10308000647220213D204E554C4C0000F033010865
:103090007001002084B90020F8B505460E4614469C
:1030A00000BF04EB4400314901EBC000007D022861
:1030B00008DA00BF2EA340F2EE223BA146A0FFF7A4
:1030C0009DFA00BF00BF04EB4400284901EBC0009B
:1030D000007D022839D104EB440001EBC000408A96
:1030E000B0F58E7F11DD04EB44000A4602EBC00010
:1030F000011D284600F09CFA38BB032004EB440174
:103100001A4A02EBC10108751FE004EB440017499D
:1031100001EBC000408AB0F5877F16DB04EB44006A
:103120000B4603EBC00000F10C0204EB440003EB80
:10313000C000011D284600F087FA30B9032004EBD7
:1031400044010A4A02EBC10108754FF40060009087
:1031500004EB4400054901EBC00000F10C0305F14C
:1031600026023146284600F003FCF8BD84B9002051
:103170002E2E2F4D6964646C6577617265732F54D0
:10318000686972645F50617274792F4C7749502F6F
:103190007372632F636F72652F697076342F657455
:1031A000686172702E6300006172705F7461626C9E
:1031B000655B6172705F6964785D2E7374617465BC
:1031C000203E3D204554484152505F5354415445A0
:1031D0005F535441424C4500417373657274696F8B
:1031E0006E2022257322206661696C6564206174FB
:1031F000206C696E6520256420696E2025730A00A5
:103200002DE9FE4F81460F46164609F1260A4FF07A
:10321000FF300290002001904946386801F06FFDB0
:1032200038B9387800F0F000E02802D00FB13868E3
:1032300018B96FF00F00BDE8FE8F4A4601213846ED
:10324000FFF7DAFB8046B8F1000F02DA4FFA88F098
:10325000F1E700BFB8F17F0F08D300BF5FA340F2D2
:10326000C1326CA16FA0FFF7C9F900BF00BF08F021
:10327000FF0404EB4400754901EBC000007D70B908
:103280000120019004EB4401704A02EBC101087572
:1032900004EB4400114601EBC000C0F8089000BFE9
:1032A00004EB4400694901EBC000007D01280FD008
:1032B00004EB440001EBC000007D022808DA00BFE7
:1032C00046A340F2CD3262A156A0FFF797F900BFA6
:1032D00000BF019800B93EB93946484600F0A8F948
:1032E00002900EB90298A6E700BF46B900BF3BA303
:1032F00040F2E13260A14BA0FFF780F900BF00BFB0
:1033000004EB4400514901EBC000007D022811DBB1
:103310005C4804704FF40060009004EB440001EB43
:10332000C00000F10C0352463146484600F020FB35
:10333000029050E004EB4400444901EBC000007DE2
:10334000012848D14FF0000B354618E000BF6889CE
:10335000298988420AD1286840B100BF1FA340F2E2
:10336000F13249A12FA0FFF749F900BF00BF287B28
:1033700000F0400010B14FF0010B02E02D68002D6D
:10338000E4D100BFBBF1000F07D032464FF42071EB
:103390000E2005F029F8054603E03546284605F0DD
:1033A00025FCA5B104EB4400284951F8300030B1A8
:1033B00004EB4401254A52F8310005F021FA04EBF0
:1033C0004400224941F830500020029002E04FF0C2
:1033D000FF30029000BF02982DE700002E2E2F4DE7
:1033E0006964646C6577617265732F54686972648F
:1033F0005F50617274792F4C7749502F7372632F2D
:10340000636F72652F697076342F657468617270AE
:103410002E63000074797065206F766572666C6F3C
:1034200077000000417373657274696F6E20222506
:103430007322206661696C6564206174206C696E1A
:103440006520256420696E2025730A0084B9002058
:103450006172705F7461626C655B695D2E7374612B
:103460007465203D3D2050454E44494E47206F72C3
:1034700020535441424C45007120213D204E554C73
:103480004C000000700100206E6F207061636B655E
:10349000742071756575657320616C6C6F776564F8
:1034A000210000002DE9FC5F06460F469046994634
:1034B000DDE90CAB0020019000BF002E08D100BF59
:1034C00031A340F257423EA141A0FFF797F800BF59
:1034D00000BF4FF420721C210E2004F0FBFC0546B7
:1034E0001DB94FF0FF30BDE8FC9F00BF68891C2864
:1034F00008DA00BF24A340F262423FA134A0FFF7E4
:103500007DF800BF00BF6C680F9802F00AFFE080F2
:1035100000BF96F82C00062808D000BF1AA340F27E
:10352000694242492AA0FFF769F800BF00BFD9F8F5
:103530000000A060B9F80400A081DBF80000C4F826
:103540001200BBF80400E082DAF80000C4F80E00B4
:103550000E980068A0614FF4807020800820608081
:10356000062020710420607140F6060043463A466A
:1035700029460090304600F0FBF9284605F040F956
:1035800000250198AFE700002E2E2F4D6964646C72
:103590006577617265732F54686972645F506172F8
:1035A00074792F4C7749502F7372632F636F726554
:1035B0002F697076342F6574686172702E63000015
:1035C0006E6574696620213D204E554C4C0000000C
:1035D000417373657274696F6E20222573222066B1
:1035E00061696C6564206174206C696E6520256476
:1035F00020696E2025730A00636865636B20746818
:1036000061742066697273742070627566206361EC
:103610006E20686F6C6420737472756374206574B7
:10362000686172705F686472000000009C44010869
:1036300070B504460D46034A2946204600F004F8BA
:1036400070BD0000F03301087FB504460D461646F4
:103650000121074A201D04F126038DE8250003916E
:10366000324619462046FFF71DFF04B070BD00002A
:10367000F633010870B5002464E004EB44003349DC
:1036800001EBC000057D002D5BD004EB440001EB95
:10369000C000408A401C04EB44012C4A02EBC101EB
:1036A000488204EB4400114601EBC000408AB0F5AB
:1036B000967F0DDA04EB440001EBC000007D012889
:1036C0000AD104EB440001EBC000408A052803DB6B
:1036D0002046FFF711FB34E004EB44001B4901EBEB
:1036E000C000007D032807D1042004EB4401174AE1
:1036F00002EBC101087524E004EB4400134901EB1F
:10370000C000007D042807D1022004EB44010F4AC9
:1037100002EBC101087514E004EB44000B4901EB16
:10372000C000007D01280CD104EB44020B4603EBE2
:10373000C202111D04EB440203EBC2029068FFF7C2
:1037400077FF641C0A2C98DB70BD000084B9002050
:103750002DE9F84305460E461746984600BF95F8F2
:103760002C00062808D000BF2EA340F2A9123BA1CE
:1037700043A0FEF743FF00BF00BF5EB1306848B111
:103780002946306801F0BBFA20B9307800F0F0002B
:10379000E02803D16FF00F00BDE8F8832A464146C8
:1037A0003046FFF729F90446002C01DA60B2F3E74E
:1037B000022004EB44013C4A02EBC101087504EB12
:1037C0004400114601EBC000856004EB440001EBAE
:1037D000C0003968C160B9880182002004EB44014F
:1037E00002EBC101488204EB4400114651F830005D
:1037F000B0B104EB440051F83090002004EB4401D8
:1038000042F831004FF400603B4605F1260249467C
:103810000090284600F0ACF8484604F0F1FF00BFE5
:103820000020B9E72E2E2F4D6964646C65776172B4
:1038300065732F54686972645F50617274792F4C9C
:103840007749502F7372632F636F72652F6970769B
:10385000342F6574686172702E6300006E65746940
:10386000662D3E6877616464725F6C656E203D3DD5
:10387000204554485F4857414444525F4C454E00F0
:10388000417373657274696F6E20222573222066FE
:1038900061696C6564206174206C696E65202564C3
:1038A00020696E2025730A0084B900202DE9F041BB
:1038B00004460E464FF00E0860890E2800DC4FE0EB
:1038C000E07B18B996F83000401CE0736568AF895A
:1038D000287800F00100B0B12878012809D1687873
:1038E00088B9A8785E280ED1607B40F01000607324
:1038F00009E006221D492846FCF759FD18B9607BEE
:1039000040F008006073082F03D0B7F5C16F22D1D3
:1039100010E096F82D0000F0080000B920E04146C4
:10392000204605F0B7F900B11AE03146204601F013
:1039300073FB11E096F82D0000F0080000B90FE0CD
:103940004146204605F0A6F900B109E0314620467F
:10395000FFF7F2F900E003E000BF0020BDE8F081CE
:10396000204604F04DFF0020F8E70000F033010886
:103970002DE9F04705460E4617469846DDF820909B
:10398000484602F0CEFC82460E21304604F024FA6E
:1039900000B122E07468A4F80CA0D8F80000206000
:1039A000B8F80400A0803868C4F80600B8886081C0
:1039B00000BF95F82C00062808D000BF08A34FF4DC
:1039C000997215A121A0FEF719FE00BF00BF314674
:1039D0002846AA699047BDE8F0876FF00100FAE732
:1039E0002E2E2F4D6964646C6577617265732F5458
:1039F000686972645F50617274792F4C7749502FF7
:103A00007372632F6E657469662F65746865726E74
:103A100065742E63000000006E657469662D3E6853
:103A200077616464725F6C656E206D75737420627B
:103A300065203620666F722065746865726E6574E5
:103A40005F6F7574707574210000000041737365B9
:103A50007274696F6E2022257322206661696C651D
:103A600064206174206C696E6520256420696E2075
:103A700025730A0010B5044600BF44B900BF0CA36B
:103A80004FF40C7211A115A0FEF7B8FD00BF00BFE6
:103A9000732084F82E0074212F200155194860618D
:103AA0001948A061204602F063FA002010BD000012
:103AB0002E2E2F4C5749502F5461726765742F6515
:103AC000746865726E657469662E63006E657469EC
:103AD0006620213D204E554C4C000000417373651B
:103AE0007274696F6E2022257322206661696C658D
:103AF00064206174206C696E6520256420696E20E5
:103B000025730A00752E0008D16100080646354667
:103B100000BF4FF0FF310E48006804F003F80028A2
:103B2000F7D100BF0B4806F0A7F8284602F0CEFAFE
:103B300004463CB1294620462A69904710B12046E8
:103B400004F05EFE034806F0ACF8002CEAD1E0E792
:103B500004000020C00000207047000008B50546A2
:103B6000002000902C4600BF6A4601211048FDF756
:103B700089FA009800F004000090206890F82D0069
:103B8000C0F3800028B9009818B1206803F0BAFC8F
:103B90000AE0206890F82D00C0F3800020B1009862
:103BA00010B9206803F048FCC82003F075FDDBE77E
:103BB000C83400201CB5044600200190009094F801
:103BC0002D00C0F38000002854D02E484068A0B3D8
:103BD0004FF4805200212B48FDF79AFBFDF7E0FCE3
:103BE000019000BF6A4601212648FDF74BFAFDF718
:103BF000D7FC0199401AB0F57A7F00D924E00098EB
:103C000000F020002028EDD16A461F211D48FDF755
:103C100039FA009800F0100020B14FF40061194803
:103C2000C16002E000211748C160009800F0040064
:103C300020B100211348816014E004E04FF480417A
:103C4000104881600EE000BF0E48C068C0F3CF008E
:103C50000C498968C1F34F0140EA0102002109487B
:103C6000FDF756FB00210748FCF73AFE0548FDF733
:103C70005DFA02E00348FDF782FA2046FFF76CFF89
:103C80001CBD0000C834002038B504468DF8000083
:103C900069460320ABBE204638BD0146D1E901028A
:103CA000801A70477047000070B505460E4605B192
:103CB00016B96FF00F0070BD0B4C11E03046616813
:103CC000FCF767FB58B9A0682860E0686860E068A6
:103CD000A8600020E860207C28740020EBE72468BE
:103CE000002CEBD1A01FE6E7E44101082DE9F041EB
:103CF00007460D46164606B91DB96FF00500BDE82A
:103D0000F081012128460BF089FD00F094FC044667
:103D100014B94FF0FF30F2E7E5612146284606F07E
:103D200013FB094928460AF017FF0849284607F0FF
:103D30004DF804220649284609F026FC0549284684
:103D40000BF016FD0020DAE739440008C53E0008F4
:103D5000E94300081146000870B506460C46606944
:103D600028B92146304600F0A5F8002070BD6069F2
:103D7000FFF793FF0546002D05DC2146304600F095
:103D800099F80020F2E700BF00BF05A340F29D4272
:103D900011A11FA0FEF732FC00BF00BF0120E5E724
:103DA0002E2E2F4D6964646C6577617265732F5494
:103DB000686972645F50617274792F4C7749502F33
:103DC0007372632F617070732F687474702F6874CE
:103DD0007470642E6300000053534920616E6420A8
:103DE00044594E414D49435F484541444552532053
:103DF0007475726E6564206F6666206275742065E6
:103E00006F66206E6F742072656163686564000080
:103E1000417373657274696F6E2022257322206668
:103E200061696C6564206174206C696E652025642D
:103E300020696E2025730A0070B504460D460022E5
:103E40002946204600F002F870BD00002DE9F0413F
:103E500007460C4616460021384606F075FA002142
:103E600038460AF079FE0021384606F0AFFF0022FE
:103E70001146384609F088FB002138460BF078FCE3
:103E800014B1204600F0F3FB2EB1384606F098F945
:103E90000020BDE8F081384606F012FB054625B14A
:103EA00004220349384609F06FFB2846F1E7000079
:103EB000E943000870B504460D4629462046FFF741
:103EC000BBFF70BD70B504460E46254615B12846A9
:103ED00000F0CDFB70BD00002DE9F74F84B08246A5
:103EE0004FF0000B0027002003900598FCF74AFADA
:103EF0000646002E55D0701E0599085C2F2850D11B
:103F00003F490598884201D1012E4AD1701E3F28B1
:103F100001D93F2000E0701E04463CB122463848DB
:103F20000599FCF7F3F9002035490855002534E0E0
:103F30001CB3C4F13F0002900298D8B1314951F846
:103F40003500FCF71FFA0190DDE90110884201D22B
:103F5000029800E0019800902A4A52F83510284A49
:103F60001019009AFCF7D2F9002100982044244A45
:103F7000115400BFDFF8889002E0224850F83590D5
:103F800049465046FFF790FE8046B8F1000F03D136
:103F9000CDF81490D34602E06D1C052DC8D300BFA8
:103FA00000BFBBF1000F17D13F210598FCF7E0F9E6
:103FB000074617B1002038707F1C50460599FFF75F
:103FC00073FE8046B8F1000F01D1D34604E005A985
:103FD000504600F019F88346BBF1000F04D105A943
:103FE000504600F011F883460020CDE900075946FD
:103FF0005046DDE9053200F039F807B0BDE8F08F32
:104000003C820020FC33010870B506460C460EA029
:10401000206030462168FFF747FE054695B10DA0A8
:10402000206030462168FFF73FFE054655B10CA0E1
:10403000206030462168FFF737FE054615B10020A5
:10404000206070BD3046FCE72F3430342E68746D2C
:104050006C0000002F3430342E68746D00000000B6
:104060002F3430342E7368746D6C00002DE9F047E6
:1040700004460D4616469A46DDE90889002D4CD0C7
:1040800000BF2868002808D100BF28A340F60B1203
:1040900034A139A0FEF7B2FA00BF00BF65612868FD
:1040A000A06100BF6868002808DA00BF1FA340F6BF
:1040B00034123BA130A0FEF7A1FA00BF00BF686830
:1040C0006062002084F8280000BF6069007C00F076
:1040D0000100002808D100BF14A340F6431238A104
:1040E00025A0FEF78BFA00BF00BFE6B16069007C37
:1040F00000F00100B8B13DA1626AA06902F068F960
:1041000007464FB1391DA269881AA1690144A1610E
:10411000616A091A616200BF05E000206061A06168
:10412000606284F828000020BDE8F0872E2E2F4D15
:104130006964646C6577617265732F546869726431
:104140005F50617274792F4C7749502F7372632FCF
:10415000617070732F687474702F68747470642E3B
:104160006300000066696C652D3E64617461202106
:104170003D204E554C4C0000417373657274696F5D
:104180006E2022257322206661696C65642061744B
:10419000206C696E6520256420696E2025730A00F5
:1041A00046696C65206C656E677468206D75737404
:1041B00020626520706F7369746976652100000064
:1041C000485454502068656164657273206E6F7442
:1041D00020696E636C7564656420696E2066696C25
:1041E000652073797374656D000000000D0A0D0A77
:1041F000000000002DE9F74F84B00C46049F00BF7B
:1042000047B900BF53A340F2AE7260A162A0FEF7AF
:10421000F5F900BF00BF00BF44B900BF4DA340F295
:10422000AF7267A15CA0FEF7E9F900BF00BF60694B
:1042300008B9A06920B16FF0070007B0BDE8F08FA2
:10424000206A08B9276203E03946206A04F01AF8A8
:10425000384604F0CBFC206A006898B1206A0089D7
:1042600040F2FF31884202D2206A008901E040F228
:10427000FF30814600234A465449206A04F020FA60
:10428000524E03E07E68B7F80A9000BFB9F1070FFD
:104290004EDB4A464EA1304602F09AF88246BAF109
:1042A000000F45D00020039004224AA13046FCF7BD
:1042B0008BF808B9F51C04E0002030716FF00F0096
:1042C000BBE7681C801BA9EB000080B2029043A1F1
:1042D000681C029A02F07CF88046B8F1000F07D102
:1042E0003BA1681C029A02F073F8804601200390FB
:1042F000681CA8EB000080B20190B8F1000F16D046
:10430000A84514D94A4636A1304602F061F868B192
:10431000681C0090002028700022DDE90001425452
:104320002046039A0099FFF7D7FD86E700BF00BF3C
:10433000206A04F04FF88346206A0089B0F5806F48
:1043400005D2BBF1050F02DC6FF0040075E76FF0DA
:104350000F0072E72E2E2F4D6964646C65776172D1
:1043600065732F54686972645F50617274792F4C61
:104370007749502F7372632F617070732F68747454
:10438000702F68747470642E630000007020213DEB
:10439000204E554C4C000000417373657274696F78
:1043A0006E2022257322206661696C656420617429
:1043B000206C696E6520256420696E2025730A00D3
:1043C000687320213D204E554C4C00003C7E00205F
:1043D0000D0A0000474554200000000020000000A6
:1043E0000D0A0D0A000000002DE9F04105460E46B9
:1043F0002C463CB900213046FFF71EFD0746002041
:10440000BDE8F08114F8280F401C207014F828092A
:10441000042805D121463046FFF70EFD0020EFE7C6
:10442000606938B12146304600F0AAF810B1304634
:1044300008F0BAF80020E3E72DE9F04780460F4680
:10444000154699464646B9F1000F01D105B176B936
:1044500035B1298938460AF037FC284604F0D0F9EE
:1044600031463846FFF7E8FC0020BDE8F08729898F
:1044700038460AF029FC7069002835D13A463146A1
:104480002846FFF7B7FE044600BF002C11D0601D80
:1044900000280ED00B3000280BD00838002808D098
:1044A00000BF14A340F6042220A12BA0FEF7A6F81B
:1044B00000BF00BF601D30B1306A20B1306A04F027
:1044C0009FF900203062284604F09AF924B9314659
:1044D000384600F055F806E004F1100018B93146EE
:1044E0003846FFF7A9FC02E0284604F089F90020CD
:1044F000BBE700002E2E2F4D6964646C65776172F6
:1045000065732F54686972645F50617274792F4CBF
:104510007749502F7372632F617070732F687474B2
:10452000702F68747470642E630000006874747077
:104530005F70617273655F726571756573743A203F
:10454000756E6578706563746564207265747572E4
:104550006E2076616C756500417373657274696F66
:104560006E2022257322206661696C656420617467
:10457000206C696E6520256420696E2025730A0011
:1045800070B505460C4600260CB9002070BD606A67
:1045900030B921462846FFF7DFFB08B90020F5E7D0
:1045A0002146284600F010F80646606A50B9606956
:1045B000FFF773FB002805DC21462846FFF77AFC4D
:1045C0000020E3E73046E1E7F8B506460C46002751
:1045D0004FF6FF71606A884201D2606A01E04FF6CF
:1045E000FF7080B2009000236A463046A16900F057
:1045F0004FF8054655B90127BDF80010A0690844D9
:10460000A061BDF80010606A401A60623846F8BDCB
:104610002DE9F04104460E461746254615B90020FF
:10462000BDE8F081002085F8280029463046FFF7D4
:10463000A7FF0020F4E710B52C2002F0B7F80446DD
:1046400014B1204600F01DF8204610BD10B50446F8
:10465000606920B16069FFF725FB00206061206A76
:1046600020B1206A04F0CCF80020206210BD10B503
:1046700004462CB12046FFF7E9FF204601F0E8FE92
:1046800010BD10B504462C212046FBF766FE10BD78
:104690002DE9F0470546894616469A4600BF002E8A
:1046A00008D100BF1FA340F219222CA12FA0FDF7B3
:1046B000A5FF00BF00BF348814B90020BDE8F08713
:1046C000B5F86470A74200DA3C46688E4004070CD7
:1046D000BC4200DD3C4600BF5346224649462846C0
:1046E0000BF052FF804608F1010068B9B5F864008C
:1046F00018B1B5F86600092801DB012404E0204662
:1047000004EBD071C1F34F0408F1010008B9012C8A
:10471000E2DCB8F1000F01D1348001E000203080EC
:104720004046CBE72E2E2F4D6964646C657761722D
:1047300065732F54686972645F50617274792F4C8D
:104740007749502F7372632F617070732F68747480
:10475000702F68747470642E630000006C656E675F
:10476000746820213D204E554C4C00004173736508
:104770007274696F6E2022257322206661696C65F0
:1047800064206174206C696E6520256420696E2048
:1047900025730A0010B52E2007F0DCFD044600BF8B
:1047A000002C08D100BF07A340F6722213A11AA063
:1047B000FDF724FF00BF00BF5021204600F040F865
:1047C00010BD00002E2E2F4D6964646C65776172F8
:1047D00065732F54686972645F50617274792F4CED
:1047E0007749502F7372632F617070732F687474E0
:1047F000702F68747470642E6300000068747470A5
:10480000645F696E69743A207463705F6E657720C7
:104810006661696C65640000417373657274696FE9
:104820006E2022257322206661696C6564206174A4
:10483000206C696E6520256420696E2025730A004E
:1048400070B504460E46002C2CD0012120460AF0FB
:10485000E5FF32461449204605F07AFD054600BFC3
:10486000002D08D000BF11A340F657221DA124A09F
:10487000FDF7C4FE00BF00BFFF21204607F0F0FB9C
:10488000044600BF002C08D100BF08A340F65922FF
:1048900025A11BA0FDF7B2FE00BF00BF2A4920469C
:1048A00005F095FC70BD0000344301082E2E2F4DFD
:1048B0006964646C6577617265732F5468697264AA
:1048C0005F50617274792F4C7749502F7372632F48
:1048D000617070732F687474702F68747470642EB4
:1048E0006300000068747470645F696E69743A20D4
:1048F0007463705F62696E64206661696C656400F0
:10490000417373657274696F6E202225732220666D
:1049100061696C6564206174206C696E6520256432
:1049200020696E2025730A0068747470645F696E74
:1049300069743A207463705F6C697374656E206685
:1049400061696C6564000000ED3C000870B50546C7
:104950000C4622460321284600F03AF970BD0000BB
:104960002DE9FF5F05468A466548806803900398F5
:1049700000780007860E142E00DAB7E06889042854
:1049800000D2B3E06868047814B1082C70D100E05C
:10499000A6E0DFF86C9109F114095948007D00F098
:1049A000F000E02800D1A5E0554A1168506900F0F8
:1049B000A6F900B19EE02889082800D296E006F109
:1049C0000E01284603F008FA002840D02889304418
:1049D0001FFA80FB2889584500DD8BE04FF42072D8
:1049E00059460E2003F076FA074607B982E0798926
:1049F00006F10800814203D2384603F001FF79E056
:104A0000324678680399FBF781FC3146384604F05A
:104A100041F900280DD000BF00BF3AA3B62247A13C
:104A200054A0FDF7EBFD00BF00BF384603F0E8FEE1
:104A300060E02946384603F02FFD18B1384603F0F0
:104A4000DFFE57E0284603F0DBFE3D4611E006F1AD
:104A50000E01284604F01EF958B100BF00BF29A37B
:104A6000C7224EA143A0FDF7C9FD00BF00BF41E032
:104A700024E0D5F804803146284603F0ADF9E0B9CA
:104A80006F68D9F80000F8601D480069386100209F
:104A900088F80000A8F80200FF2038720020788112
:104AA00001200021FF230A46CDE9010A0091494671
:104AB000284600F099FB834600BF11E0032C0ED07E
:104AC0000B2C0CD00C2C0AD0042C08D0052C06D0B2
:104AD0000D2C04D00E2C02D0112C00D000BF00BF32
:104AE00000BF284603F08CFEBDE8FF9F284603F078
:104AF00087FEF9E7284603F083FE00BFF4E70000D5
:104B00007C8200202E2E2F4D6964646C6577617263
:104B100065732F54686972645F50617274792F4CA9
:104B20007749502F7372632F636F72652F697076A8
:104B3000342F69636D702E630000000069636D702F
:104B40005F696E7075743A206D6F76696E6720725A
:104B50002D3E7061796C6F616420746F2069636DA4
:104B60007020686561646572206661696C65640ABD
:104B700000000000417373657274696F6E20222516
:104B80007322206661696C6564206174206C696EB3
:104B90006520256420696E2025730A0069636D70A5
:104BA0005F696E7075743A20726573746F72696EA6
:104BB00067206F726967696E616C20702D3E70614D
:104BC000796C6F6164206661696C65640A0000003D
:104BD0002DE9FF470746884691464FF4207224216D
:104BE000222003F077F905460DB9BDE8FF8700BF25
:104BF0006889242808D200BF19A34FF4B47226A1F3
:104C000030A0FDF7FBFC00BF00BFD7F804A06C6824
:104C100084F8008084F801900020A080E08079680A
:104C20006A6802F108001C22FBF770FBDAF80C003E
:104C3000039003A800F040FD06465EB100206080AE
:104C400001200021FF2303AACDE901060091284697
:104C500000F0CAFA284603F0D3FD00BFC5E7000004
:104C60002E2E2F4D6964646C6577617265732F54C5
:104C7000686972645F50617274792F4C7749502F64
:104C80007372632F636F72652F697076342F696357
:104C90006D702E6300000000636865636B207468AC
:104CA0006174206669727374207062756620636136
:104CB0006E20686F6C642069636D70206D6573731E
:104CC00061676500417373657274696F6E20222598
:104CD0007322206661696C6564206174206C696E62
:104CE0006520256420696E2025730A0070B505468D
:104CF0000C4622460B212846FFF76AFF70BD18B507
:104D000002460092D04300B10AB9012018BD91F8C3
:104D10002D0000F0020008B90020F7E74868904233
:104D200001D10020F2E700988B681840D1E90134E6
:104D30002340984208D1886822EA00008C68E34347
:104D4000984201D10120E1E70020DFE72DE9F74F8C
:104D50008CB004460F464FF00008B98CA1F1140046
:104D6000C11700EB5171C1F3CF0A142005906068A0
:104D70000990DDF8249099F8000000F00F0014214C
:104D8000B1EB800F04D06FF005000FB0BDE8F08FDD
:104D900000BF608914280BDA00BF72A34FF43F7282
:104DA0007FA186A0FDF72AFC00BF6FF00500ECE7AD
:104DB00000BFB9F8060001F0B4FA04900498C0F3FB
:104DC0000C000790049800F40050039020891438D8
:104DD0001FFA80FBBDE04FF6FF7000EACA0058459D
:104DE00001DD584603E04FF6FF7000EACA00089064
:104DF0004FF4207214210E2003F06CF8054605B91B
:104E0000ADE000BF6889142808DA00BF55A34FF44D
:104E1000497274A169A0FDF7F1FB00BF00BF142225
:104E200068680999FBF772FAD5F8049008980A9017
:104E300054E061890598081A80B2029000BF618928
:104E40000598814208DA00BF46A340F22D326DA1D9
:104E50005AA0FDF7D3FB00BF00BF02990A98884211
:104E600001DA0A9800E002988046B8F1000F03D1F9
:104E700000200590246831E000F068FC06461EB969
:104E8000284603F0BDFC6AE0616805980844334693
:104E900041224146CDE90008002003F0C9F90B90FA
:104EA0000B9830B9304600F057FC284603F0A8FCB8
:104EB00055E0204603F09AFE74615648306128465A
:104EC0000B9903F0DFF90A98A0EB080080B20A9072
:104ED0000A9810B100200590246800BF0A980028A5
:104EE000A7D10598404480B20590B88C1438584535
:104EF00001DB012000E0002006900798C0F30C00C1
:104F00000490069808B1039818B1049840F4005032
:104F10000490049801F005FAA9F8060008991431E4
:104F200088B201F0FEF9A9F802000020A9F80A00F1
:104F30007B69294638460E9A9847284603F060FC5C
:104F40000898ABEB00001FFA80FB0798504480B232
:104F50000790BBF1000F7FF43EAF002015E74FF044
:104F6000FF3012E72E2E2F4D6964646C65776172F5
:104F700065732F54686972645F50617274792F4C45
:104F80007749502F7372632F636F72652F69707644
:104F9000342F6970345F667261672E630000000011
:104FA0006970345F6672616728293A20706275669D
:104FB00020746F6F2073686F7274000041737365A3
:104FC0007274696F6E2022257322206661696C6598
:104FD00064206174206C696E6520256420696E20F0
:104FE00025730A0074686973206E656564732061B7
:104FF000207062756620696E206F6E65207069652D
:1050000063652100702D3E6C656E203E3D20706F03
:1050100066660000A95E00082DE9F04707460E46C7
:105020007D6828780421B1EB201F05D0384603F0B5
:10503000E7FB0020BDE8F087287800074FEA90687A
:10504000688801F06EF981463989494503DD494692
:10505000384603F017FD7889404505DB3889484517
:1050600002DBB8F1140F04DA384603F0C9FB002064
:10507000E0E728694D494861E86808610846007D15
:1050800000F0F000E0280AD196F82D0000F00100B1
:1050900018B1706808B134461CE000241AE03046AC
:1050A00000F088F808B1344614E000243F48007D41
:1050B0007F280FD03E48046809E0B44200D105E0E3
:1050C000204600F077F800B103E000BF2468002C10
:1050D000F3D100BF354908693146FFF710FE28B902
:1050E0003248007C00F0F000E02804D1384603F09C
:1050F00087FB00209EE724B9384603F081FB00209F
:1051000098E7E8884FF63F71084038B1384600F01C
:1051100055F907460FB900208CE77D6823480460E5
:105120004660856028780007800E204988814146C6
:10513000384603F0AFFD687A01280DD0062806D066
:1051400011280ED1314638460CF062FA22E0314681
:10515000384606F079F81DE031463846FFF700FC86
:1051600018E0124948692146FFF7C9FD70B90F4898
:10517000007D00F0F000E02808D00FFA88F13846F2
:1051800003F035FC02213846FFF7E0FB384603F018
:1051900037FB00BF00BF00200449086048608860FA
:1051A00088810861486100BF44E700007C820020DC
:1051B0000801002010B5044694F82D0000F001000D
:1051C00070B1606860B1074840696168884205D085
:1051D000044948692146FFF792FD08B1012010BD3E
:1051E0000020FCE77C8200202DE9FE4F07460C469C
:1051F00015469846DDE90C9A0E9EA34625B10CB1E2
:10520000206808B906F1040B43462A465946384639
:10521000CDE9009A029600F003F8BDE8FE8F000089
:105220002DE9F84F05460F4690469A46DDF828B01E
:105230000C9E00BFA87B012808D000BF37A34FF405
:10524000557243A145A0FDF7D9F900BF00BFB8F1E1
:10525000000F46D04FF014091421284602F0BCFD7F
:1052600018B16FF00100BDE8F88F6C6800BF688965
:10527000142808D200BF29A34FF4627241A137A0BD
:10528000FDF7BCF900BF00BF84F808A00B9860725E
:10529000D8F80000206148464FEAE97109EB9171A6
:1052A000C1F3870141F04001217084F801B02889E1
:1052B00001F037F860800020E0803E48008801F06F
:1052C00030F8A0803B480088401C3A4908801FB94C
:1052D00039480068E06001E03868E06000206081E3
:1052E00009E06889142802DA6FF00100BBE76C68F6
:1052F00020690090E846B08C48B12889B18C88427A
:1053000005DD424631462846FFF720FDABE7424621
:105310002946304673699847A5E700002E2E2F4D89
:105320006964646C6577617265732F54686972642F
:105330005F50617274792F4C7749502F7372632FCD
:10534000636F72652F697076342F6970342E630035
:10535000702D3E726566203D3D20310041737365BE
:105360007274696F6E2022257322206661696C65F4
:1053700064206174206C696E6520256420696E204C
:1053800025730A00636865636B2074686174206626
:105390006972737420706275662063616E20686F35
:1053A0006C64207374727563742069705F686472D2
:1053B0000000000072010020344301082DE9F14F84
:1053C00084B004984568287800F00F001421B1EBF0
:1053D000800F00D011E1E88800F0A3FFC0F30C00BB
:1053E0004FF6FF7101EAC00A688800F09AFF07468D
:1053F00028780007810E02910299B94200DDFCE095
:105400000298381A87B2049802F0E4FF06467D48F5
:10541000018888190A280ADD3146284600F0E6FC92
:1054200020B17848008830440A2800DDE5E076485D
:10543000046811E06069E968884209D1A0692969B6
:10544000884205D1A089A988884201D1012000E0C5
:10545000002000B102E02468002CEBD100BF34B979
:105460003146284600F0A8FB044694B9C5E0E88818
:1054700000F057FFC0F30C0058B9E08900F051FF6D
:10548000C0F30C0028B11422294604F10800FAF7F1
:105490003DFFE888012121EA50100190019850B1A8
:1054A0000AEB070188B2504503DB4FF6EB718842E7
:1054B00000DD80E000BF2046019A049900F098F9D1
:1054C00083460BF1010000B975E04E480088304476
:1054D0004C490880019840B10AEB070188B2A083CB
:1054E000A17F41F00101A17700BFBBF1010F60D1A5
:1054F000A08B143080B2009060684068D0F80090B3
:1055000060684568142204F108012846FAF7FEFE97
:10551000009800F006FF68800020E88068816068DD
:1055200004900DE0D9F8040003901421484603F0DC
:10553000B1FB4946049802F0A5FE0398D0F800900C
:10554000B9F1000FEED130480068844202D14FF02B
:1055500000080EE02C48D0F8008006E0D8F80000E3
:10556000A04200D104E0D8F80080B8F1000FF5D1D6
:1055700000BF4146204600F0BDFA049802F02AFF21
:10558000064600BF1F480088B04208DA00BF1FA3CC
:1055900040F29B222CA133A0FDF730F800BF00BFE2
:1055A00018480088801B17490880049805B0BDE89A
:1055B000F08F0020FAE700BF44B900BF13A34FF4F7
:1055C0002A7232A127A0FDF719F800BF00BF60685A
:1055D00090B900BF0C480068844208D000BF0BA3FC
:1055E00040F2AB222CA11FA0FDF708F800BF00BFBE
:1055F0000021204600F07EFA00BF049803F000F975
:105600000020D3E778010020740100202E2E2F4DBA
:105610006964646C6577617265732F54686972643C
:105620005F50617274792F4C7749502F7372632FDA
:10563000636F72652F697076342F6970345F66729C
:1056400061672E630000000069705F7265617373AB
:105650005F70627566636F756E74203E3D20636C8B
:10566000656E0000417373657274696F6E20222548
:105670007322206661696C6564206174206C696EB8
:105680006520256420696E2025730A0069707220E8
:10569000213D204E554C4C006E6F7420666972732C
:1056A00074616C74686F756768206A7573742065BF
:1056B0006E7175657565640010B502462148016814
:1056C00021E091F82D0000F00100D8B191F82D00F3
:1056D000C0F38000B0B14868A0B110688B68184072
:1056E000D1E901342340984201D1084610BD91F818
:1056F0002D0000F0020028B91068CB68984201D153
:105700000846F3E709680029DBD10F480068A0B11B
:105710000D48006890F82D0000F0010068B10A48BB
:10572000006890F82D00C0F3800030B10648006892
:10573000406810B110787F2801D10020D6E70248D8
:105740000068D3E7080100200C01002010B50520F7
:1057500001F038FB10BD000010B5044600BF002C5E
:1057600008D100BF06A34FF4317214A116A0FCF7B4
:1057700045FF00BF00BF2146052001F0A5FA10BD7E
:105780002E2E2F4D6964646C6577617265732F549A
:10579000686972645F50617274792F4C7749502F39
:1057A0007372632F636F72652F697076342F69701F
:1057B000345F667261672E63000000007020213D37
:1057C000204E554C4C000000417373657274696F34
:1057D0006E2022257322206661696C6564206174E5
:1057E000206C696E6520256420696E2025730A008F
:1057F0002DE9F74F84B00646884600250120019028
:10580000D8F8040002900299488800F08AFD834687
:10581000029800780007800E03900398584503DD36
:10582000681E07B0BDE8F08F0398ABEB00001FFACD
:1058300080FB0299C88800F074FDC0F30C004FF69D
:10584000FF7101EAC00A00BF00BFD8F80440002081
:105850002060A4F804A00AEB0B00E080E08850452B
:1058600002DA4FF0FF30DCE7D6F804903EE0D9F8DA
:105870000470A088B988884220DAC4F800909DB1ED
:10588000A088E988884203DBE088B988884202DD85
:105890004FF0FF30C5E7C5F80080E888A18888424E
:1058A0000BD00020019008E0E088B988884202DD32
:1058B0004FF0FF30B5E7C6F804801AE0A088B98839
:1058C000884202D14FF0FF30ABE7A088F9888842C8
:1058D00002DA4FF0FF30A4E72DB1E888B98888429A
:1058E00001D000200190D7F800903D46B9F1000F9B
:1058F000BDD100BFB9F1000F28D1002D17D000BFD6
:10590000E888A188884208DD00BF3EA34FF4DB721F
:105910004BA153A0FCF772FE00BF00BFC5F800808A
:10592000E888A188884211D0002001900EE000BFD5
:10593000706840B100BF33A34FF4DF7252A148A09A
:10594000FCF75CFE00BF00BFC6F80480069820B9D3
:10595000B07F00F00100002851D00198002848D005
:10596000706818B170684068808810B1002001909C
:105970003FE02546D4F800900BE0D9F80440E888D1
:10598000A188884202D00020019005E02546D4F885
:105990000090B9F1000FF0D100BF0198002828D085
:1059A00000BF706840B900BF16A340F2DF1244A1E7
:1059B0002BA0FCF723FE00BF00BF00BF706840684B
:1059C000A04208D100BF0FA34FF4F0723CA124A065
:1059D000FCF714FE00BF00BF00BF206840B100BF4D
:1059E00008A34FF4F1723AA11DA0FCF707FE00BF17
:1059F00000BF019808B1012013E7002011E7002043
:105A00000FE700002E2E2F4D6964646C657761727C
:105A100065732F54686972645F50617274792F4C9A
:105A20007749502F7372632F636F72652F69707699
:105A3000342F6970345F667261672E630000000066
:105A4000636865636B20667261676D656E74732051
:105A5000646F6E2774206F7665726C617000000051
:105A6000417373657274696F6E20222573222066FC
:105A700061696C6564206174206C696E65202564C1
:105A800020696E2025730A006E6F2070726576693A
:105A90006F757320667261676D656E742C20746813
:105AA0006973206D75737420626520746865206663
:105AB0006972737420667261676D656E742100008F
:105AC00073616E69747920636865636B0000000020
:105AD00076616C69646174655F6461746167726149
